{
    "contractName": "gorvernance",
    "abi": [
        {
            "inputs": [
                {
                    "internalType": "address",
                    "name": "_erc20Token",
                    "type": "address"
                },
                {
                    "internalType": "address",
                    "name": "_erc721NFT",
                    "type": "address"
                },
                {
                    "internalType": "address",
                    "name": "_governance",
                    "type": "address"
                }
            ],
            "stateMutability": "nonpayable",
            "type": "constructor"
        },
        {
            "anonymous": false,
            "inputs": [
                {
                    "indexed": false,
                    "internalType": "uint256",
                    "name": "_balance",
                    "type": "uint256"
                }
            ],
            "name": "BalanceCheck",
            "type": "event"
        },
        {
            "anonymous": false,
            "inputs": [
                {
                    "indexed": true,
                    "internalType": "uint256",
                    "name": "tokenId",
                    "type": "uint256"
                },
                {
                    "indexed": false,
                    "internalType": "uint256",
                    "name": "cost",
                    "type": "uint256"
                }
            ],
            "name": "TokenPlaced",
            "type": "event"
        },
        {
            "anonymous": false,
            "inputs": [
                {
                    "indexed": true,
                    "internalType": "uint256",
                    "name": "tokenId",
                    "type": "uint256"
                },
                {
                    "indexed": true,
                    "internalType": "address",
                    "name": "newOwner",
                    "type": "address"
                }
            ],
            "name": "TokenSold",
            "type": "event"
        },
        {
            "anonymous": false,
            "inputs": [
                {
                    "indexed": true,
                    "internalType": "uint256",
                    "name": "tokenId",
                    "type": "uint256"
                }
            ],
            "name": "TokenUnplaced",
            "type": "event"
        },
        {
            "anonymous": false,
            "inputs": [
                {
                    "indexed": false,
                    "internalType": "address",
                    "name": "approvedaddress",
                    "type": "address"
                },
                {
                    "indexed": false,
                    "internalType": "address",
                    "name": "thisaddress",
                    "type": "address"
                }
            ],
            "name": "checkthis",
            "type": "event"
        },
        {
            "inputs": [
                {
                    "internalType": "uint256",
                    "name": "index",
                    "type": "uint256"
                }
            ],
            "name": "checkActive",
            "outputs": [
                {
                    "internalType": "bool",
                    "name": "",
                    "type": "bool"
                }
            ],
            "stateMutability": "view",
            "type": "function"
        },
        {
            "inputs": [
                {
                    "internalType": "uint256",
                    "name": "index",
                    "type": "uint256"
                }
            ],
            "name": "checkEnd",
            "outputs": [
                {
                    "internalType": "bool",
                    "name": "",
                    "type": "bool"
                }
            ],
            "stateMutability": "view",
            "type": "function"
        },
        {
            "inputs": [
                {
                    "internalType": "uint256",
                    "name": "index",
                    "type": "uint256"
                }
            ],
            "name": "checkItem",
            "outputs": [
                {
                    "components": [
                        {
                            "internalType": "address",
                            "name": "mover",
                            "type": "address"
                        },
                        {
                            "internalType": "string",
                            "name": "title",
                            "type": "string"
                        },
                        {
                            "internalType": "string",
                            "name": "content",
                            "type": "string"
                        },
                        {
                            "internalType": "uint256",
                            "name": "yes",
                            "type": "uint256"
                        },
                        {
                            "internalType": "uint256",
                            "name": "no",
                            "type": "uint256"
                        },
                        {
                            "internalType": "uint256",
                            "name": "movedBlockNumber",
                            "type": "uint256"
                        },
                        {
                            "internalType": "bool",
                            "name": "isActive",
                            "type": "bool"
                        },
                        {
                            "internalType": "bool",
                            "name": "isApproved",
                            "type": "bool"
                        }
                    ],
                    "internalType": "struct gorvernance.moveItem",
                    "name": "",
                    "type": "tuple"
                }
            ],
            "stateMutability": "view",
            "type": "function"
        },
        {
            "inputs": [
                {
                    "internalType": "uint256",
                    "name": "index",
                    "type": "uint256"
                }
            ],
            "name": "checkMove",
            "outputs": [
                {
                    "internalType": "uint256",
                    "name": "",
                    "type": "uint256"
                },
                {
                    "internalType": "uint256",
                    "name": "",
                    "type": "uint256"
                }
            ],
            "stateMutability": "view",
            "type": "function"
        },
        {
            "inputs": [
                {
                    "internalType": "uint256",
                    "name": "index",
                    "type": "uint256"
                }
            ],
            "name": "closeVotes",
            "outputs": [],
            "stateMutability": "nonpayable",
            "type": "function"
        },
        {
            "inputs": [],
            "name": "erc20Token",
            "outputs": [
                {
                    "internalType": "address",
                    "name": "",
                    "type": "address"
                }
            ],
            "stateMutability": "view",
            "type": "function"
        },
        {
            "inputs": [],
            "name": "erc721NFT",
            "outputs": [
                {
                    "internalType": "address",
                    "name": "",
                    "type": "address"
                }
            ],
            "stateMutability": "view",
            "type": "function"
        },
        {
            "inputs": [],
            "name": "feeAmount",
            "outputs": [
                {
                    "internalType": "uint256",
                    "name": "",
                    "type": "uint256"
                }
            ],
            "stateMutability": "view",
            "type": "function"
        },
        {
            "inputs": [],
            "name": "governance",
            "outputs": [
                {
                    "internalType": "address",
                    "name": "",
                    "type": "address"
                }
            ],
            "stateMutability": "view",
            "type": "function"
        },
        {
            "inputs": [
                {
                    "internalType": "string",
                    "name": "title",
                    "type": "string"
                },
                {
                    "internalType": "string",
                    "name": "content",
                    "type": "string"
                },
                {
                    "internalType": "address",
                    "name": "ERC721NFT",
                    "type": "address"
                },
                {
                    "internalType": "address",
                    "name": "ERC20TOKEN",
                    "type": "address"
                }
            ],
            "name": "move",
            "outputs": [],
            "stateMutability": "nonpayable",
            "type": "function"
        },
        {
            "inputs": [
                {
                    "internalType": "uint256",
                    "name": "index",
                    "type": "uint256"
                },
                {
                    "internalType": "uint256",
                    "name": "voting",
                    "type": "uint256"
                },
                {
                    "internalType": "bool",
                    "name": "yesOrNo",
                    "type": "bool"
                }
            ],
            "name": "votes",
            "outputs": [],
            "stateMutability": "nonpayable",
            "type": "function"
        }
    ],
    "bytecode": "608060405234801561001057600080fd5b50604051620014223803806200142283398101604081905261003191610094565b6000600781905580546001600160a01b039485166001600160a01b0319918216179091556001805493851693821693909317909255600380549190931691161790556100d6565b80516001600160a01b038116811461008f57600080fd5b919050565b6000806000606084860312156100a8578283fd5b6100b184610078565b92506100bf60208501610078565b91506100cd60408501610078565b90509250925092565b61133c80620000e66000396000f3fe608060405234801561001057600080fd5b50600436106100a95760003560e01c80638a13eea7116100715780638a13eea7146101295780638f73bfed14610131578063a3da026114610151578063cd560ffd14610164578063d2f8768114610177578063e651a9891461017f576100a9565b80633e3d9eae146100ae578063463f2ab6146100c35780635aa6e675146100ec5780636564ad321461010157806369e1540414610114575b600080fd5b6100c16100bc366004610f55565b6101a0565b005b6100d66100d1366004610f55565b61057d565b6040516100e391906111a9565b60405180910390f35b6100f461071c565b6040516100e3919061100e565b6100c161010f366004610ed3565b61072b565b61011c610a2d565b6040516100e39190611248565b6100f4610a33565b61014461013f366004610f55565b610a42565b6040516100e39190611046565b61014461015f366004610f55565b610a6b565b6100c1610172366004610f85565b610a8b565b6100f4610c42565b61019261018d366004610f55565b610c51565b6040516100e3929190611251565b60008181526006602090815260408083208151610100810190925280546001600160a01b0316825260018101805492939192918401916101df9061128e565b80601f016020809104026020016040519081016040528092919081815260200182805461020b9061128e565b80156102585780601f1061022d57610100808354040283529160200191610258565b820191906000526020600020905b81548152906001019060200180831161023b57829003601f168201915b505050505081526020016002820180546102719061128e565b80601f016020809104026020016040519081016040528092919081815260200182805461029d9061128e565b80156102ea5780601f106102bf576101008083540402835291602001916102ea565b820191906000526020600020905b8154815290600101906020018083116102cd57829003601f168201915b505050918352505060038201546020820152600482015460408201526005820154606082015260069091015460ff8082161515608084015261010090910416151560a09091015260c081015190915015156001146103635760405162461bcd60e51b815260040161035a90611115565b60405180910390fd5b438160a001516000610375919061125f565b11156103935760405162461bcd60e51b815260040161035a9061115e565b60006104c3826080015183606001516103ac919061125f565b6000546003546040516370a0823160e01b81526001600160a01b03928316926370a08231926103e09291169060040161100e565b60206040518083038186803b1580156103f857600080fd5b505afa15801561040c573d6000803e3d6000fd5b505050506040513d601f19601f820116820180604052508101906104309190610f6d565b60008054906101000a90046001600160a01b03166001600160a01b03166318160ddd6040518163ffffffff1660e01b815260040160206040518083038186803b15801561047c57600080fd5b505afa158015610490573d6000803e3d6000fd5b505050506040513d601f19601f820116820180604052508101906104b49190610f6d565b6104be9190611277565b610c6e565b9050670429d069189e00008110156104da57600080fd5b81608001518260600151111561050e57600083815260066020819052604090912001805461ffff1916610100179055610578565b81608001518260600151101561053e57600083815260066020819052604090912001805461ffff19169055610578565b816080015182606001511415610578576000838152600660205260408120600501805462015180929061057290849061125f565b90915550505b505050565b610585610d34565b6000828152600660209081526040918290208251610100810190935280546001600160a01b0316835260018101805491928401916105c29061128e565b80601f01602080910402602001604051908101604052809291908181526020018280546105ee9061128e565b801561063b5780601f106106105761010080835404028352916020019161063b565b820191906000526020600020905b81548152906001019060200180831161061e57829003601f168201915b505050505081526020016002820180546106549061128e565b80601f01602080910402602001604051908101604052809291908181526020018280546106809061128e565b80156106cd5780601f106106a2576101008083540402835291602001916106cd565b820191906000526020600020905b8154815290600101906020018083116106b057829003601f168201915b505050918352505060038201546020820152600482015460408201526005820154606082015260069091015460ff8082161515608084015261010090910416151560a09091015290505b919050565b6003546001600160a01b031681565b6040516370a0823160e01b81526107d0906001600160a01b038316906370a082319061075b90339060040161100e565b60206040518083038186803b15801561077357600080fd5b505afa158015610787573d6000803e3d6000fd5b505050506040513d601f19601f820116820180604052508101906107ab9190610f6d565b10156107c95760405162461bcd60e51b815260040161035a906110f7565b6040516370a0823160e01b81526005906001600160a01b038416906370a08231906107f890339060040161100e565b60206040518083038186803b15801561081057600080fd5b505afa158015610824573d6000803e3d6000fd5b505050506040513d601f19601f820116820180604052508101906108489190610f6d565b10156108665760405162461bcd60e51b815260040161035a906110ac565b60008451118015610878575060008351115b6108945760405162461bcd60e51b815260040161035a9061113f565b6003546040516323b872dd60e01b81526001600160a01b03808416926323b872dd926108ca92339216906107d090600401611022565b602060405180830381600087803b1580156108e457600080fd5b505af11580156108f8573d6000803e3d6000fd5b505050506040513d601f19601f8201168201806040525081019061091c9190610eb7565b50600160076000828254610930919061125f565b909155505060408051610100810182523381526020808201878152828401879052600060608401819052608084018190524360a0850152600160c0850181905260e08501829052600754825260068452949020835181546001600160a01b0319166001600160a01b0390911617815590518051939491936109b993928501929190910190610d86565b50604082015180516109d5916002840191602090910190610d86565b50606082015160038201556080820151600482015560a0820151600582015560c08201516006909101805460e09093015115156101000261ff001992151560ff19909416939093179190911691909117905550505050565b60025481565b6000546001600160a01b031681565b6000818152600660205260408120600501544390610a639062093a8061125f565b101592915050565b6000818152600660208190526040909120015460ff161515600114919050565b6000838152600660208190526040909120015460ff161515600114610ac25760405162461bcd60e51b815260040161035a9061117f565b600083815260086020908152604080832033845290915290205460ff1615610afc5760405162461bcd60e51b815260040161035a906110d4565b6000546040516370a0823160e01b815283916001600160a01b0316906370a0823190610b2c90339060040161100e565b60206040518083038186803b158015610b4457600080fd5b505afa158015610b58573d6000803e3d6000fd5b505050506040513d601f19601f82011682018060405250810190610b7c9190610f6d565b1015610b9a5760405162461bcd60e51b815260040161035a90611075565b60018115151480610ba9575080155b610bc55760405162461bcd60e51b815260040161035a90611051565b60008381526008602090815260408083203384529091529020805460ff191660019081179091558115151415610c215760008381526006602052604081206003018054849290610c1690849061125f565b909155506105789050565b6000838152600660205260408120600401805484929061057290849061125f565b6001546001600160a01b031681565b600090815260066020526040902060038101546004909101549091565b6000610c8383670de0b6b3a764000084610c8a565b9392505050565b6000808060001985870986860292508281109083900303905080610cc05760008411610cb557600080fd5b508290049050610c83565b808411610ccc57600080fd5b600084868809600260036001881981018916988990049182028318808302840302808302840302808302840302808302840302808302840302918202909203026000889003889004909101858311909403939093029303949094049190911702949350505050565b60405180610100016040528060006001600160a01b0316815260200160608152602001606081526020016000815260200160008152602001600081526020016000151581526020016000151581525090565b828054610d929061128e565b90600052602060002090601f016020900481019282610db45760008555610dfa565b82601f10610dcd57805160ff1916838001178555610dfa565b82800160010185558215610dfa579182015b82811115610dfa578251825591602001919060010190610ddf565b50610e06929150610e0a565b5090565b5b80821115610e065760008155600101610e0b565b80356001600160a01b038116811461071757600080fd5b600082601f830112610e46578081fd5b813567ffffffffffffffff80821115610e6157610e616112df565b604051601f8301601f191681016020018281118282101715610e8557610e856112df565b604052828152848301602001861015610e9c578384fd5b82602086016020830137918201602001929092529392505050565b600060208284031215610ec8578081fd5b8151610c83816112f5565b60008060008060808587031215610ee8578283fd5b843567ffffffffffffffff80821115610eff578485fd5b610f0b88838901610e36565b95506020870135915080821115610f20578485fd5b50610f2d87828801610e36565b935050610f3c60408601610e1f565b9150610f4a60608601610e1f565b905092959194509250565b600060208284031215610f66578081fd5b5035919050565b600060208284031215610f7e578081fd5b5051919050565b600080600060608486031215610f99578283fd5b83359250602084013591506040840135610fb2816112f5565b809150509250925092565b15159052565b60008151808452815b81811015610fe857602081850181015186830182015201610fcc565b81811115610ff95782602083870101525b50601f01601f19169290920160200192915050565b6001600160a01b0391909116815260200190565b6001600160a01b039384168152919092166020820152604081019190915260600190565b901515815260200190565b6020808252600a9082015269139bdd081848189bdbdb60b21b604082015260600190565b6020808252601a908201527f45786365656420746865206e756d626572206f6620766f746573000000000000604082015260600190565b6020808252600e908201526d1b9bdd08195b9bdd59da0813919560921b604082015260600190565b602080825260099082015268165bdd48159bdd195960ba1b604082015260600190565b6020808252600490820152636e6f706560e01b604082015260600190565b60208082526010908201526f4465616374697661746564206974656d60801b604082015260600190565b6020808252600590820152646e6f70653360d81b604082015260600190565b6020808252600790820152661b9bdd081e595d60ca1b604082015260600190565b60208082526010908201526f4465616374697661746564204974656d60801b604082015260600190565b602080825282516001600160a01b03168282015282015161010060408301819052600091906111dc610120850183610fc3565b91506040850151601f198584030160608601526111f98382610fc3565b92505060608501516080850152608085015160a085015260a085015160c085015260c085015161122c60e0860182610fbd565b5060e085015161123e82860182610fbd565b5090949350505050565b90815260200190565b918252602082015260400190565b60008219821115611272576112726112c9565b500190565b600082821015611289576112896112c9565b500390565b6002810460018216806112a257607f821691505b602082108114156112c357634e487b7160e01b600052602260045260246000fd5b50919050565b634e487b7160e01b600052601160045260246000fd5b634e487b7160e01b600052604160045260246000fd5b801515811461130357600080fd5b5056fea2646970667358221220693ebafd711cdf34869264e9bf538a1a5bccd56514a0f2416f56fa6854643a0564736f6c63430008000033",
    "sourcePath": "/Users/string/truffle/kanv-gorvanance/contracts/gorvernance.sol",
    "compiler": {
        "name": "solc",
        "version": "0.8.0+commit.c7dfd78e"
    },
    "functionHashes": {
        "checkActive(uint256)": "a3da0261",
        "checkEnd(uint256)": "8f73bfed",
        "checkItem(uint256)": "463f2ab6",
        "checkMove(uint256)": "e651a989",
        "closeVotes(uint256)": "3e3d9eae",
        "erc20Token()": "8a13eea7",
        "erc721NFT()": "d2f87681",
        "feeAmount()": "69e15404",
        "governance()": "5aa6e675",
        "move(string,string,address,address)": "6564ad32",
        "votes(uint256,uint256,bool)": "cd560ffd"
    },
    "gasEstimates": {
        "creation": {
            "codeDepositCost": "984800",
            "executionCost": "infinite",
            "totalCost": "infinite"
        },
        "external": {
            "checkActive(uint256)": "1256",
            "checkEnd(uint256)": "1293",
            "checkItem(uint256)": "infinite",
            "checkMove(uint256)": "2123",
            "closeVotes(uint256)": "infinite",
            "erc20Token()": "1070",
            "erc721NFT()": "1158",
            "feeAmount()": "1117",
            "governance()": "1115",
            "move(string,string,address,address)": "infinite",
            "votes(uint256,uint256,bool)": "infinite"
        }
    }
}