{
  "contractName": "ANV_NFT",
  "abi": [
    {
      "inputs": [
        {
          "internalType": "string",
          "name": "name",
          "type": "string"
        },
        {
          "internalType": "string",
          "name": "symbol",
          "type": "string"
        }
      ],
      "stateMutability": "nonpayable",
      "type": "constructor"
    },
    {
      "anonymous": false,
      "inputs": [
        {
          "indexed": true,
          "internalType": "address",
          "name": "owner",
          "type": "address"
        },
        {
          "indexed": true,
          "internalType": "address",
          "name": "approved",
          "type": "address"
        },
        {
          "indexed": true,
          "internalType": "uint256",
          "name": "tokenId",
          "type": "uint256"
        }
      ],
      "name": "Approval",
      "type": "event"
    },
    {
      "anonymous": false,
      "inputs": [
        {
          "indexed": true,
          "internalType": "address",
          "name": "owner",
          "type": "address"
        },
        {
          "indexed": true,
          "internalType": "address",
          "name": "operator",
          "type": "address"
        },
        {
          "indexed": false,
          "internalType": "bool",
          "name": "approved",
          "type": "bool"
        }
      ],
      "name": "ApprovalForAll",
      "type": "event"
    },
    {
      "anonymous": false,
      "inputs": [
        {
          "indexed": false,
          "internalType": "address",
          "name": "target",
          "type": "address"
        },
        {
          "indexed": false,
          "internalType": "bool",
          "name": "frozen",
          "type": "bool"
        }
      ],
      "name": "FrozenFunds",
      "type": "event"
    },
    {
      "anonymous": false,
      "inputs": [
        {
          "indexed": true,
          "internalType": "address",
          "name": "previousOwner",
          "type": "address"
        },
        {
          "indexed": true,
          "internalType": "address",
          "name": "newOwner",
          "type": "address"
        }
      ],
      "name": "OwnershipTransferred",
      "type": "event"
    },
    {
      "anonymous": false,
      "inputs": [
        {
          "indexed": true,
          "internalType": "address",
          "name": "from",
          "type": "address"
        },
        {
          "indexed": true,
          "internalType": "address",
          "name": "to",
          "type": "address"
        },
        {
          "indexed": true,
          "internalType": "uint256",
          "name": "tokenId",
          "type": "uint256"
        }
      ],
      "name": "Transfer",
      "type": "event"
    },
    {
      "inputs": [
        {
          "internalType": "address",
          "name": "to",
          "type": "address"
        },
        {
          "internalType": "uint256",
          "name": "tokenId",
          "type": "uint256"
        }
      ],
      "name": "approve",
      "outputs": [],
      "stateMutability": "nonpayable",
      "type": "function"
    },
    {
      "inputs": [
        {
          "internalType": "address",
          "name": "owner",
          "type": "address"
        }
      ],
      "name": "balanceOf",
      "outputs": [
        {
          "internalType": "uint256",
          "name": "",
          "type": "uint256"
        }
      ],
      "stateMutability": "view",
      "type": "function",
      "constant": true
    },
    {
      "inputs": [
        {
          "internalType": "address",
          "name": "",
          "type": "address"
        }
      ],
      "name": "frozenAccount",
      "outputs": [
        {
          "internalType": "bool",
          "name": "",
          "type": "bool"
        }
      ],
      "stateMutability": "view",
      "type": "function",
      "constant": true
    },
    {
      "inputs": [
        {
          "internalType": "uint256",
          "name": "tokenId",
          "type": "uint256"
        }
      ],
      "name": "getApproved",
      "outputs": [
        {
          "internalType": "address",
          "name": "",
          "type": "address"
        }
      ],
      "stateMutability": "view",
      "type": "function",
      "constant": true
    },
    {
      "inputs": [
        {
          "internalType": "address",
          "name": "owner",
          "type": "address"
        },
        {
          "internalType": "address",
          "name": "operator",
          "type": "address"
        }
      ],
      "name": "isApprovedForAll",
      "outputs": [
        {
          "internalType": "bool",
          "name": "",
          "type": "bool"
        }
      ],
      "stateMutability": "view",
      "type": "function",
      "constant": true
    },
    {
      "inputs": [],
      "name": "name",
      "outputs": [
        {
          "internalType": "string",
          "name": "",
          "type": "string"
        }
      ],
      "stateMutability": "view",
      "type": "function",
      "constant": true
    },
    {
      "inputs": [],
      "name": "owner",
      "outputs": [
        {
          "internalType": "address",
          "name": "",
          "type": "address"
        }
      ],
      "stateMutability": "view",
      "type": "function",
      "constant": true
    },
    {
      "inputs": [
        {
          "internalType": "uint256",
          "name": "tokenId",
          "type": "uint256"
        }
      ],
      "name": "ownerOf",
      "outputs": [
        {
          "internalType": "address",
          "name": "",
          "type": "address"
        }
      ],
      "stateMutability": "view",
      "type": "function",
      "constant": true
    },
    {
      "inputs": [],
      "name": "renounceOwnership",
      "outputs": [],
      "stateMutability": "nonpayable",
      "type": "function"
    },
    {
      "inputs": [
        {
          "internalType": "address",
          "name": "from",
          "type": "address"
        },
        {
          "internalType": "address",
          "name": "to",
          "type": "address"
        },
        {
          "internalType": "uint256",
          "name": "tokenId",
          "type": "uint256"
        }
      ],
      "name": "safeTransferFrom",
      "outputs": [],
      "stateMutability": "nonpayable",
      "type": "function"
    },
    {
      "inputs": [
        {
          "internalType": "address",
          "name": "from",
          "type": "address"
        },
        {
          "internalType": "address",
          "name": "to",
          "type": "address"
        },
        {
          "internalType": "uint256",
          "name": "tokenId",
          "type": "uint256"
        },
        {
          "internalType": "bytes",
          "name": "_data",
          "type": "bytes"
        }
      ],
      "name": "safeTransferFrom",
      "outputs": [],
      "stateMutability": "nonpayable",
      "type": "function"
    },
    {
      "inputs": [
        {
          "internalType": "address",
          "name": "operator",
          "type": "address"
        },
        {
          "internalType": "bool",
          "name": "approved",
          "type": "bool"
        }
      ],
      "name": "setApprovalForAll",
      "outputs": [],
      "stateMutability": "nonpayable",
      "type": "function"
    },
    {
      "inputs": [
        {
          "internalType": "bytes4",
          "name": "interfaceId",
          "type": "bytes4"
        }
      ],
      "name": "supportsInterface",
      "outputs": [
        {
          "internalType": "bool",
          "name": "",
          "type": "bool"
        }
      ],
      "stateMutability": "view",
      "type": "function",
      "constant": true
    },
    {
      "inputs": [],
      "name": "symbol",
      "outputs": [
        {
          "internalType": "string",
          "name": "",
          "type": "string"
        }
      ],
      "stateMutability": "view",
      "type": "function",
      "constant": true
    },
    {
      "inputs": [
        {
          "internalType": "uint256",
          "name": "tokenId",
          "type": "uint256"
        }
      ],
      "name": "tokenURI",
      "outputs": [
        {
          "internalType": "string",
          "name": "",
          "type": "string"
        }
      ],
      "stateMutability": "view",
      "type": "function",
      "constant": true
    },
    {
      "inputs": [
        {
          "internalType": "address",
          "name": "from",
          "type": "address"
        },
        {
          "internalType": "address",
          "name": "to",
          "type": "address"
        },
        {
          "internalType": "uint256",
          "name": "tokenId",
          "type": "uint256"
        }
      ],
      "name": "transferFrom",
      "outputs": [],
      "stateMutability": "nonpayable",
      "type": "function"
    },
    {
      "inputs": [
        {
          "internalType": "address payable",
          "name": "newOwner",
          "type": "address"
        }
      ],
      "name": "transferOwnership",
      "outputs": [],
      "stateMutability": "nonpayable",
      "type": "function"
    },
    {
      "inputs": [
        {
          "internalType": "address",
          "name": "_to",
          "type": "address"
        },
        {
          "internalType": "uint256",
          "name": "_tokenId",
          "type": "uint256"
        },
        {
          "internalType": "string",
          "name": "_IPFSHASH",
          "type": "string"
        }
      ],
      "name": "mint",
      "outputs": [],
      "stateMutability": "nonpayable",
      "type": "function"
    },
    {
      "inputs": [
        {
          "internalType": "address",
          "name": "target",
          "type": "address"
        },
        {
          "internalType": "bool",
          "name": "freeze",
          "type": "bool"
        }
      ],
      "name": "freezeAccount",
      "outputs": [],
      "stateMutability": "nonpayable",
      "type": "function"
    }
  ],
  "bytecode": "0x60806040523480156200001157600080fd5b506040516200322f3803806200322f833981810160405281019062000037919062000250565b81818160009080519060200190620000519291906200012e565b5080600190805190602001906200006a9291906200012e565b50505060006200007f6200012660201b60201c565b905080600860006101000a81548173ffffffffffffffffffffffffffffffffffffffff021916908373ffffffffffffffffffffffffffffffffffffffff1602179055508073ffffffffffffffffffffffffffffffffffffffff16600073ffffffffffffffffffffffffffffffffffffffff167f8be0079c531659141344cd1fd0a4f28419497f9722a3daafe3b4186f6b6457e060405160405180910390a3505050620003f4565b600033905090565b8280546200013c9062000360565b90600052602060002090601f016020900481019282620001605760008555620001ac565b82601f106200017b57805160ff1916838001178555620001ac565b82800160010185558215620001ac579182015b82811115620001ab5782518255916020019190600101906200018e565b5b509050620001bb9190620001bf565b5090565b5b80821115620001da576000816000905550600101620001c0565b5090565b6000620001f5620001ef84620002f7565b620002c3565b9050828152602081018484840111156200020e57600080fd5b6200021b8482856200032a565b509392505050565b600082601f8301126200023557600080fd5b815162000247848260208601620001de565b91505092915050565b600080604083850312156200026457600080fd5b600083015167ffffffffffffffff8111156200027f57600080fd5b6200028d8582860162000223565b925050602083015167ffffffffffffffff811115620002ab57600080fd5b620002b98582860162000223565b9150509250929050565b6000604051905081810181811067ffffffffffffffff82111715620002ed57620002ec620003c5565b5b8060405250919050565b600067ffffffffffffffff821115620003155762000314620003c5565b5b601f19601f8301169050602081019050919050565b60005b838110156200034a5780820151818401526020810190506200032d565b838111156200035a576000848401525b50505050565b600060028204905060018216806200037957607f821691505b6020821081141562000390576200038f62000396565b5b50919050565b7f4e487b7100000000000000000000000000000000000000000000000000000000600052602260045260246000fd5b7f4e487b7100000000000000000000000000000000000000000000000000000000600052604160045260246000fd5b612e2b80620004046000396000f3fe608060405234801561001057600080fd5b50600436106101215760003560e01c80638da5cb5b116100ad578063c87b56dd11610071578063c87b56dd14610306578063d3fc986414610336578063e724529c14610352578063e985e9c51461036e578063f2fde38b1461039e57610121565b80638da5cb5b1461026257806395d89b4114610280578063a22cb4651461029e578063b414d4b6146102ba578063b88d4fde146102ea57610121565b806323b872dd116100f457806323b872dd146101c057806342842e0e146101dc5780636352211e146101f857806370a0823114610228578063715018a61461025857610121565b806301ffc9a71461012657806306fdde0314610156578063081812fc14610174578063095ea7b3146101a4575b600080fd5b610140600480360381019061013b919061200d565b6103ba565b60405161014d91906127ff565b60405180910390f35b61015e61049c565b60405161016b919061281a565b60405180910390f35b61018e6004803603810190610189919061205f565b61052e565b60405161019b919061276f565b60405180910390f35b6101be60048036038101906101b99190611f6a565b6105b3565b005b6101da60048036038101906101d59190611e64565b6106cb565b005b6101f660048036038101906101f19190611e64565b61072b565b005b610212600480360381019061020d919061205f565b61074b565b60405161021f919061276f565b60405180910390f35b610242600480360381019061023d9190611dd6565b6107fd565b60405161024f9190612a7c565b60405180910390f35b6102606108b5565b005b61026a610a0d565b604051610277919061276f565b60405180910390f35b610288610a37565b604051610295919061281a565b60405180910390f35b6102b860048036038101906102b39190611f2e565b610ac9565b005b6102d460048036038101906102cf9190611dd6565b610c4a565b6040516102e191906127ff565b60405180910390f35b61030460048036038101906102ff9190611eb3565b610c6a565b005b610320600480360381019061031b919061205f565b610ccc565b60405161032d919061281a565b60405180910390f35b610350600480360381019061034b9190611fa6565b610dbf565b005b61036c60048036038101906103679190611f2e565b610e6f565b005b61038860048036038101906103839190611e28565b610f9a565b60405161039591906127ff565b60405180910390f35b6103b860048036038101906103b39190611dff565b61102e565b005b60007f80ac58cd000000000000000000000000000000000000000000000000000000007bffffffffffffffffffffffffffffffffffffffffffffffffffffffff1916827bffffffffffffffffffffffffffffffffffffffffffffffffffffffff1916148061048557507f5b5e139f000000000000000000000000000000000000000000000000000000007bffffffffffffffffffffffffffffffffffffffffffffffffffffffff1916827bffffffffffffffffffffffffffffffffffffffffffffffffffffffff1916145b806104955750610494826111f5565b5b9050919050565b6060600080546104ab90612cb2565b80601f01602080910402602001604051908101604052809291908181526020018280546104d790612cb2565b80156105245780601f106104f957610100808354040283529160200191610524565b820191906000526020600020905b81548152906001019060200180831161050757829003601f168201915b5050505050905090565b60006105398261125f565b610578576040517f08c379a000000000000000000000000000000000000000000000000000000000815260040161056f906129bc565b60405180910390fd5b6004600083815260200190815260200160002060009054906101000a900473ffffffffffffffffffffffffffffffffffffffff169050919050565b60006105be8261074b565b90508073ffffffffffffffffffffffffffffffffffffffff168373ffffffffffffffffffffffffffffffffffffffff16141561062f576040517f08c379a000000000000000000000000000000000000000000000000000000000815260040161062690612a3c565b60405180910390fd5b8073ffffffffffffffffffffffffffffffffffffffff1661064e6112cb565b73ffffffffffffffffffffffffffffffffffffffff16148061067d575061067c816106776112cb565b610f9a565b5b6106bc576040517f08c379a00000000000000000000000000000000000000000000000000000000081526004016106b39061291c565b60405180910390fd5b6106c683836112d3565b505050565b6106dc6106d66112cb565b8261138c565b61071b576040517f08c379a000000000000000000000000000000000000000000000000000000000815260040161071290612a5c565b60405180910390fd5b61072683838361146a565b505050565b61074683838360405180602001604052806000815250610c6a565b505050565b6000806002600084815260200190815260200160002060009054906101000a900473ffffffffffffffffffffffffffffffffffffffff169050600073ffffffffffffffffffffffffffffffffffffffff168173ffffffffffffffffffffffffffffffffffffffff1614156107f4576040517f08c379a00000000000000000000000000000000000000000000000000000000081526004016107eb9061295c565b60405180910390fd5b80915050919050565b60008073ffffffffffffffffffffffffffffffffffffffff168273ffffffffffffffffffffffffffffffffffffffff16141561086e576040517f08c379a00000000000000000000000000000000000000000000000000000000081526004016108659061293c565b60405180910390fd5b600360008373ffffffffffffffffffffffffffffffffffffffff1673ffffffffffffffffffffffffffffffffffffffff168152602001908152602001600020549050919050565b6108bd6112cb565b73ffffffffffffffffffffffffffffffffffffffff16600860009054906101000a900473ffffffffffffffffffffffffffffffffffffffff1673ffffffffffffffffffffffffffffffffffffffff161461094c576040517f08c379a0000000000000000000000000000000000000000000000000000000008152600401610943906129dc565b60405180910390fd5b600073ffffffffffffffffffffffffffffffffffffffff16600860009054906101000a900473ffffffffffffffffffffffffffffffffffffffff1673ffffffffffffffffffffffffffffffffffffffff167f8be0079c531659141344cd1fd0a4f28419497f9722a3daafe3b4186f6b6457e060405160405180910390a36000600860006101000a81548173ffffffffffffffffffffffffffffffffffffffff021916908373ffffffffffffffffffffffffffffffffffffffff160217905550565b6000600860009054906101000a900473ffffffffffffffffffffffffffffffffffffffff16905090565b606060018054610a4690612cb2565b80601f0160208091040260200160405190810160405280929190818152602001828054610a7290612cb2565b8015610abf5780601f10610a9457610100808354040283529160200191610abf565b820191906000526020600020905b815481529060010190602001808311610aa257829003601f168201915b5050505050905090565b610ad16112cb565b73ffffffffffffffffffffffffffffffffffffffff168273ffffffffffffffffffffffffffffffffffffffff161415610b3f576040517f08c379a0000000000000000000000000000000000000000000000000000000008152600401610b36906128bc565b60405180910390fd5b8060056000610b4c6112cb565b73ffffffffffffffffffffffffffffffffffffffff1673ffffffffffffffffffffffffffffffffffffffff16815260200190815260200160002060008473ffffffffffffffffffffffffffffffffffffffff1673ffffffffffffffffffffffffffffffffffffffff16815260200190815260200160002060006101000a81548160ff0219169083151502179055508173ffffffffffffffffffffffffffffffffffffffff16610bf96112cb565b73ffffffffffffffffffffffffffffffffffffffff167f17307eab39ab6107e8899845ad3d59bd9653f200f220920489ca2b5937696c3183604051610c3e91906127ff565b60405180910390a35050565b60076020528060005260406000206000915054906101000a900460ff1681565b610c7b610c756112cb565b8361138c565b610cba576040517f08c379a0000000000000000000000000000000000000000000000000000000008152600401610cb190612a5c565b60405180910390fd5b610cc6848484846117e0565b50505050565b6060610cd78261125f565b610d16576040517f08c379a0000000000000000000000000000000000000000000000000000000008152600401610d0d90612a1c565b60405180910390fd5b6000600660008481526020019081526020016000208054610d3690612cb2565b80601f0160208091040260200160405190810160405280929190818152602001828054610d6290612cb2565b8015610daf5780601f10610d8457610100808354040283529160200191610daf565b820191906000526020600020905b815481529060010190602001808311610d9257829003601f168201915b5050505050905080915050919050565b610dc76112cb565b73ffffffffffffffffffffffffffffffffffffffff16600860009054906101000a900473ffffffffffffffffffffffffffffffffffffffff1673ffffffffffffffffffffffffffffffffffffffff1614610e56576040517f08c379a0000000000000000000000000000000000000000000000000000000008152600401610e4d906129dc565b60405180910390fd5b610e60838361183c565b610e6a8282611a0a565b505050565b610e776112cb565b73ffffffffffffffffffffffffffffffffffffffff16600860009054906101000a900473ffffffffffffffffffffffffffffffffffffffff1673ffffffffffffffffffffffffffffffffffffffff1614610f06576040517f08c379a0000000000000000000000000000000000000000000000000000000008152600401610efd906129dc565b60405180910390fd5b80600760008473ffffffffffffffffffffffffffffffffffffffff1673ffffffffffffffffffffffffffffffffffffffff16815260200190815260200160002060006101000a81548160ff0219169083151502179055507f48335238b4855f35377ed80f164e8c6f3c366e54ac00b96a6402d4a9814a03a58282604051610f8e9291906127d6565b60405180910390a15050565b6000600560008473ffffffffffffffffffffffffffffffffffffffff1673ffffffffffffffffffffffffffffffffffffffff16815260200190815260200160002060008373ffffffffffffffffffffffffffffffffffffffff1673ffffffffffffffffffffffffffffffffffffffff16815260200190815260200160002060009054906101000a900460ff16905092915050565b6110366112cb565b73ffffffffffffffffffffffffffffffffffffffff16600860009054906101000a900473ffffffffffffffffffffffffffffffffffffffff1673ffffffffffffffffffffffffffffffffffffffff16146110c5576040517f08c379a00000000000000000000000000000000000000000000000000000000081526004016110bc906129dc565b60405180910390fd5b600073ffffffffffffffffffffffffffffffffffffffff168173ffffffffffffffffffffffffffffffffffffffff161415611135576040517f08c379a000000000000000000000000000000000000000000000000000000000815260040161112c9061285c565b60405180910390fd5b8073ffffffffffffffffffffffffffffffffffffffff16600860009054906101000a900473ffffffffffffffffffffffffffffffffffffffff1673ffffffffffffffffffffffffffffffffffffffff167f8be0079c531659141344cd1fd0a4f28419497f9722a3daafe3b4186f6b6457e060405160405180910390a380600860006101000a81548173ffffffffffffffffffffffffffffffffffffffff021916908373ffffffffffffffffffffffffffffffffffffffff16021790555050565b60007f01ffc9a7000000000000000000000000000000000000000000000000000000007bffffffffffffffffffffffffffffffffffffffffffffffffffffffff1916827bffffffffffffffffffffffffffffffffffffffffffffffffffffffff1916149050919050565b60008073ffffffffffffffffffffffffffffffffffffffff166002600084815260200190815260200160002060009054906101000a900473ffffffffffffffffffffffffffffffffffffffff1673ffffffffffffffffffffffffffffffffffffffff1614159050919050565b600033905090565b816004600083815260200190815260200160002060006101000a81548173ffffffffffffffffffffffffffffffffffffffff021916908373ffffffffffffffffffffffffffffffffffffffff160217905550808273ffffffffffffffffffffffffffffffffffffffff166113468361074b565b73ffffffffffffffffffffffffffffffffffffffff167f8c5be1e5ebec7d5bd14f71427d1e84f3dd0314c0f7b2291e5b200ac8c7c3b92560405160405180910390a45050565b60006113978261125f565b6113d6576040517f08c379a00000000000000000000000000000000000000000000000000000000081526004016113cd906128dc565b60405180910390fd5b60006113e18361074b565b90508073ffffffffffffffffffffffffffffffffffffffff168473ffffffffffffffffffffffffffffffffffffffff16148061145057508373ffffffffffffffffffffffffffffffffffffffff166114388461052e565b73ffffffffffffffffffffffffffffffffffffffff16145b8061146157506114608185610f9a565b5b91505092915050565b8273ffffffffffffffffffffffffffffffffffffffff1661148a8261074b565b73ffffffffffffffffffffffffffffffffffffffff16146114e0576040517f08c379a00000000000000000000000000000000000000000000000000000000081526004016114d7906129fc565b60405180910390fd5b600073ffffffffffffffffffffffffffffffffffffffff168273ffffffffffffffffffffffffffffffffffffffff161415611550576040517f08c379a00000000000000000000000000000000000000000000000000000000081526004016115479061289c565b60405180910390fd5b600760008473ffffffffffffffffffffffffffffffffffffffff1673ffffffffffffffffffffffffffffffffffffffff16815260200190815260200160002060009054906101000a900460ff16156115dd576040517f08c379a00000000000000000000000000000000000000000000000000000000081526004016115d4906128fc565b60405180910390fd5b600760008373ffffffffffffffffffffffffffffffffffffffff1673ffffffffffffffffffffffffffffffffffffffff16815260200190815260200160002060009054906101000a900460ff161561166a576040517f08c379a00000000000000000000000000000000000000000000000000000000081526004016116619061297c565b60405180910390fd5b611675838383611a36565b6116806000826112d3565b6001600360008573ffffffffffffffffffffffffffffffffffffffff1673ffffffffffffffffffffffffffffffffffffffff16815260200190815260200160002060008282546116d09190612bb6565b925050819055506001600360008473ffffffffffffffffffffffffffffffffffffffff1673ffffffffffffffffffffffffffffffffffffffff16815260200190815260200160002060008282546117279190612b60565b92505081905550816002600083815260200190815260200160002060006101000a81548173ffffffffffffffffffffffffffffffffffffffff021916908373ffffffffffffffffffffffffffffffffffffffff160217905550808273ffffffffffffffffffffffffffffffffffffffff168473ffffffffffffffffffffffffffffffffffffffff167fddf252ad1be2c89b69c2b068fc378daa952ba7f163c4a11628f55a4df523b3ef60405160405180910390a4505050565b6117eb84848461146a565b6117f784848484611a3b565b611836576040517f08c379a000000000000000000000000000000000000000000000000000000000815260040161182d9061283c565b60405180910390fd5b50505050565b600073ffffffffffffffffffffffffffffffffffffffff168273ffffffffffffffffffffffffffffffffffffffff1614156118ac576040517f08c379a00000000000000000000000000000000000000000000000000000000081526004016118a39061299c565b60405180910390fd5b6118b58161125f565b156118f5576040517f08c379a00000000000000000000000000000000000000000000000000000000081526004016118ec9061287c565b60405180910390fd5b61190160008383611a36565b6001600360008473ffffffffffffffffffffffffffffffffffffffff1673ffffffffffffffffffffffffffffffffffffffff16815260200190815260200160002060008282546119519190612b60565b92505081905550816002600083815260200190815260200160002060006101000a81548173ffffffffffffffffffffffffffffffffffffffff021916908373ffffffffffffffffffffffffffffffffffffffff160217905550808273ffffffffffffffffffffffffffffffffffffffff16600073ffffffffffffffffffffffffffffffffffffffff167fddf252ad1be2c89b69c2b068fc378daa952ba7f163c4a11628f55a4df523b3ef60405160405180910390a45050565b80600660008481526020019081526020016000209080519060200190611a31929190611be5565b505050565b505050565b6000611a5c8473ffffffffffffffffffffffffffffffffffffffff16611bd2565b15611bc5578373ffffffffffffffffffffffffffffffffffffffff1663150b7a02611a856112cb565b8786866040518563ffffffff1660e01b8152600401611aa7949392919061278a565b602060405180830381600087803b158015611ac157600080fd5b505af1925050508015611af257506040513d601f19601f82011682018060405250810190611aef9190612036565b60015b611b75573d8060008114611b22576040519150601f19603f3d011682016040523d82523d6000602084013e611b27565b606091505b50600081511415611b6d576040517f08c379a0000000000000000000000000000000000000000000000000000000008152600401611b649061283c565b60405180910390fd5b805181602001fd5b63150b7a0260e01b7bffffffffffffffffffffffffffffffffffffffffffffffffffffffff1916817bffffffffffffffffffffffffffffffffffffffffffffffffffffffff191614915050611bca565b600190505b949350505050565b600080823b905060008111915050919050565b828054611bf190612cb2565b90600052602060002090601f016020900481019282611c135760008555611c5a565b82601f10611c2c57805160ff1916838001178555611c5a565b82800160010185558215611c5a579182015b82811115611c59578251825591602001919060010190611c3e565b5b509050611c679190611c6b565b5090565b5b80821115611c84576000816000905550600101611c6c565b5090565b6000611c9b611c9684612ac8565b612a97565b905082815260208101848484011115611cb357600080fd5b611cbe848285612c70565b509392505050565b6000611cd9611cd484612af8565b612a97565b905082815260208101848484011115611cf157600080fd5b611cfc848285612c70565b509392505050565b600081359050611d1381612d82565b92915050565b600081359050611d2881612d99565b92915050565b600081359050611d3d81612db0565b92915050565b600081359050611d5281612dc7565b92915050565b600081519050611d6781612dc7565b92915050565b600082601f830112611d7e57600080fd5b8135611d8e848260208601611c88565b91505092915050565b600082601f830112611da857600080fd5b8135611db8848260208601611cc6565b91505092915050565b600081359050611dd081612dde565b92915050565b600060208284031215611de857600080fd5b6000611df684828501611d04565b91505092915050565b600060208284031215611e1157600080fd5b6000611e1f84828501611d19565b91505092915050565b60008060408385031215611e3b57600080fd5b6000611e4985828601611d04565b9250506020611e5a85828601611d04565b9150509250929050565b600080600060608486031215611e7957600080fd5b6000611e8786828701611d04565b9350506020611e9886828701611d04565b9250506040611ea986828701611dc1565b9150509250925092565b60008060008060808587031215611ec957600080fd5b6000611ed787828801611d04565b9450506020611ee887828801611d04565b9350506040611ef987828801611dc1565b925050606085013567ffffffffffffffff811115611f1657600080fd5b611f2287828801611d6d565b91505092959194509250565b60008060408385031215611f4157600080fd5b6000611f4f85828601611d04565b9250506020611f6085828601611d2e565b9150509250929050565b60008060408385031215611f7d57600080fd5b6000611f8b85828601611d04565b9250506020611f9c85828601611dc1565b9150509250929050565b600080600060608486031215611fbb57600080fd5b6000611fc986828701611d04565b9350506020611fda86828701611dc1565b925050604084013567ffffffffffffffff811115611ff757600080fd5b61200386828701611d97565b9150509250925092565b60006020828403121561201f57600080fd5b600061202d84828501611d43565b91505092915050565b60006020828403121561204857600080fd5b600061205684828501611d58565b91505092915050565b60006020828403121561207157600080fd5b600061207f84828501611dc1565b91505092915050565b61209181612bea565b82525050565b6120a081612c0e565b82525050565b60006120b182612b28565b6120bb8185612b3e565b93506120cb818560208601612c7f565b6120d481612d71565b840191505092915050565b60006120ea82612b33565b6120f48185612b4f565b9350612104818560208601612c7f565b61210d81612d71565b840191505092915050565b6000612125603283612b4f565b91507f4552433732313a207472616e7366657220746f206e6f6e20455243373231526560008301527f63656976657220696d706c656d656e74657200000000000000000000000000006020830152604082019050919050565b600061218b602683612b4f565b91507f4f776e61626c653a206e6577206f776e657220697320746865207a65726f206160008301527f64647265737300000000000000000000000000000000000000000000000000006020830152604082019050919050565b60006121f1601c83612b4f565b91507f4552433732313a20746f6b656e20616c7265616479206d696e746564000000006000830152602082019050919050565b6000612231602483612b4f565b91507f4552433732313a207472616e7366657220746f20746865207a65726f2061646460008301527f72657373000000000000000000000000000000000000000000000000000000006020830152604082019050919050565b6000612297601983612b4f565b91507f4552433732313a20617070726f766520746f2063616c6c6572000000000000006000830152602082019050919050565b60006122d7602c83612b4f565b91507f4552433732313a206f70657261746f7220717565727920666f72206e6f6e657860008301527f697374656e7420746f6b656e00000000000000000000000000000000000000006020830152604082019050919050565b600061233d601c83612b4f565b91507f45524332303a2066726f6d2069732066726f7a656e4163636f756e74000000006000830152602082019050919050565b600061237d603883612b4f565b91507f4552433732313a20617070726f76652063616c6c6572206973206e6f74206f7760008301527f6e6572206e6f7220617070726f76656420666f7220616c6c00000000000000006020830152604082019050919050565b60006123e3602a83612b4f565b91507f4552433732313a2062616c616e636520717565727920666f7220746865207a6560008301527f726f2061646472657373000000000000000000000000000000000000000000006020830152604082019050919050565b6000612449602983612b4f565b91507f4552433732313a206f776e657220717565727920666f72206e6f6e657869737460008301527f656e7420746f6b656e00000000000000000000000000000000000000000000006020830152604082019050919050565b60006124af601a83612b4f565b91507f45524332303a20746f2069732066726f7a656e4163636f756e740000000000006000830152602082019050919050565b60006124ef602083612b4f565b91507f4552433732313a206d696e7420746f20746865207a65726f20616464726573736000830152602082019050919050565b600061252f602c83612b4f565b91507f4552433732313a20617070726f76656420717565727920666f72206e6f6e657860008301527f697374656e7420746f6b656e00000000000000000000000000000000000000006020830152604082019050919050565b6000612595602083612b4f565b91507f4f776e61626c653a2063616c6c6572206973206e6f7420746865206f776e65726000830152602082019050919050565b60006125d5602983612b4f565b91507f4552433732313a207472616e73666572206f6620746f6b656e2074686174206960008301527f73206e6f74206f776e00000000000000000000000000000000000000000000006020830152604082019050919050565b600061263b602f83612b4f565b91507f4552433732314d657461646174613a2055524920717565727920666f72206e6f60008301527f6e6578697374656e7420746f6b656e00000000000000000000000000000000006020830152604082019050919050565b60006126a1602183612b4f565b91507f4552433732313a20617070726f76616c20746f2063757272656e74206f776e6560008301527f72000000000000000000000000000000000000000000000000000000000000006020830152604082019050919050565b6000612707603183612b4f565b91507f4552433732313a207472616e736665722063616c6c6572206973206e6f74206f60008301527f776e6572206e6f7220617070726f7665640000000000000000000000000000006020830152604082019050919050565b61276981612c66565b82525050565b60006020820190506127846000830184612088565b92915050565b600060808201905061279f6000830187612088565b6127ac6020830186612088565b6127b96040830185612760565b81810360608301526127cb81846120a6565b905095945050505050565b60006040820190506127eb6000830185612088565b6127f86020830184612097565b9392505050565b60006020820190506128146000830184612097565b92915050565b6000602082019050818103600083015261283481846120df565b905092915050565b6000602082019050818103600083015261285581612118565b9050919050565b600060208201905081810360008301526128758161217e565b9050919050565b60006020820190508181036000830152612895816121e4565b9050919050565b600060208201905081810360008301526128b581612224565b9050919050565b600060208201905081810360008301526128d58161228a565b9050919050565b600060208201905081810360008301526128f5816122ca565b9050919050565b6000602082019050818103600083015261291581612330565b9050919050565b6000602082019050818103600083015261293581612370565b9050919050565b60006020820190508181036000830152612955816123d6565b9050919050565b600060208201905081810360008301526129758161243c565b9050919050565b60006020820190508181036000830152612995816124a2565b9050919050565b600060208201905081810360008301526129b5816124e2565b9050919050565b600060208201905081810360008301526129d581612522565b9050919050565b600060208201905081810360008301526129f581612588565b9050919050565b60006020820190508181036000830152612a15816125c8565b9050919050565b60006020820190508181036000830152612a358161262e565b9050919050565b60006020820190508181036000830152612a5581612694565b9050919050565b60006020820190508181036000830152612a75816126fa565b9050919050565b6000602082019050612a916000830184612760565b92915050565b6000604051905081810181811067ffffffffffffffff82111715612abe57612abd612d42565b5b8060405250919050565b600067ffffffffffffffff821115612ae357612ae2612d42565b5b601f19601f8301169050602081019050919050565b600067ffffffffffffffff821115612b1357612b12612d42565b5b601f19601f8301169050602081019050919050565b600081519050919050565b600081519050919050565b600082825260208201905092915050565b600082825260208201905092915050565b6000612b6b82612c66565b9150612b7683612c66565b9250827fffffffffffffffffffffffffffffffffffffffffffffffffffffffffffffffff03821115612bab57612baa612ce4565b5b828201905092915050565b6000612bc182612c66565b9150612bcc83612c66565b925082821015612bdf57612bde612ce4565b5b828203905092915050565b6000612bf582612c46565b9050919050565b6000612c0782612c46565b9050919050565b60008115159050919050565b60007fffffffff0000000000000000000000000000000000000000000000000000000082169050919050565b600073ffffffffffffffffffffffffffffffffffffffff82169050919050565b6000819050919050565b82818337600083830152505050565b60005b83811015612c9d578082015181840152602081019050612c82565b83811115612cac576000848401525b50505050565b60006002820490506001821680612cca57607f821691505b60208210811415612cde57612cdd612d13565b5b50919050565b7f4e487b7100000000000000000000000000000000000000000000000000000000600052601160045260246000fd5b7f4e487b7100000000000000000000000000000000000000000000000000000000600052602260045260246000fd5b7f4e487b7100000000000000000000000000000000000000000000000000000000600052604160045260246000fd5b6000601f19601f8301169050919050565b612d8b81612bea565b8114612d9657600080fd5b50565b612da281612bfc565b8114612dad57600080fd5b50565b612db981612c0e565b8114612dc457600080fd5b50565b612dd081612c1a565b8114612ddb57600080fd5b50565b612de781612c66565b8114612df257600080fd5b5056fea2646970667358221220cf18da6cc69b7eb9903b5903d37bb2af2a5d3c3c30ab079c4b353bebe4164dc664736f6c63430008000033",
  "immutableReferences": {},
  "source": "// SPDX-License-Identifier: MIT\n\npragma solidity ^0.8.0;\n\n\nimport \"./access/Ownable.sol\";\nimport \"./token/ERC165.sol\";\nimport \"./token/ERC721.sol\";\nimport \"./token/IERC721Metadata.sol\";\nimport \"./token/IERC721Receiver.sol\";\nimport \"./token/IERC165.sol\";\nimport \"./token/IERC721.sol\";\nimport \"./address/Address.sol\";\nimport \"./strings/Strings.sol\";\n\n\n\ncontract ANV_NFT is ERC721, Ownable {\n\n    /* This generates a public event on the blockchain that will notify clients */\n    event FrozenFunds(address target, bool frozen);\n\n    constructor (string memory name , string memory symbol)\n    ERC721(name, symbol)\n    {\n\n    }\n\n    /**\n    * create NFT token\n    */\n    function mint(\n        address _to,\n        uint256 _tokenId,\n        string memory  _IPFSHASH\n    ) public virtual onlyOwner\n    {\n        super._mint(_to, _tokenId);\n        super._setIPFSHASH(_tokenId, _IPFSHASH);\n    }\n\n    /// @notice `freeze? Prevent | Allow` `target` from sending & receiving tokens\n    /// @param target Address to be frozen\n    /// @param freeze either to freeze it or not\n    function freezeAccount(address target, bool freeze)  public onlyOwner {\n        frozenAccount[target] = freeze;\n        emit FrozenFunds(target, freeze);\n    }\n\n    \n}",
  "sourcePath": "/Users/string/truffle/kanv-gorvanance/contracts/ANV_NFT_ERC721.sol",
  "compiler": {
    "name": "solc",
    "version": "0.8.0+commit.c7dfd78e.Emscripten.clang"
  },
  "schemaVersion": "3.4.7",
  "updatedAt": "2022-05-25T09:20:31.593Z",
  "networkType": "ethereum",
  "devdoc": {
    "kind": "dev",
    "methods": {
      "approve(address,uint256)": {
        "details": "See {IERC721-approve}."
      },
      "balanceOf(address)": {
        "details": "See {IERC721-balanceOf}."
      },
      "freezeAccount(address,bool)": {
        "params": {
          "freeze": "either to freeze it or not",
          "target": "Address to be frozen"
        }
      },
      "getApproved(uint256)": {
        "details": "See {IERC721-getApproved}."
      },
      "isApprovedForAll(address,address)": {
        "details": "See {IERC721-isApprovedForAll}."
      },
      "name()": {
        "details": "See {IERC721Metadata-name}."
      },
      "owner()": {
        "details": "Returns the address of the current owner."
      },
      "ownerOf(uint256)": {
        "details": "See {IERC721-ownerOf}."
      },
      "renounceOwnership()": {
        "details": "Leaves the contract without owner. It will not be possible to call `onlyOwner` functions anymore. Can only be called by the current owner. NOTE: Renouncing ownership will leave the contract without an owner, thereby removing any functionality that is only available to the owner."
      },
      "safeTransferFrom(address,address,uint256)": {
        "details": "See {IERC721-safeTransferFrom}."
      },
      "safeTransferFrom(address,address,uint256,bytes)": {
        "details": "See {IERC721-safeTransferFrom}."
      },
      "setApprovalForAll(address,bool)": {
        "details": "See {IERC721-setApprovalForAll}."
      },
      "supportsInterface(bytes4)": {
        "details": "See {IERC165-supportsInterface}."
      },
      "symbol()": {
        "details": "See {IERC721Metadata-symbol}."
      },
      "tokenURI(uint256)": {
        "details": "See {IERC721Metadata-tokenURI}."
      },
      "transferFrom(address,address,uint256)": {
        "details": "See {IERC721-transferFrom}."
      },
      "transferOwnership(address)": {
        "details": "Transfers ownership of the contract to a new account (`newOwner`). Can only be called by the current owner."
      }
    },
    "version": 1
  },
  "userdoc": {
    "kind": "user",
    "methods": {
      "freezeAccount(address,bool)": {
        "notice": "`freeze? Prevent | Allow` `target` from sending & receiving tokens"
      },
      "mint(address,uint256,string)": {
        "notice": "create NFT token"
      }
    },
    "version": 1
  }
}