{
  "contractName": "ANVToken",
  "abi": [
    {
      "inputs": [],
      "stateMutability": "nonpayable",
      "type": "constructor"
    },
    {
      "anonymous": false,
      "inputs": [
        {
          "indexed": true,
          "internalType": "address",
          "name": "owner",
          "type": "address"
        },
        {
          "indexed": true,
          "internalType": "address",
          "name": "spender",
          "type": "address"
        },
        {
          "indexed": false,
          "internalType": "uint256",
          "name": "value",
          "type": "uint256"
        }
      ],
      "name": "Approval",
      "type": "event"
    },
    {
      "anonymous": false,
      "inputs": [
        {
          "indexed": true,
          "internalType": "address",
          "name": "from",
          "type": "address"
        },
        {
          "indexed": true,
          "internalType": "address",
          "name": "to",
          "type": "address"
        },
        {
          "indexed": true,
          "internalType": "address",
          "name": "delegate",
          "type": "address"
        },
        {
          "indexed": false,
          "internalType": "uint256",
          "name": "amount",
          "type": "uint256"
        },
        {
          "indexed": false,
          "internalType": "uint256",
          "name": "fee",
          "type": "uint256"
        }
      ],
      "name": "ApprovalPreSigned",
      "type": "event"
    },
    {
      "anonymous": false,
      "inputs": [
        {
          "indexed": false,
          "internalType": "address",
          "name": "target",
          "type": "address"
        },
        {
          "indexed": false,
          "internalType": "bool",
          "name": "frozen",
          "type": "bool"
        }
      ],
      "name": "FrozenFunds",
      "type": "event"
    },
    {
      "anonymous": false,
      "inputs": [
        {
          "indexed": true,
          "internalType": "address",
          "name": "previousOwner",
          "type": "address"
        },
        {
          "indexed": true,
          "internalType": "address",
          "name": "newOwner",
          "type": "address"
        }
      ],
      "name": "OwnershipTransferred",
      "type": "event"
    },
    {
      "anonymous": false,
      "inputs": [
        {
          "indexed": true,
          "internalType": "address",
          "name": "from",
          "type": "address"
        },
        {
          "indexed": true,
          "internalType": "address",
          "name": "to",
          "type": "address"
        },
        {
          "indexed": false,
          "internalType": "uint256",
          "name": "value",
          "type": "uint256"
        },
        {
          "indexed": false,
          "internalType": "bytes",
          "name": "data",
          "type": "bytes"
        }
      ],
      "name": "Transfer",
      "type": "event"
    },
    {
      "anonymous": false,
      "inputs": [
        {
          "indexed": true,
          "internalType": "address",
          "name": "from",
          "type": "address"
        },
        {
          "indexed": true,
          "internalType": "address",
          "name": "to",
          "type": "address"
        },
        {
          "indexed": false,
          "internalType": "uint256",
          "name": "value",
          "type": "uint256"
        }
      ],
      "name": "Transfer",
      "type": "event"
    },
    {
      "anonymous": false,
      "inputs": [
        {
          "indexed": true,
          "internalType": "address",
          "name": "from",
          "type": "address"
        },
        {
          "indexed": true,
          "internalType": "address",
          "name": "to",
          "type": "address"
        },
        {
          "indexed": true,
          "internalType": "address",
          "name": "delegate",
          "type": "address"
        },
        {
          "indexed": false,
          "internalType": "uint256",
          "name": "amount",
          "type": "uint256"
        },
        {
          "indexed": false,
          "internalType": "uint256",
          "name": "fee",
          "type": "uint256"
        }
      ],
      "name": "TransferPreSigned",
      "type": "event"
    },
    {
      "anonymous": false,
      "inputs": [
        {
          "indexed": false,
          "internalType": "address",
          "name": "sender",
          "type": "address"
        },
        {
          "indexed": false,
          "internalType": "uint256",
          "name": "amount",
          "type": "uint256"
        }
      ],
      "name": "ValueReceived",
      "type": "event"
    },
    {
      "stateMutability": "payable",
      "type": "fallback",
      "payable": true
    },
    {
      "inputs": [
        {
          "internalType": "address",
          "name": "",
          "type": "address"
        },
        {
          "internalType": "address",
          "name": "",
          "type": "address"
        }
      ],
      "name": "_allowances",
      "outputs": [
        {
          "internalType": "uint256",
          "name": "",
          "type": "uint256"
        }
      ],
      "stateMutability": "view",
      "type": "function",
      "constant": true
    },
    {
      "inputs": [
        {
          "internalType": "address",
          "name": "",
          "type": "address"
        }
      ],
      "name": "_balances",
      "outputs": [
        {
          "internalType": "uint256",
          "name": "",
          "type": "uint256"
        }
      ],
      "stateMutability": "view",
      "type": "function",
      "constant": true
    },
    {
      "inputs": [
        {
          "internalType": "address",
          "name": "owner",
          "type": "address"
        },
        {
          "internalType": "address",
          "name": "spender",
          "type": "address"
        }
      ],
      "name": "allowance",
      "outputs": [
        {
          "internalType": "uint256",
          "name": "",
          "type": "uint256"
        }
      ],
      "stateMutability": "view",
      "type": "function",
      "constant": true
    },
    {
      "inputs": [
        {
          "internalType": "address",
          "name": "spender",
          "type": "address"
        },
        {
          "internalType": "uint256",
          "name": "amount",
          "type": "uint256"
        }
      ],
      "name": "approve",
      "outputs": [
        {
          "internalType": "bool",
          "name": "",
          "type": "bool"
        }
      ],
      "stateMutability": "nonpayable",
      "type": "function"
    },
    {
      "inputs": [
        {
          "internalType": "address",
          "name": "account",
          "type": "address"
        }
      ],
      "name": "balanceOf",
      "outputs": [
        {
          "internalType": "uint256",
          "name": "",
          "type": "uint256"
        }
      ],
      "stateMutability": "view",
      "type": "function",
      "constant": true
    },
    {
      "inputs": [
        {
          "internalType": "uint256",
          "name": "amount",
          "type": "uint256"
        }
      ],
      "name": "burn",
      "outputs": [],
      "stateMutability": "nonpayable",
      "type": "function"
    },
    {
      "inputs": [
        {
          "internalType": "address",
          "name": "account",
          "type": "address"
        },
        {
          "internalType": "uint256",
          "name": "amount",
          "type": "uint256"
        }
      ],
      "name": "burnFrom",
      "outputs": [],
      "stateMutability": "nonpayable",
      "type": "function"
    },
    {
      "inputs": [],
      "name": "decimals",
      "outputs": [
        {
          "internalType": "uint8",
          "name": "",
          "type": "uint8"
        }
      ],
      "stateMutability": "view",
      "type": "function",
      "constant": true
    },
    {
      "inputs": [
        {
          "internalType": "address",
          "name": "spender",
          "type": "address"
        },
        {
          "internalType": "uint256",
          "name": "subtractedValue",
          "type": "uint256"
        }
      ],
      "name": "decreaseAllowance",
      "outputs": [
        {
          "internalType": "bool",
          "name": "",
          "type": "bool"
        }
      ],
      "stateMutability": "nonpayable",
      "type": "function"
    },
    {
      "inputs": [
        {
          "internalType": "address",
          "name": "target",
          "type": "address"
        },
        {
          "internalType": "bool",
          "name": "freeze",
          "type": "bool"
        }
      ],
      "name": "freezeAccount",
      "outputs": [],
      "stateMutability": "nonpayable",
      "type": "function"
    },
    {
      "inputs": [
        {
          "internalType": "address",
          "name": "",
          "type": "address"
        }
      ],
      "name": "frozenAccount",
      "outputs": [
        {
          "internalType": "bool",
          "name": "",
          "type": "bool"
        }
      ],
      "stateMutability": "view",
      "type": "function",
      "constant": true
    },
    {
      "inputs": [
        {
          "internalType": "address",
          "name": "spender",
          "type": "address"
        },
        {
          "internalType": "uint256",
          "name": "addedValue",
          "type": "uint256"
        }
      ],
      "name": "increaseAllowance",
      "outputs": [
        {
          "internalType": "bool",
          "name": "",
          "type": "bool"
        }
      ],
      "stateMutability": "nonpayable",
      "type": "function"
    },
    {
      "inputs": [
        {
          "internalType": "address",
          "name": "target",
          "type": "address"
        },
        {
          "internalType": "uint256",
          "name": "mintedAmount",
          "type": "uint256"
        }
      ],
      "name": "mintToken",
      "outputs": [],
      "stateMutability": "nonpayable",
      "type": "function"
    },
    {
      "inputs": [],
      "name": "name",
      "outputs": [
        {
          "internalType": "string",
          "name": "",
          "type": "string"
        }
      ],
      "stateMutability": "view",
      "type": "function",
      "constant": true
    },
    {
      "inputs": [],
      "name": "owner",
      "outputs": [
        {
          "internalType": "address",
          "name": "",
          "type": "address"
        }
      ],
      "stateMutability": "view",
      "type": "function",
      "constant": true
    },
    {
      "inputs": [],
      "name": "renounceOwnership",
      "outputs": [],
      "stateMutability": "nonpayable",
      "type": "function"
    },
    {
      "inputs": [],
      "name": "symbol",
      "outputs": [
        {
          "internalType": "string",
          "name": "",
          "type": "string"
        }
      ],
      "stateMutability": "view",
      "type": "function",
      "constant": true
    },
    {
      "inputs": [],
      "name": "totalSupply",
      "outputs": [
        {
          "internalType": "uint256",
          "name": "",
          "type": "uint256"
        }
      ],
      "stateMutability": "view",
      "type": "function",
      "constant": true
    },
    {
      "inputs": [
        {
          "internalType": "bytes32",
          "name": "",
          "type": "bytes32"
        }
      ],
      "name": "transactionHashes",
      "outputs": [
        {
          "internalType": "bool",
          "name": "",
          "type": "bool"
        }
      ],
      "stateMutability": "view",
      "type": "function",
      "constant": true
    },
    {
      "inputs": [
        {
          "internalType": "address",
          "name": "recipient",
          "type": "address"
        },
        {
          "internalType": "uint256",
          "name": "amount",
          "type": "uint256"
        }
      ],
      "name": "transfer",
      "outputs": [
        {
          "internalType": "bool",
          "name": "",
          "type": "bool"
        }
      ],
      "stateMutability": "nonpayable",
      "type": "function"
    },
    {
      "inputs": [
        {
          "internalType": "address",
          "name": "sender",
          "type": "address"
        },
        {
          "internalType": "address",
          "name": "recipient",
          "type": "address"
        },
        {
          "internalType": "uint256",
          "name": "amount",
          "type": "uint256"
        }
      ],
      "name": "transferFrom",
      "outputs": [
        {
          "internalType": "bool",
          "name": "",
          "type": "bool"
        }
      ],
      "stateMutability": "nonpayable",
      "type": "function"
    },
    {
      "inputs": [
        {
          "internalType": "address payable",
          "name": "newOwner",
          "type": "address"
        }
      ],
      "name": "transferOwnership",
      "outputs": [],
      "stateMutability": "nonpayable",
      "type": "function"
    },
    {
      "inputs": [
        {
          "internalType": "uint256",
          "name": "withdrawAmount",
          "type": "uint256"
        }
      ],
      "name": "withdraw",
      "outputs": [],
      "stateMutability": "nonpayable",
      "type": "function"
    },
    {
      "inputs": [
        {
          "internalType": "uint256",
          "name": "tokenAmount",
          "type": "uint256"
        }
      ],
      "name": "withdrawToken",
      "outputs": [],
      "stateMutability": "nonpayable",
      "type": "function"
    },
    {
      "stateMutability": "payable",
      "type": "receive",
      "payable": true
    },
    {
      "inputs": [
        {
          "internalType": "address",
          "name": "_from",
          "type": "address"
        },
        {
          "internalType": "address",
          "name": "_to",
          "type": "address"
        },
        {
          "internalType": "uint256",
          "name": "_value",
          "type": "uint256"
        },
        {
          "internalType": "uint256",
          "name": "_fee",
          "type": "uint256"
        },
        {
          "internalType": "uint256",
          "name": "_nonce",
          "type": "uint256"
        },
        {
          "internalType": "uint8",
          "name": "v",
          "type": "uint8"
        },
        {
          "internalType": "bytes32",
          "name": "r",
          "type": "bytes32"
        },
        {
          "internalType": "bytes32",
          "name": "s",
          "type": "bytes32"
        }
      ],
      "name": "transferPreSigned",
      "outputs": [
        {
          "internalType": "bool",
          "name": "",
          "type": "bool"
        }
      ],
      "stateMutability": "nonpayable",
      "type": "function"
    },
    {
      "inputs": [
        {
          "internalType": "address",
          "name": "_spender",
          "type": "address"
        },
        {
          "internalType": "uint256",
          "name": "_value",
          "type": "uint256"
        },
        {
          "internalType": "uint256",
          "name": "_fee",
          "type": "uint256"
        },
        {
          "internalType": "uint256",
          "name": "_nonce",
          "type": "uint256"
        },
        {
          "internalType": "uint8",
          "name": "v",
          "type": "uint8"
        },
        {
          "internalType": "bytes32",
          "name": "r",
          "type": "bytes32"
        },
        {
          "internalType": "bytes32",
          "name": "s",
          "type": "bytes32"
        }
      ],
      "name": "approvePreSigned",
      "outputs": [
        {
          "internalType": "bool",
          "name": "",
          "type": "bool"
        }
      ],
      "stateMutability": "nonpayable",
      "type": "function"
    },
    {
      "inputs": [
        {
          "internalType": "address",
          "name": "_spender",
          "type": "address"
        },
        {
          "internalType": "uint256",
          "name": "_addedValue",
          "type": "uint256"
        },
        {
          "internalType": "uint256",
          "name": "_fee",
          "type": "uint256"
        },
        {
          "internalType": "uint256",
          "name": "_nonce",
          "type": "uint256"
        },
        {
          "internalType": "uint8",
          "name": "v",
          "type": "uint8"
        },
        {
          "internalType": "bytes32",
          "name": "r",
          "type": "bytes32"
        },
        {
          "internalType": "bytes32",
          "name": "s",
          "type": "bytes32"
        }
      ],
      "name": "increaseApprovalPreSigned",
      "outputs": [
        {
          "internalType": "bool",
          "name": "",
          "type": "bool"
        }
      ],
      "stateMutability": "nonpayable",
      "type": "function"
    },
    {
      "inputs": [
        {
          "internalType": "address",
          "name": "_spender",
          "type": "address"
        },
        {
          "internalType": "uint256",
          "name": "_subtractedValue",
          "type": "uint256"
        },
        {
          "internalType": "uint256",
          "name": "_fee",
          "type": "uint256"
        },
        {
          "internalType": "uint256",
          "name": "_nonce",
          "type": "uint256"
        },
        {
          "internalType": "uint8",
          "name": "v",
          "type": "uint8"
        },
        {
          "internalType": "bytes32",
          "name": "r",
          "type": "bytes32"
        },
        {
          "internalType": "bytes32",
          "name": "s",
          "type": "bytes32"
        }
      ],
      "name": "decreaseApprovalPreSigned",
      "outputs": [
        {
          "internalType": "bool",
          "name": "",
          "type": "bool"
        }
      ],
      "stateMutability": "nonpayable",
      "type": "function"
    },
    {
      "inputs": [
        {
          "internalType": "address",
          "name": "_from",
          "type": "address"
        },
        {
          "internalType": "address",
          "name": "_to",
          "type": "address"
        },
        {
          "internalType": "uint256",
          "name": "_value",
          "type": "uint256"
        },
        {
          "internalType": "uint256",
          "name": "_fee",
          "type": "uint256"
        },
        {
          "internalType": "uint256",
          "name": "_nonce",
          "type": "uint256"
        },
        {
          "internalType": "uint8",
          "name": "v",
          "type": "uint8"
        },
        {
          "internalType": "bytes32",
          "name": "r",
          "type": "bytes32"
        },
        {
          "internalType": "bytes32",
          "name": "s",
          "type": "bytes32"
        }
      ],
      "name": "transferFromPreSigned",
      "outputs": [
        {
          "internalType": "bool",
          "name": "",
          "type": "bool"
        }
      ],
      "stateMutability": "nonpayable",
      "type": "function"
    },
    {
      "inputs": [
        {
          "internalType": "address",
          "name": "_to",
          "type": "address"
        },
        {
          "internalType": "uint256",
          "name": "_value",
          "type": "uint256"
        },
        {
          "internalType": "bytes",
          "name": "_data",
          "type": "bytes"
        }
      ],
      "name": "transferAndCall",
      "outputs": [
        {
          "internalType": "bool",
          "name": "success",
          "type": "bool"
        }
      ],
      "stateMutability": "nonpayable",
      "type": "function"
    }
  ],
  "bytecode": "0x60806040523480156200001157600080fd5b506040518060400160405280600981526020017f414e5620546f6b656e00000000000000000000000000000000000000000000008152506040518060400160405280600381526020017f414e5600000000000000000000000000000000000000000000000000000000008152506000620000906200018460201b60201c565b9050806000806101000a81548173ffffffffffffffffffffffffffffffffffffffff021916908373ffffffffffffffffffffffffffffffffffffffff1602179055508073ffffffffffffffffffffffffffffffffffffffff16600073ffffffffffffffffffffffffffffffffffffffff167f8be0079c531659141344cd1fd0a4f28419497f9722a3daafe3b4186f6b6457e060405160405180910390a3508160059080519060200190620001469291906200018c565b5080600690805190602001906200015f9291906200018c565b506012600760006101000a81548160ff021916908360ff1602179055505050620002a1565b600033905090565b8280546200019a906200023c565b90600052602060002090601f016020900481019282620001be57600085556200020a565b82601f10620001d957805160ff19168380011785556200020a565b828001600101855582156200020a579182015b8281111562000209578251825591602001919060010190620001ec565b5b5090506200021991906200021d565b5090565b5b80821115620002385760008160009055506001016200021e565b5090565b600060028204905060018216806200025557607f821691505b602082108114156200026c576200026b62000272565b5b50919050565b7f4e487b7100000000000000000000000000000000000000000000000000000000600052602260045260246000fd5b61578480620002b16000396000f3fe6080604052600436106101d15760003560e01c806370a08231116100f7578063a9059cbb11610095578063e724529c11610064578063e724529c14610761578063e8f956661461078a578063ec57a816146107c7578063f2fde38b14610804576101d8565b8063a9059cbb1461066d578063b414d4b6146106aa578063b929840a146106e7578063dd62ed3e14610724576101d8565b806379cc6790116100d157806379cc6790146105b15780638da5cb5b146105da57806395d89b4114610605578063a457c2d714610630576101d8565b806370a0823114610534578063715018a61461057157806379c6506814610588576101d8565b806323b872dd1161016f5780634000aea01161013e5780634000aea01461046857806342966c68146104a557806350baa622146104ce5780636ebcf607146104f7576101d8565b806323b872dd1461039a5780632e1a7d4d146103d7578063313ce56714610400578063395093511461042b576101d8565b806309fb61f5116101ab57806309fb61f5146102b8578063161a198b146102f557806318160ddd146103325780631cbee4c51461035d576101d8565b8063024c2ddd1461021357806306fdde0314610250578063095ea7b31461027b576101d8565b366101d857005b7f7e71433ddf847725166244795048ecf3e3f9f35628254ecbf7360566642334933334604051610209929190615001565b60405180910390a1005b34801561021f57600080fd5b5061023a60048036038101906102359190614333565b61082d565b60405161024791906152aa565b60405180910390f35b34801561025c57600080fd5b50610265610852565b60405161027291906150c8565b60405180910390f35b34801561028757600080fd5b506102a2600480360381019061029d91906144ac565b6108e4565b6040516102af9190615068565b60405180910390f35b3480156102c457600080fd5b506102df60048036038101906102da9190614616565b610902565b6040516102ec9190615068565b60405180910390f35b34801561030157600080fd5b5061031c6004803603810190610317919061454f565b610922565b6040516103299190615068565b60405180910390f35b34801561033e57600080fd5b50610347610ea6565b60405161035491906152aa565b60405180910390f35b34801561036957600080fd5b50610384600480360381019061037f91906143be565b610eb0565b6040516103919190615068565b60405180910390f35b3480156103a657600080fd5b506103c160048036038101906103bc919061436f565b611571565b6040516103ce9190615068565b60405180910390f35b3480156103e357600080fd5b506103fe60048036038101906103f9919061463f565b61164a565b005b34801561040c57600080fd5b5061041561173d565b604051610422919061531e565b60405180910390f35b34801561043757600080fd5b50610452600480360381019061044d91906144ac565b611754565b60405161045f9190615068565b60405180910390f35b34801561047457600080fd5b5061048f600480360381019061048a91906144e8565b611807565b60405161049c9190615068565b60405180910390f35b3480156104b157600080fd5b506104cc60048036038101906104c7919061463f565b6118a0565b005b3480156104da57600080fd5b506104f560048036038101906104f0919061463f565b6118ad565b005b34801561050357600080fd5b5061051e600480360381019061051991906142e1565b6119a3565b60405161052b91906152aa565b60405180910390f35b34801561054057600080fd5b5061055b600480360381019061055691906142e1565b6119bb565b60405161056891906152aa565b60405180910390f35b34801561057d57600080fd5b50610586611a04565b005b34801561059457600080fd5b506105af60048036038101906105aa91906144ac565b611b57565b005b3480156105bd57600080fd5b506105d860048036038101906105d391906144ac565b611bfa565b005b3480156105e657600080fd5b506105ef611da0565b6040516105fc9190614fbd565b60405180910390f35b34801561061157600080fd5b5061061a611dc9565b60405161062791906150c8565b60405180910390f35b34801561063c57600080fd5b50610657600480360381019061065291906144ac565b611e5b565b6040516106649190615068565b60405180910390f35b34801561067957600080fd5b50610694600480360381019061068f91906144ac565b611f28565b6040516106a19190615068565b60405180910390f35b3480156106b657600080fd5b506106d160048036038101906106cc91906142e1565b611f46565b6040516106de9190615068565b60405180910390f35b3480156106f357600080fd5b5061070e6004803603810190610709919061454f565b611f66565b60405161071b9190615068565b60405180910390f35b34801561073057600080fd5b5061074b60048036038101906107469190614333565b612700565b60405161075891906152aa565b60405180910390f35b34801561076d57600080fd5b5061078860048036038101906107839190614470565b612787565b005b34801561079657600080fd5b506107b160048036038101906107ac91906143be565b6128b0565b6040516107be9190615068565b60405180910390f35b3480156107d357600080fd5b506107ee60048036038101906107e9919061454f565b612e8f565b6040516107fb9190615068565b60405180910390f35b34801561081057600080fd5b5061082b6004803603810190610826919061430a565b613599565b005b6002602052816000526040600020602052806000526040600020600091509150505481565b6060600580546108619061551a565b80601f016020809104026020016040519081016040528092919081815260200182805461088d9061551a565b80156108da5780601f106108af576101008083540402835291602001916108da565b820191906000526020600020905b8154815290600101906020018083116108bd57829003601f168201915b5050505050905090565b60006108f86108f161375b565b8484613763565b6001905092915050565b60086020528060005260406000206000915054906101000a900460ff1681565b600061092c61375b565b73ffffffffffffffffffffffffffffffffffffffff1660008054906101000a900473ffffffffffffffffffffffffffffffffffffffff1673ffffffffffffffffffffffffffffffffffffffff16146109b9576040517f08c379a00000000000000000000000000000000000000000000000000000000081526004016109b0906151ea565b60405180910390fd5b600073ffffffffffffffffffffffffffffffffffffffff168873ffffffffffffffffffffffffffffffffffffffff1614156109f357600080fd5b60003089898989604051602001610a0e959493929190614d9a565b604051602081830303815290604052805190602001209050600015156008600083815260200190815260200160002060009054906101000a900460ff16151514610a8d576040517f08c379a0000000000000000000000000000000000000000000000000000000008152600401610a849061512a565b60405180910390fd5b6000600182604051602001610aa29190614d74565b6040516020818303038152906040528051906020012087878760405160008152602001604052604051610ad89493929190615083565b6020604051602081039080840390855afa158015610afa573d6000803e3d6000fd5b505050602060405103519050600073ffffffffffffffffffffffffffffffffffffffff168173ffffffffffffffffffffffffffffffffffffffff161415610b76576040517f08c379a0000000000000000000000000000000000000000000000000000000008152600401610b6d906151ca565b60405180910390fd5b88600260008373ffffffffffffffffffffffffffffffffffffffff1673ffffffffffffffffffffffffffffffffffffffff16815260200190815260200160002060008c73ffffffffffffffffffffffffffffffffffffffff1673ffffffffffffffffffffffffffffffffffffffff16815260200190815260200160002081905550610c4988600160008473ffffffffffffffffffffffffffffffffffffffff1673ffffffffffffffffffffffffffffffffffffffff1681526020019081526020016000205461392e90919063ffffffff16565b600160008373ffffffffffffffffffffffffffffffffffffffff1673ffffffffffffffffffffffffffffffffffffffff16815260200190815260200160002081905550610cde88600160003373ffffffffffffffffffffffffffffffffffffffff1673ffffffffffffffffffffffffffffffffffffffff1681526020019081526020016000205461397890919063ffffffff16565b600160003373ffffffffffffffffffffffffffffffffffffffff1673ffffffffffffffffffffffffffffffffffffffff1681526020019081526020016000208190555060016008600084815260200190815260200160002060006101000a81548160ff0219169083151502179055508973ffffffffffffffffffffffffffffffffffffffff168173ffffffffffffffffffffffffffffffffffffffff167f8c5be1e5ebec7d5bd14f71427d1e84f3dd0314c0f7b2291e5b200ac8c7c3b9258b604051610daa91906152aa565b60405180910390a33373ffffffffffffffffffffffffffffffffffffffff168173ffffffffffffffffffffffffffffffffffffffff167fddf252ad1be2c89b69c2b068fc378daa952ba7f163c4a11628f55a4df523b3ef8a604051610e0f91906152aa565b60405180910390a33373ffffffffffffffffffffffffffffffffffffffff168a73ffffffffffffffffffffffffffffffffffffffff168273ffffffffffffffffffffffffffffffffffffffff167f43a220267705e74ee2ceafd46afc841850db6f85a662189a7def697bbdd90ffb8c8c604051610e8d9291906152f5565b60405180910390a4600192505050979650505050505050565b6000600454905090565b6000610eba61375b565b73ffffffffffffffffffffffffffffffffffffffff1660008054906101000a900473ffffffffffffffffffffffffffffffffffffffff1673ffffffffffffffffffffffffffffffffffffffff1614610f47576040517f08c379a0000000000000000000000000000000000000000000000000000000008152600401610f3e906151ea565b60405180910390fd5b600073ffffffffffffffffffffffffffffffffffffffff168873ffffffffffffffffffffffffffffffffffffffff161415610f8157600080fd5b6000308a8a8a8a8a604051602001610f9e96959493929190614ed8565b604051602081830303815290604052805190602001209050600015156008600083815260200190815260200160002060009054906101000a900460ff1615151461101d576040517f08c379a00000000000000000000000000000000000000000000000000000000081526004016110149061512a565b60405180910390fd5b60006001826040516020016110329190614d74565b60405160208183030381529060405280519060200120878787604051600081526020016040526040516110689493929190615083565b6020604051602081039080840390855afa15801561108a573d6000803e3d6000fd5b505050602060405103519050600073ffffffffffffffffffffffffffffffffffffffff168173ffffffffffffffffffffffffffffffffffffffff161415611106576040517f08c379a00000000000000000000000000000000000000000000000000000000081526004016110fd906151ca565b60405180910390fd5b61115889600160008e73ffffffffffffffffffffffffffffffffffffffff1673ffffffffffffffffffffffffffffffffffffffff1681526020019081526020016000205461392e90919063ffffffff16565b600160008d73ffffffffffffffffffffffffffffffffffffffff1673ffffffffffffffffffffffffffffffffffffffff168152602001908152602001600020819055506111ed89600160008d73ffffffffffffffffffffffffffffffffffffffff1673ffffffffffffffffffffffffffffffffffffffff1681526020019081526020016000205461397890919063ffffffff16565b600160008c73ffffffffffffffffffffffffffffffffffffffff1673ffffffffffffffffffffffffffffffffffffffff168152602001908152602001600020819055506112bf89600260008e73ffffffffffffffffffffffffffffffffffffffff1673ffffffffffffffffffffffffffffffffffffffff16815260200190815260200160002060008473ffffffffffffffffffffffffffffffffffffffff1673ffffffffffffffffffffffffffffffffffffffff1681526020019081526020016000205461392e90919063ffffffff16565b600260008d73ffffffffffffffffffffffffffffffffffffffff1673ffffffffffffffffffffffffffffffffffffffff16815260200190815260200160002060008373ffffffffffffffffffffffffffffffffffffffff1673ffffffffffffffffffffffffffffffffffffffff1681526020019081526020016000208190555061139188600160008473ffffffffffffffffffffffffffffffffffffffff1673ffffffffffffffffffffffffffffffffffffffff1681526020019081526020016000205461392e90919063ffffffff16565b600160008373ffffffffffffffffffffffffffffffffffffffff1673ffffffffffffffffffffffffffffffffffffffff1681526020019081526020016000208190555061142688600160003373ffffffffffffffffffffffffffffffffffffffff1673ffffffffffffffffffffffffffffffffffffffff1681526020019081526020016000205461397890919063ffffffff16565b600160003373ffffffffffffffffffffffffffffffffffffffff1673ffffffffffffffffffffffffffffffffffffffff1681526020019081526020016000208190555060016008600084815260200190815260200160002060006101000a81548160ff0219169083151502179055508973ffffffffffffffffffffffffffffffffffffffff168b73ffffffffffffffffffffffffffffffffffffffff167fddf252ad1be2c89b69c2b068fc378daa952ba7f163c4a11628f55a4df523b3ef8b6040516114f291906152aa565b60405180910390a33373ffffffffffffffffffffffffffffffffffffffff168173ffffffffffffffffffffffffffffffffffffffff167fddf252ad1be2c89b69c2b068fc378daa952ba7f163c4a11628f55a4df523b3ef8a60405161155791906152aa565b60405180910390a360019250505098975050505050505050565b600061157e8484846139d6565b61163f8461158a61375b565b61163a8560405180606001604052806028815260200161570260289139600260008b73ffffffffffffffffffffffffffffffffffffffff1673ffffffffffffffffffffffffffffffffffffffff16815260200190815260200160002060006115f061375b565b73ffffffffffffffffffffffffffffffffffffffff1673ffffffffffffffffffffffffffffffffffffffff16815260200190815260200160002054613d899092919063ffffffff16565b613763565b600190509392505050565b61165261375b565b73ffffffffffffffffffffffffffffffffffffffff1660008054906101000a900473ffffffffffffffffffffffffffffffffffffffff1673ffffffffffffffffffffffffffffffffffffffff16146116df576040517f08c379a00000000000000000000000000000000000000000000000000000000081526004016116d6906151ea565b60405180910390fd5b478111156116ec57600080fd5b6116f4611da0565b73ffffffffffffffffffffffffffffffffffffffff166108fc829081150290604051600060405180830381858888f19350505050158015611739573d6000803e3d6000fd5b5050565b6000600760009054906101000a900460ff16905090565b60006117fd61176161375b565b846117f8856002600061177261375b565b73ffffffffffffffffffffffffffffffffffffffff1673ffffffffffffffffffffffffffffffffffffffff16815260200190815260200160002060008973ffffffffffffffffffffffffffffffffffffffff1673ffffffffffffffffffffffffffffffffffffffff1681526020019081526020016000205461397890919063ffffffff16565b613763565b6001905092915050565b60006118138484611f28565b508373ffffffffffffffffffffffffffffffffffffffff163373ffffffffffffffffffffffffffffffffffffffff167fe19260aff97b920c7df27010903aeb9c8d2be5d310a2c67824cf3f15396e4c1685856040516118739291906152c5565b60405180910390a361188484613ded565b1561189557611894848484613e00565b5b600190509392505050565b6118aa3382613e9b565b50565b6118b561375b565b73ffffffffffffffffffffffffffffffffffffffff1660008054906101000a900473ffffffffffffffffffffffffffffffffffffffff1673ffffffffffffffffffffffffffffffffffffffff1614611942576040517f08c379a0000000000000000000000000000000000000000000000000000000008152600401611939906151ea565b60405180910390fd5b600160003073ffffffffffffffffffffffffffffffffffffffff1673ffffffffffffffffffffffffffffffffffffffff1681526020019081526020016000205481111561198e57600080fd5b6119a03061199a611da0565b836139d6565b50565b60016020528060005260406000206000915090505481565b6000600160008373ffffffffffffffffffffffffffffffffffffffff1673ffffffffffffffffffffffffffffffffffffffff168152602001908152602001600020549050919050565b611a0c61375b565b73ffffffffffffffffffffffffffffffffffffffff1660008054906101000a900473ffffffffffffffffffffffffffffffffffffffff1673ffffffffffffffffffffffffffffffffffffffff1614611a99576040517f08c379a0000000000000000000000000000000000000000000000000000000008152600401611a90906151ea565b60405180910390fd5b600073ffffffffffffffffffffffffffffffffffffffff1660008054906101000a900473ffffffffffffffffffffffffffffffffffffffff1673ffffffffffffffffffffffffffffffffffffffff167f8be0079c531659141344cd1fd0a4f28419497f9722a3daafe3b4186f6b6457e060405160405180910390a360008060006101000a81548173ffffffffffffffffffffffffffffffffffffffff021916908373ffffffffffffffffffffffffffffffffffffffff160217905550565b611b5f61375b565b73ffffffffffffffffffffffffffffffffffffffff1660008054906101000a900473ffffffffffffffffffffffffffffffffffffffff1673ffffffffffffffffffffffffffffffffffffffff1614611bec576040517f08c379a0000000000000000000000000000000000000000000000000000000008152600401611be3906151ea565b60405180910390fd5b611bf6828261404b565b5050565b600260008373ffffffffffffffffffffffffffffffffffffffff1673ffffffffffffffffffffffffffffffffffffffff16815260200190815260200160002060003373ffffffffffffffffffffffffffffffffffffffff1673ffffffffffffffffffffffffffffffffffffffff16815260200190815260200160002054811115611c8357600080fd5b611d1281600260008573ffffffffffffffffffffffffffffffffffffffff1673ffffffffffffffffffffffffffffffffffffffff16815260200190815260200160002060003373ffffffffffffffffffffffffffffffffffffffff1673ffffffffffffffffffffffffffffffffffffffff1681526020019081526020016000205461392e90919063ffffffff16565b600260008473ffffffffffffffffffffffffffffffffffffffff1673ffffffffffffffffffffffffffffffffffffffff16815260200190815260200160002060003373ffffffffffffffffffffffffffffffffffffffff1673ffffffffffffffffffffffffffffffffffffffff16815260200190815260200160002081905550611d9c8282613e9b565b5050565b60008060009054906101000a900473ffffffffffffffffffffffffffffffffffffffff16905090565b606060068054611dd89061551a565b80601f0160208091040260200160405190810160405280929190818152602001828054611e049061551a565b8015611e515780601f10611e2657610100808354040283529160200191611e51565b820191906000526020600020905b815481529060010190602001808311611e3457829003601f168201915b5050505050905090565b6000611f1e611e6861375b565b84611f198560405180606001604052806025815260200161572a6025913960026000611e9261375b565b73ffffffffffffffffffffffffffffffffffffffff1673ffffffffffffffffffffffffffffffffffffffff16815260200190815260200160002060008a73ffffffffffffffffffffffffffffffffffffffff1673ffffffffffffffffffffffffffffffffffffffff16815260200190815260200160002054613d899092919063ffffffff16565b613763565b6001905092915050565b6000611f3c611f3561375b565b84846139d6565b6001905092915050565b60036020528060005260406000206000915054906101000a900460ff1681565b6000611f7061375b565b73ffffffffffffffffffffffffffffffffffffffff1660008054906101000a900473ffffffffffffffffffffffffffffffffffffffff1673ffffffffffffffffffffffffffffffffffffffff1614611ffd576040517f08c379a0000000000000000000000000000000000000000000000000000000008152600401611ff4906151ea565b60405180910390fd5b600073ffffffffffffffffffffffffffffffffffffffff168873ffffffffffffffffffffffffffffffffffffffff16141561203757600080fd5b60003089898989604051602001612052959493929190614f53565b604051602081830303815290604052805190602001209050600015156008600083815260200190815260200160002060009054906101000a900460ff161515146120d1576040517f08c379a00000000000000000000000000000000000000000000000000000000081526004016120c89061512a565b60405180910390fd5b60006001826040516020016120e69190614d74565b604051602081830303815290604052805190602001208787876040516000815260200160405260405161211c9493929190615083565b6020604051602081039080840390855afa15801561213e573d6000803e3d6000fd5b505050602060405103519050600073ffffffffffffffffffffffffffffffffffffffff168173ffffffffffffffffffffffffffffffffffffffff1614156121ba576040517f08c379a00000000000000000000000000000000000000000000000000000000081526004016121b1906151ca565b60405180910390fd5b600260008273ffffffffffffffffffffffffffffffffffffffff1673ffffffffffffffffffffffffffffffffffffffff16815260200190815260200160002060008b73ffffffffffffffffffffffffffffffffffffffff1673ffffffffffffffffffffffffffffffffffffffff168152602001908152602001600020548911156122c5576000600260008373ffffffffffffffffffffffffffffffffffffffff1673ffffffffffffffffffffffffffffffffffffffff16815260200190815260200160002060008c73ffffffffffffffffffffffffffffffffffffffff1673ffffffffffffffffffffffffffffffffffffffff168152602001908152602001600020819055506123d5565b61235489600260008473ffffffffffffffffffffffffffffffffffffffff1673ffffffffffffffffffffffffffffffffffffffff16815260200190815260200160002060008d73ffffffffffffffffffffffffffffffffffffffff1673ffffffffffffffffffffffffffffffffffffffff1681526020019081526020016000205461392e90919063ffffffff16565b600260008373ffffffffffffffffffffffffffffffffffffffff1673ffffffffffffffffffffffffffffffffffffffff16815260200190815260200160002060008c73ffffffffffffffffffffffffffffffffffffffff1673ffffffffffffffffffffffffffffffffffffffff168152602001908152602001600020819055505b61242788600160008473ffffffffffffffffffffffffffffffffffffffff1673ffffffffffffffffffffffffffffffffffffffff1681526020019081526020016000205461392e90919063ffffffff16565b600160008373ffffffffffffffffffffffffffffffffffffffff1673ffffffffffffffffffffffffffffffffffffffff168152602001908152602001600020819055506124bc88600160003373ffffffffffffffffffffffffffffffffffffffff1673ffffffffffffffffffffffffffffffffffffffff1681526020019081526020016000205461397890919063ffffffff16565b600160003373ffffffffffffffffffffffffffffffffffffffff1673ffffffffffffffffffffffffffffffffffffffff1681526020019081526020016000208190555060016008600084815260200190815260200160002060006101000a81548160ff0219169083151502179055508973ffffffffffffffffffffffffffffffffffffffff168173ffffffffffffffffffffffffffffffffffffffff167f8c5be1e5ebec7d5bd14f71427d1e84f3dd0314c0f7b2291e5b200ac8c7c3b9258b60405161258891906152aa565b60405180910390a33373ffffffffffffffffffffffffffffffffffffffff168173ffffffffffffffffffffffffffffffffffffffff167fddf252ad1be2c89b69c2b068fc378daa952ba7f163c4a11628f55a4df523b3ef8a6040516125ed91906152aa565b60405180910390a33373ffffffffffffffffffffffffffffffffffffffff168a73ffffffffffffffffffffffffffffffffffffffff168273ffffffffffffffffffffffffffffffffffffffff167f43a220267705e74ee2ceafd46afc841850db6f85a662189a7def697bbdd90ffb600260008673ffffffffffffffffffffffffffffffffffffffff1673ffffffffffffffffffffffffffffffffffffffff16815260200190815260200160002060008f73ffffffffffffffffffffffffffffffffffffffff1673ffffffffffffffffffffffffffffffffffffffff168152602001908152602001600020548c6040516126e79291906152f5565b60405180910390a4600192505050979650505050505050565b6000600260008473ffffffffffffffffffffffffffffffffffffffff1673ffffffffffffffffffffffffffffffffffffffff16815260200190815260200160002060008373ffffffffffffffffffffffffffffffffffffffff1673ffffffffffffffffffffffffffffffffffffffff16815260200190815260200160002054905092915050565b61278f61375b565b73ffffffffffffffffffffffffffffffffffffffff1660008054906101000a900473ffffffffffffffffffffffffffffffffffffffff1673ffffffffffffffffffffffffffffffffffffffff161461281c576040517f08c379a0000000000000000000000000000000000000000000000000000000008152600401612813906151ea565b60405180910390fd5b80600360008473ffffffffffffffffffffffffffffffffffffffff1673ffffffffffffffffffffffffffffffffffffffff16815260200190815260200160002060006101000a81548160ff0219169083151502179055507f48335238b4855f35377ed80f164e8c6f3c366e54ac00b96a6402d4a9814a03a582826040516128a4929190614fd8565b60405180910390a15050565b60006128ba61375b565b73ffffffffffffffffffffffffffffffffffffffff1660008054906101000a900473ffffffffffffffffffffffffffffffffffffffff1673ffffffffffffffffffffffffffffffffffffffff1614612947576040517f08c379a000000000000000000000000000000000000000000000000000000000815260040161293e906151ea565b60405180910390fd5b600073ffffffffffffffffffffffffffffffffffffffff168873ffffffffffffffffffffffffffffffffffffffff1614156129b7576040517f08c379a00000000000000000000000000000000000000000000000000000000081526004016129ae9061520a565b60405180910390fd5b600030898989896040516020016129d2959493929190614e6e565b604051602081830303815290604052805190602001209050600015156008600083815260200190815260200160002060009054906101000a900460ff16151514612a51576040517f08c379a0000000000000000000000000000000000000000000000000000000008152600401612a489061512a565b60405180910390fd5b6000600182604051602001612a669190614d74565b6040516020818303038152906040528051906020012087878760405160008152602001604052604051612a9c9493929190615083565b6020604051602081039080840390855afa158015612abe573d6000803e3d6000fd5b5050506020604051035190508a73ffffffffffffffffffffffffffffffffffffffff168173ffffffffffffffffffffffffffffffffffffffff1614612b38576040517f08c379a0000000000000000000000000000000000000000000000000000000008152600401612b2f906151ca565b60405180910390fd5b612b9c88612b8e8b600160008673ffffffffffffffffffffffffffffffffffffffff1673ffffffffffffffffffffffffffffffffffffffff1681526020019081526020016000205461392e90919063ffffffff16565b61392e90919063ffffffff16565b600160008373ffffffffffffffffffffffffffffffffffffffff1673ffffffffffffffffffffffffffffffffffffffff16815260200190815260200160002081905550612c3189600160008d73ffffffffffffffffffffffffffffffffffffffff1673ffffffffffffffffffffffffffffffffffffffff1681526020019081526020016000205461397890919063ffffffff16565b600160008c73ffffffffffffffffffffffffffffffffffffffff1673ffffffffffffffffffffffffffffffffffffffff16815260200190815260200160002081905550612cc688600160003373ffffffffffffffffffffffffffffffffffffffff1673ffffffffffffffffffffffffffffffffffffffff1681526020019081526020016000205461397890919063ffffffff16565b600160003373ffffffffffffffffffffffffffffffffffffffff1673ffffffffffffffffffffffffffffffffffffffff1681526020019081526020016000208190555060016008600084815260200190815260200160002060006101000a81548160ff0219169083151502179055508973ffffffffffffffffffffffffffffffffffffffff168173ffffffffffffffffffffffffffffffffffffffff167fddf252ad1be2c89b69c2b068fc378daa952ba7f163c4a11628f55a4df523b3ef8b604051612d9291906152aa565b60405180910390a33373ffffffffffffffffffffffffffffffffffffffff168173ffffffffffffffffffffffffffffffffffffffff167fddf252ad1be2c89b69c2b068fc378daa952ba7f163c4a11628f55a4df523b3ef8a604051612df791906152aa565b60405180910390a33373ffffffffffffffffffffffffffffffffffffffff168a73ffffffffffffffffffffffffffffffffffffffff168273ffffffffffffffffffffffffffffffffffffffff167fec5a73fd1f178be20c1bca1b406cbf4b5c20d833b66e582fc122fb4baa0fc2a48c8c604051612e759291906152f5565b60405180910390a460019250505098975050505050505050565b6000612e9961375b565b73ffffffffffffffffffffffffffffffffffffffff1660008054906101000a900473ffffffffffffffffffffffffffffffffffffffff1673ffffffffffffffffffffffffffffffffffffffff1614612f26576040517f08c379a0000000000000000000000000000000000000000000000000000000008152600401612f1d906151ea565b60405180910390fd5b600073ffffffffffffffffffffffffffffffffffffffff168873ffffffffffffffffffffffffffffffffffffffff161415612f6057600080fd5b60003089898989604051602001612f7b959493929190614e04565b604051602081830303815290604052805190602001209050600015156008600083815260200190815260200160002060009054906101000a900460ff16151514612ffa576040517f08c379a0000000000000000000000000000000000000000000000000000000008152600401612ff19061512a565b60405180910390fd5b600060018260405160200161300f9190614d74565b60405160208183030381529060405280519060200120878787604051600081526020016040526040516130459493929190615083565b6020604051602081039080840390855afa158015613067573d6000803e3d6000fd5b505050602060405103519050600073ffffffffffffffffffffffffffffffffffffffff168173ffffffffffffffffffffffffffffffffffffffff1614156130e3576040517f08c379a00000000000000000000000000000000000000000000000000000000081526004016130da906151ca565b60405180910390fd5b61317289600260008473ffffffffffffffffffffffffffffffffffffffff1673ffffffffffffffffffffffffffffffffffffffff16815260200190815260200160002060008d73ffffffffffffffffffffffffffffffffffffffff1673ffffffffffffffffffffffffffffffffffffffff1681526020019081526020016000205461397890919063ffffffff16565b600260008373ffffffffffffffffffffffffffffffffffffffff1673ffffffffffffffffffffffffffffffffffffffff16815260200190815260200160002060008c73ffffffffffffffffffffffffffffffffffffffff1673ffffffffffffffffffffffffffffffffffffffff1681526020019081526020016000208190555061324488600160008473ffffffffffffffffffffffffffffffffffffffff1673ffffffffffffffffffffffffffffffffffffffff1681526020019081526020016000205461392e90919063ffffffff16565b600160008373ffffffffffffffffffffffffffffffffffffffff1673ffffffffffffffffffffffffffffffffffffffff168152602001908152602001600020819055506132d988600160003373ffffffffffffffffffffffffffffffffffffffff1673ffffffffffffffffffffffffffffffffffffffff1681526020019081526020016000205461397890919063ffffffff16565b600160003373ffffffffffffffffffffffffffffffffffffffff1673ffffffffffffffffffffffffffffffffffffffff1681526020019081526020016000208190555060016008600084815260200190815260200160002060006101000a81548160ff0219169083151502179055508973ffffffffffffffffffffffffffffffffffffffff168173ffffffffffffffffffffffffffffffffffffffff167f8c5be1e5ebec7d5bd14f71427d1e84f3dd0314c0f7b2291e5b200ac8c7c3b925600260008573ffffffffffffffffffffffffffffffffffffffff1673ffffffffffffffffffffffffffffffffffffffff16815260200190815260200160002060008e73ffffffffffffffffffffffffffffffffffffffff1673ffffffffffffffffffffffffffffffffffffffff1681526020019081526020016000205460405161342191906152aa565b60405180910390a33373ffffffffffffffffffffffffffffffffffffffff168173ffffffffffffffffffffffffffffffffffffffff167fddf252ad1be2c89b69c2b068fc378daa952ba7f163c4a11628f55a4df523b3ef8a60405161348691906152aa565b60405180910390a33373ffffffffffffffffffffffffffffffffffffffff168a73ffffffffffffffffffffffffffffffffffffffff168273ffffffffffffffffffffffffffffffffffffffff167f43a220267705e74ee2ceafd46afc841850db6f85a662189a7def697bbdd90ffb600260008673ffffffffffffffffffffffffffffffffffffffff1673ffffffffffffffffffffffffffffffffffffffff16815260200190815260200160002060008f73ffffffffffffffffffffffffffffffffffffffff1673ffffffffffffffffffffffffffffffffffffffff168152602001908152602001600020548c6040516135809291906152f5565b60405180910390a4600192505050979650505050505050565b6135a161375b565b73ffffffffffffffffffffffffffffffffffffffff1660008054906101000a900473ffffffffffffffffffffffffffffffffffffffff1673ffffffffffffffffffffffffffffffffffffffff161461362e576040517f08c379a0000000000000000000000000000000000000000000000000000000008152600401613625906151ea565b60405180910390fd5b600073ffffffffffffffffffffffffffffffffffffffff168173ffffffffffffffffffffffffffffffffffffffff16141561369e576040517f08c379a00000000000000000000000000000000000000000000000000000000081526004016136959061514a565b60405180910390fd5b8073ffffffffffffffffffffffffffffffffffffffff1660008054906101000a900473ffffffffffffffffffffffffffffffffffffffff1673ffffffffffffffffffffffffffffffffffffffff167f8be0079c531659141344cd1fd0a4f28419497f9722a3daafe3b4186f6b6457e060405160405180910390a3806000806101000a81548173ffffffffffffffffffffffffffffffffffffffff021916908373ffffffffffffffffffffffffffffffffffffffff16021790555050565b600033905090565b600073ffffffffffffffffffffffffffffffffffffffff168373ffffffffffffffffffffffffffffffffffffffff1614156137d3576040517f08c379a00000000000000000000000000000000000000000000000000000000081526004016137ca9061526a565b60405180910390fd5b600073ffffffffffffffffffffffffffffffffffffffff168273ffffffffffffffffffffffffffffffffffffffff161415613843576040517f08c379a000000000000000000000000000000000000000000000000000000000815260040161383a9061516a565b60405180910390fd5b80600260008573ffffffffffffffffffffffffffffffffffffffff1673ffffffffffffffffffffffffffffffffffffffff16815260200190815260200160002060008473ffffffffffffffffffffffffffffffffffffffff1673ffffffffffffffffffffffffffffffffffffffff168152602001908152602001600020819055508173ffffffffffffffffffffffffffffffffffffffff168373ffffffffffffffffffffffffffffffffffffffff167f8c5be1e5ebec7d5bd14f71427d1e84f3dd0314c0f7b2291e5b200ac8c7c3b9258360405161392191906152aa565b60405180910390a3505050565b600061397083836040518060400160405280601e81526020017f536166654d6174683a207375627472616374696f6e206f766572666c6f770000815250613d89565b905092915050565b600080828461398791906153dd565b9050838110156139cc576040517f08c379a00000000000000000000000000000000000000000000000000000000081526004016139c39061518a565b60405180910390fd5b8091505092915050565b600073ffffffffffffffffffffffffffffffffffffffff168373ffffffffffffffffffffffffffffffffffffffff161415613a46576040517f08c379a0000000000000000000000000000000000000000000000000000000008152600401613a3d9061524a565b60405180910390fd5b600073ffffffffffffffffffffffffffffffffffffffff168273ffffffffffffffffffffffffffffffffffffffff161415613ab6576040517f08c379a0000000000000000000000000000000000000000000000000000000008152600401613aad906150ea565b60405180910390fd5b600360008473ffffffffffffffffffffffffffffffffffffffff1673ffffffffffffffffffffffffffffffffffffffff16815260200190815260200160002060009054906101000a900460ff1615613b43576040517f08c379a0000000000000000000000000000000000000000000000000000000008152600401613b3a9061510a565b60405180910390fd5b600360008373ffffffffffffffffffffffffffffffffffffffff1673ffffffffffffffffffffffffffffffffffffffff16815260200190815260200160002060009054906101000a900460ff1615613bd0576040517f08c379a0000000000000000000000000000000000000000000000000000000008152600401613bc7906151aa565b60405180910390fd5b613bdb8383836141e1565b613c47816040518060600160405280602681526020016156dc60269139600160008773ffffffffffffffffffffffffffffffffffffffff1673ffffffffffffffffffffffffffffffffffffffff16815260200190815260200160002054613d899092919063ffffffff16565b600160008573ffffffffffffffffffffffffffffffffffffffff1673ffffffffffffffffffffffffffffffffffffffff16815260200190815260200160002081905550613cdc81600160008573ffffffffffffffffffffffffffffffffffffffff1673ffffffffffffffffffffffffffffffffffffffff1681526020019081526020016000205461397890919063ffffffff16565b600160008473ffffffffffffffffffffffffffffffffffffffff1673ffffffffffffffffffffffffffffffffffffffff168152602001908152602001600020819055508173ffffffffffffffffffffffffffffffffffffffff168373ffffffffffffffffffffffffffffffffffffffff167fddf252ad1be2c89b69c2b068fc378daa952ba7f163c4a11628f55a4df523b3ef83604051613d7c91906152aa565b60405180910390a3505050565b6000838311158290613dd1576040517f08c379a0000000000000000000000000000000000000000000000000000000008152600401613dc891906150c8565b60405180910390fd5b5060008385613de09190615433565b9050809150509392505050565b600080823b905060008111915050919050565b60008390508073ffffffffffffffffffffffffffffffffffffffff1663a4c0ed363385856040518463ffffffff1660e01b8152600401613e429392919061502a565b602060405180830381600087803b158015613e5c57600080fd5b505af1158015613e70573d6000803e3d6000fd5b505050506040513d601f19601f82011682018060405250810190613e9491906145ed565b5050505050565b600073ffffffffffffffffffffffffffffffffffffffff168273ffffffffffffffffffffffffffffffffffffffff161415613f0b576040517f08c379a0000000000000000000000000000000000000000000000000000000008152600401613f029061522a565b60405180910390fd5b613f17826000836141e1565b613f83816040518060600160405280602281526020016156ba60229139600160008673ffffffffffffffffffffffffffffffffffffffff1673ffffffffffffffffffffffffffffffffffffffff16815260200190815260200160002054613d899092919063ffffffff16565b600160008473ffffffffffffffffffffffffffffffffffffffff1673ffffffffffffffffffffffffffffffffffffffff16815260200190815260200160002081905550613fdb8160045461392e90919063ffffffff16565b600481905550600073ffffffffffffffffffffffffffffffffffffffff168273ffffffffffffffffffffffffffffffffffffffff167fddf252ad1be2c89b69c2b068fc378daa952ba7f163c4a11628f55a4df523b3ef8360405161403f91906152aa565b60405180910390a35050565b600073ffffffffffffffffffffffffffffffffffffffff168273ffffffffffffffffffffffffffffffffffffffff1614156140bb576040517f08c379a00000000000000000000000000000000000000000000000000000000081526004016140b29061528a565b60405180910390fd5b6140c7600083836141e1565b6140dc8160045461397890919063ffffffff16565b60048190555061413481600160008573ffffffffffffffffffffffffffffffffffffffff1673ffffffffffffffffffffffffffffffffffffffff1681526020019081526020016000205461397890919063ffffffff16565b600160008473ffffffffffffffffffffffffffffffffffffffff1673ffffffffffffffffffffffffffffffffffffffff168152602001908152602001600020819055508173ffffffffffffffffffffffffffffffffffffffff16600073ffffffffffffffffffffffffffffffffffffffff167fddf252ad1be2c89b69c2b068fc378daa952ba7f163c4a11628f55a4df523b3ef836040516141d591906152aa565b60405180910390a35050565b505050565b60006141f96141f48461536a565b615339565b90508281526020810184848401111561421157600080fd5b61421c8482856154d8565b509392505050565b6000813590506142338161562f565b92915050565b60008135905061424881615646565b92915050565b60008135905061425d8161565d565b92915050565b6000815190506142728161565d565b92915050565b60008135905061428781615674565b92915050565b600082601f83011261429e57600080fd5b81356142ae8482602086016141e6565b91505092915050565b6000813590506142c68161568b565b92915050565b6000813590506142db816156a2565b92915050565b6000602082840312156142f357600080fd5b600061430184828501614224565b91505092915050565b60006020828403121561431c57600080fd5b600061432a84828501614239565b91505092915050565b6000806040838503121561434657600080fd5b600061435485828601614224565b925050602061436585828601614224565b9150509250929050565b60008060006060848603121561438457600080fd5b600061439286828701614224565b93505060206143a386828701614224565b92505060406143b4868287016142b7565b9150509250925092565b600080600080600080600080610100898b0312156143db57600080fd5b60006143e98b828c01614224565b98505060206143fa8b828c01614224565b975050604061440b8b828c016142b7565b965050606061441c8b828c016142b7565b955050608061442d8b828c016142b7565b94505060a061443e8b828c016142cc565b93505060c061444f8b828c01614278565b92505060e06144608b828c01614278565b9150509295985092959890939650565b6000806040838503121561448357600080fd5b600061449185828601614224565b92505060206144a28582860161424e565b9150509250929050565b600080604083850312156144bf57600080fd5b60006144cd85828601614224565b92505060206144de858286016142b7565b9150509250929050565b6000806000606084860312156144fd57600080fd5b600061450b86828701614224565b935050602061451c868287016142b7565b925050604084013567ffffffffffffffff81111561453957600080fd5b6145458682870161428d565b9150509250925092565b600080600080600080600060e0888a03121561456a57600080fd5b60006145788a828b01614224565b97505060206145898a828b016142b7565b965050604061459a8a828b016142b7565b95505060606145ab8a828b016142b7565b94505060806145bc8a828b016142cc565b93505060a06145cd8a828b01614278565b92505060c06145de8a828b01614278565b91505092959891949750929550565b6000602082840312156145ff57600080fd5b600061460d84828501614263565b91505092915050565b60006020828403121561462857600080fd5b600061463684828501614278565b91505092915050565b60006020828403121561465157600080fd5b600061465f848285016142b7565b91505092915050565b61467181615467565b82525050565b61468861468382615467565b61554c565b82525050565b6146978161548b565b82525050565b6146a681615497565b82525050565b6146bd6146b882615497565b61555e565b82525050565b60006146ce8261539a565b6146d881856153b0565b93506146e88185602086016154e7565b6146f181615611565b840191505092915050565b6000614707826153a5565b61471181856153c1565b93506147218185602086016154e7565b61472a81615611565b840191505092915050565b60006147426023836153c1565b91507f45524332303a207472616e7366657220746f20746865207a65726f206164647260008301527f65737300000000000000000000000000000000000000000000000000000000006020830152604082019050919050565b60006147a8601e836153c1565b91507f45524332303a2073656e6465722069732066726f7a656e4163636f756e7400006000830152602082019050919050565b60006147e8601c836153d2565b91507f19457468657265756d205369676e6564204d6573736167653a0a3332000000006000830152601c82019050919050565b60006148286010836153d2565b91507f617070726f76655072655369676e6564000000000000000000000000000000006000830152601082019050919050565b60006148686020836153c1565b91507f7472616e73616374696f6e206861736820697320616c726561647920757365646000830152602082019050919050565b60006148a86026836153c1565b91507f4f776e61626c653a206e6577206f776e657220697320746865207a65726f206160008301527f64647265737300000000000000000000000000000000000000000000000000006020830152604082019050919050565b600061490e6022836153c1565b91507f45524332303a20617070726f766520746f20746865207a65726f20616464726560008301527f73730000000000000000000000000000000000000000000000000000000000006020830152604082019050919050565b6000614974601b836153c1565b91507f536166654d6174683a206164646974696f6e206f766572666c6f7700000000006000830152602082019050919050565b60006149b46021836153c1565b91507f45524332303a20726563697069656e742069732066726f7a656e4163636f756e60008301527f74000000000000000000000000000000000000000000000000000000000000006020830152604082019050919050565b6000614a1a6019836153d2565b91507f696e637265617365417070726f76616c5072655369676e6564000000000000006000830152601982019050919050565b6000614a5a6011836153d2565b91507f7472616e736665725072655369676e65640000000000000000000000000000006000830152601182019050919050565b6000614a9a6015836153d2565b91507f7472616e7366657246726f6d5072655369676e656400000000000000000000006000830152601582019050919050565b6000614ada6015836153c1565b91507f496e76616c6964205f66726f6d206164647265737300000000000000000000006000830152602082019050919050565b6000614b1a6020836153c1565b91507f4f776e61626c653a2063616c6c6572206973206e6f7420746865206f776e65726000830152602082019050919050565b6000614b5a6013836153c1565b91507f496e76616c6964205f746f2061646472657373000000000000000000000000006000830152602082019050919050565b6000614b9a6019836153d2565b91507f6465637265617365417070726f76616c5072655369676e6564000000000000006000830152601982019050919050565b6000614bda6021836153c1565b91507f45524332303a206275726e2066726f6d20746865207a65726f2061646472657360008301527f73000000000000000000000000000000000000000000000000000000000000006020830152604082019050919050565b6000614c406025836153c1565b91507f45524332303a207472616e736665722066726f6d20746865207a65726f20616460008301527f64726573730000000000000000000000000000000000000000000000000000006020830152604082019050919050565b6000614ca66024836153c1565b91507f45524332303a20617070726f76652066726f6d20746865207a65726f2061646460008301527f72657373000000000000000000000000000000000000000000000000000000006020830152604082019050919050565b6000614d0c601f836153c1565b91507f45524332303a206d696e7420746f20746865207a65726f2061646472657373006000830152602082019050919050565b614d48816154c1565b82525050565b614d5f614d5a826154c1565b61557a565b82525050565b614d6e816154cb565b82525050565b6000614d7f826147db565b9150614d8b82846146ac565b60208201915081905092915050565b6000614da58261481b565b9150614db18288614677565b601482019150614dc18287614677565b601482019150614dd18286614d4e565b602082019150614de18285614d4e565b602082019150614df18284614d4e565b6020820191508190509695505050505050565b6000614e0f82614a0d565b9150614e1b8288614677565b601482019150614e2b8287614677565b601482019150614e3b8286614d4e565b602082019150614e4b8285614d4e565b602082019150614e5b8284614d4e565b6020820191508190509695505050505050565b6000614e7982614a4d565b9150614e858288614677565b601482019150614e958287614677565b601482019150614ea58286614d4e565b602082019150614eb58285614d4e565b602082019150614ec58284614d4e565b6020820191508190509695505050505050565b6000614ee382614a8d565b9150614eef8289614677565b601482019150614eff8288614677565b601482019150614f0f8287614677565b601482019150614f1f8286614d4e565b602082019150614f2f8285614d4e565b602082019150614f3f8284614d4e565b602082019150819050979650505050505050565b6000614f5e82614b8d565b9150614f6a8288614677565b601482019150614f7a8287614677565b601482019150614f8a8286614d4e565b602082019150614f9a8285614d4e565b602082019150614faa8284614d4e565b6020820191508190509695505050505050565b6000602082019050614fd26000830184614668565b92915050565b6000604082019050614fed6000830185614668565b614ffa602083018461468e565b9392505050565b60006040820190506150166000830185614668565b6150236020830184614d3f565b9392505050565b600060608201905061503f6000830186614668565b61504c6020830185614d3f565b818103604083015261505e81846146c3565b9050949350505050565b600060208201905061507d600083018461468e565b92915050565b6000608082019050615098600083018761469d565b6150a56020830186614d65565b6150b2604083018561469d565b6150bf606083018461469d565b95945050505050565b600060208201905081810360008301526150e281846146fc565b905092915050565b6000602082019050818103600083015261510381614735565b9050919050565b600060208201905081810360008301526151238161479b565b9050919050565b600060208201905081810360008301526151438161485b565b9050919050565b600060208201905081810360008301526151638161489b565b9050919050565b6000602082019050818103600083015261518381614901565b9050919050565b600060208201905081810360008301526151a381614967565b9050919050565b600060208201905081810360008301526151c3816149a7565b9050919050565b600060208201905081810360008301526151e381614acd565b9050919050565b6000602082019050818103600083015261520381614b0d565b9050919050565b6000602082019050818103600083015261522381614b4d565b9050919050565b6000602082019050818103600083015261524381614bcd565b9050919050565b6000602082019050818103600083015261526381614c33565b9050919050565b6000602082019050818103600083015261528381614c99565b9050919050565b600060208201905081810360008301526152a381614cff565b9050919050565b60006020820190506152bf6000830184614d3f565b92915050565b60006040820190506152da6000830185614d3f565b81810360208301526152ec81846146c3565b90509392505050565b600060408201905061530a6000830185614d3f565b6153176020830184614d3f565b9392505050565b60006020820190506153336000830184614d65565b92915050565b6000604051905081810181811067ffffffffffffffff821117156153605761535f6155e2565b5b8060405250919050565b600067ffffffffffffffff821115615385576153846155e2565b5b601f19601f8301169050602081019050919050565b600081519050919050565b600081519050919050565b600082825260208201905092915050565b600082825260208201905092915050565b600081905092915050565b60006153e8826154c1565b91506153f3836154c1565b9250827fffffffffffffffffffffffffffffffffffffffffffffffffffffffffffffffff0382111561542857615427615584565b5b828201905092915050565b600061543e826154c1565b9150615449836154c1565b92508282101561545c5761545b615584565b5b828203905092915050565b6000615472826154a1565b9050919050565b6000615484826154a1565b9050919050565b60008115159050919050565b6000819050919050565b600073ffffffffffffffffffffffffffffffffffffffff82169050919050565b6000819050919050565b600060ff82169050919050565b82818337600083830152505050565b60005b838110156155055780820151818401526020810190506154ea565b83811115615514576000848401525b50505050565b6000600282049050600182168061553257607f821691505b60208210811415615546576155456155b3565b5b50919050565b600061555782615568565b9050919050565b6000819050919050565b600061557382615622565b9050919050565b6000819050919050565b7f4e487b7100000000000000000000000000000000000000000000000000000000600052601160045260246000fd5b7f4e487b7100000000000000000000000000000000000000000000000000000000600052602260045260246000fd5b7f4e487b7100000000000000000000000000000000000000000000000000000000600052604160045260246000fd5b6000601f19601f8301169050919050565b60008160601b9050919050565b61563881615467565b811461564357600080fd5b50565b61564f81615479565b811461565a57600080fd5b50565b6156668161548b565b811461567157600080fd5b50565b61567d81615497565b811461568857600080fd5b50565b615694816154c1565b811461569f57600080fd5b50565b6156ab816154cb565b81146156b657600080fd5b5056fe45524332303a206275726e20616d6f756e7420657863656564732062616c616e636545524332303a207472616e7366657220616d6f756e7420657863656564732062616c616e636545524332303a207472616e7366657220616d6f756e74206578636565647320616c6c6f77616e636545524332303a2064656372656173656420616c6c6f77616e63652062656c6f77207a65726fa26469706673582212207d651106bdffaaba52aa2460f616cbd6da3f08bb09a755b0835ec3f7ce0c098664736f6c63430008000033",
  "immutableReferences": {},
  "source": "// SPDX-License-Identifier: MIT\npragma solidity ^0.8.0;\n\nimport \"./access/Ownable.sol\";\nimport \"./gsn/Context.sol\";\nimport \"./token/ERC20.sol\";\nimport \"./library/SafeMath.sol\";\nimport \"./token/ERC677.sol\";\nimport \"./token/ERC677Receiver.sol\";\n\n\n\n/**\n * @title ANVToken\n * @dev Very simple ERC20 Token example, where all tokens are pre-assigned to the creator.\n * Note they can later distribute these tokens as they wish using `transfer` and other\n * `ERC20` functions.\n */\ncontract ANVToken is Context, Ownable, ERC677 {\n    \n    using SafeMath for uint256;\n\n    /* Nonces of transfers performed */\n    mapping(bytes32 => bool) public transactionHashes;\n    \n    \n    // ------------------------ EVENTS ------------------------ //\n    event TransferPreSigned(address indexed from, address indexed to, address indexed delegate, uint256 amount, uint256 fee);\n    event ApprovalPreSigned(address indexed from, address indexed to, address indexed delegate, uint256 amount, uint256 fee);\n    \n    event ValueReceived(address sender, uint256 amount);\n    \n    \n    \n    constructor () ERC20(\"ANV Token\", \"ANV\") {\n    }\n    \n\n\t// --------------------------------------- ERC 865 -------------------------------------------\n    \n     /**\n     * @notice Submit a presigned transfer\n     * @param _to address The address which you want to transfer to.\n     * @param _value uint256 The amount of tokens to be transferred.\n     * @param _fee uint256 The amount of tokens paid to msg.sender, by the owner.\n     * @param _nonce uint256 Presigned transaction number.\n     */\n    function transferPreSigned(\n        address _from,\n        address _to,\n        uint256 _value,\n        uint256 _fee,\n        uint256 _nonce,\n        uint8 v, \n        bytes32 r, \n        bytes32 s\n    )\n        public\n        onlyOwner\n        returns (bool)\n    {\n        require(_to != address(0), 'Invalid _to address');\n        bytes32 hashedTx = keccak256(abi.encodePacked('transferPreSigned', address(this), _to, _value, _fee, _nonce));\n        require(transactionHashes[hashedTx] == false, 'transaction hash is already used');\n        address from = ecrecover(keccak256(abi.encodePacked(\"\\x19Ethereum Signed Message:\\n32\", hashedTx)),v,r,s);\n        require(from == _from, 'Invalid _from address');\n\n        _balances[from] = _balances[from].sub(_value).sub(_fee);\n        _balances[_to] = _balances[_to].add(_value);\n        _balances[msg.sender] = _balances[msg.sender].add(_fee);\n        transactionHashes[hashedTx] = true;\n        emit Transfer(from, _to, _value);\n        emit Transfer(from, msg.sender, _fee);\n        emit TransferPreSigned(from, _to, msg.sender, _value, _fee);\n        return true;\n    }\n    \n    \n    /**\n     * @notice Submit a presigned approval\n     * @param _spender address The address which will spend the funds.\n     * @param _value uint256 The amount of tokens to allow.\n     * @param _fee uint256 The amount of tokens paid to msg.sender, by the owner.\n     * @param _nonce uint256 Presigned transaction number.\n     */\n    function approvePreSigned(\n        address _spender,\n        uint256 _value,\n        uint256 _fee,\n        uint256 _nonce,\n        uint8 v, \n        bytes32 r, \n        bytes32 s\n    )\n        public\n        onlyOwner\n        returns (bool)\n    {\n        require(_spender != address(0));\n        bytes32 hashedTx = keccak256(abi.encodePacked('approvePreSigned', address(this), _spender, _value, _fee, _nonce));\n        require(transactionHashes[hashedTx] == false, 'transaction hash is already used');\n        address from = ecrecover(keccak256(abi.encodePacked(\"\\x19Ethereum Signed Message:\\n32\", hashedTx)),v,r,s);\n        require(from != address(0), 'Invalid _from address');\n        \n        _allowances[from][_spender] = _value;\n        _balances[from] = _balances[from].sub(_fee);\n        _balances[msg.sender] = _balances[msg.sender].add(_fee);\n        transactionHashes[hashedTx] = true;\n        emit Approval(from, _spender, _value);\n        emit Transfer(from, msg.sender, _fee);\n        emit ApprovalPreSigned(from, _spender, msg.sender, _value, _fee);\n        return true;\n    }\n    \n     /**\n     * @notice Increase the amount of tokens that an owner allowed to a spender.\n     * @param _spender address The address which will spend the funds.\n     * @param _addedValue uint256 The amount of tokens to increase the allowance by.\n     * @param _fee uint256 The amount of tokens paid to msg.sender, by the owner.\n     * @param _nonce uint256 Presigned transaction number.\n     */\n    function increaseApprovalPreSigned(\n        address _spender,\n        uint256 _addedValue,\n        uint256 _fee,\n        uint256 _nonce,\n        uint8 v, \n        bytes32 r, \n        bytes32 s\n    )\n        public\n        onlyOwner\n        returns (bool)\n    {\n        require(_spender != address(0));\n        bytes32 hashedTx = keccak256(abi.encodePacked('increaseApprovalPreSigned', address(this), _spender, _addedValue, _fee, _nonce));\n        require(transactionHashes[hashedTx] == false, 'transaction hash is already used');\n        address from = ecrecover(keccak256(abi.encodePacked(\"\\x19Ethereum Signed Message:\\n32\", hashedTx)),v,r,s);\n        require(from != address(0), 'Invalid _from address');\n        \n        _allowances[from][_spender] = _allowances[from][_spender].add(_addedValue);\n        _balances[from] = _balances[from].sub(_fee);\n        _balances[msg.sender] = _balances[msg.sender].add(_fee);\n        transactionHashes[hashedTx] = true;\n        emit Approval(from, _spender, _allowances[from][_spender]);\n        emit Transfer(from, msg.sender, _fee);\n        emit ApprovalPreSigned(from, _spender, msg.sender, _allowances[from][_spender], _fee);\n        return true;\n    }\n    \n     /**\n     * @notice Decrease the amount of tokens that an owner allowed to a spender.\n     * @param _spender address The address which will spend the funds.\n     * @param _subtractedValue uint256 The amount of tokens to decrease the allowance by.\n     * @param _fee uint256 The amount of tokens paid to msg.sender, by the owner.\n     * @param _nonce uint256 Presigned transaction number.\n     */\n    function decreaseApprovalPreSigned(\n        address _spender,\n        uint256 _subtractedValue,\n        uint256 _fee,\n        uint256 _nonce,\n        uint8 v, \n        bytes32 r, \n        bytes32 s\n    )\n        public\n        onlyOwner\n        returns (bool)\n    {\n        require(_spender != address(0));\n        bytes32 hashedTx = keccak256(abi.encodePacked('decreaseApprovalPreSigned', address(this), _spender, _subtractedValue, _fee, _nonce));\n        require(transactionHashes[hashedTx] == false, 'transaction hash is already used');\n        address from = ecrecover(keccak256(abi.encodePacked(\"\\x19Ethereum Signed Message:\\n32\", hashedTx)),v,r,s);\n        require(from != address(0), 'Invalid _from address');\n        \n        if (_subtractedValue > _allowances[from][_spender]) {\n            _allowances[from][_spender] = 0;\n        } else {\n            _allowances[from][_spender] = _allowances[from][_spender].sub(_subtractedValue);\n        }\n        _balances[from] = _balances[from].sub(_fee);\n        _balances[msg.sender] = _balances[msg.sender].add(_fee);\n        transactionHashes[hashedTx] = true;\n        emit Approval(from, _spender, _subtractedValue);\n        emit Transfer(from, msg.sender, _fee);\n        emit ApprovalPreSigned(from, _spender, msg.sender, _allowances[from][_spender], _fee);\n        return true;\n    }\n    \n    \n     /**\n     * @notice Transfer tokens from one address to another\n     * @param _from address The address which you want to send tokens from.\n     * @param _to address The address which you want to transfer to.\n     * @param _value uint256 The amount of tokens to be transferred.\n     * @param _fee uint256 The amount of tokens paid to msg.sender, by the spender.\n     * @param _nonce uint256 Presigned transaction number.\n     */\n    function transferFromPreSigned(\n        address _from,\n        address _to,\n        uint256 _value,\n        uint256 _fee,\n        uint256 _nonce,\n        uint8 v, \n        bytes32 r, \n        bytes32 s\n    )\n        public\n        onlyOwner\n        returns (bool)\n    {\n        require(_to != address(0));\n        bytes32 hashedTx = keccak256(abi.encodePacked('transferFromPreSigned', address(this), _from, _to, _value, _fee, _nonce));\n        require(transactionHashes[hashedTx] == false, 'transaction hash is already used');\n        address spender = ecrecover(keccak256(abi.encodePacked(\"\\x19Ethereum Signed Message:\\n32\", hashedTx)),v,r,s);\n        require(spender != address(0), 'Invalid _from address');\n        \n        _balances[_from] = _balances[_from].sub(_value);\n        _balances[_to] = _balances[_to].add(_value);\n        _allowances[_from][spender] = _allowances[_from][spender].sub(_value);\n        _balances[spender] = _balances[spender].sub(_fee);\n        _balances[msg.sender] = _balances[msg.sender].add(_fee);\n        \n        transactionHashes[hashedTx] = true;\n        emit Transfer(_from, _to, _value);\n        emit Transfer(spender, msg.sender, _fee);\n        return true;\n    }\n   \n   \n   // --------------------------------------- ERC 667 -------------------------------------------\n\n      /**\n      * @dev transfer token to a contract address with additional data if the recipient is a contact.\n      * @param _to The address to transfer to.\n      * @param _value The amount to be transferred.\n      * @param _data The extra data to be passed to the receiving contract.\n      */\n      function transferAndCall(address _to, uint _value, bytes memory _data)\n        override\n        public\n        returns (bool success)\n      {\n        super.transfer(_to, _value);\n        emit Transfer(msg.sender, _to, _value, _data);\n        if (isContract(_to)) {\n          contractFallback(_to, _value, _data);\n        }\n        return true;\n      }\n\n\n      // PRIVATE\n      function contractFallback(address _to, uint _value, bytes memory _data) private\n      {\n        ERC677Receiver receiver = ERC677Receiver(_to);\n        receiver.onTokenTransfer(msg.sender, _value, _data);\n      }\n    \n      function isContract(address _addr) private view returns (bool hasCode)\n      {\n        uint length;\n        assembly { length := extcodesize(_addr) }\n        return length > 0;\n      }\n      \n      /**\n      * accept ether\n      */\n    fallback() external payable {\n        emit ValueReceived(msg.sender, msg.value);\n    }\n\n    receive() external payable {\n        // custom function code\n    }\n    \n}",
  "sourcePath": "/Users/string/truffle/kanv-gorvanance/contracts/ANVToken.sol",
  "compiler": {
    "name": "solc",
    "version": "0.8.0+commit.c7dfd78e.Emscripten.clang"
  },
  "schemaVersion": "3.4.7",
  "updatedAt": "2022-05-25T09:20:31.571Z",
  "networkType": "ethereum",
  "devdoc": {
    "details": "Very simple ERC20 Token example, where all tokens are pre-assigned to the creator. Note they can later distribute these tokens as they wish using `transfer` and other `ERC20` functions.",
    "kind": "dev",
    "methods": {
      "allowance(address,address)": {
        "details": "See {IERC20-allowance}."
      },
      "approve(address,uint256)": {
        "details": "See {IERC20-approve}. Requirements: - `spender` cannot be the zero address."
      },
      "approvePreSigned(address,uint256,uint256,uint256,uint8,bytes32,bytes32)": {
        "params": {
          "_fee": "uint256 The amount of tokens paid to msg.sender, by the owner.",
          "_nonce": "uint256 Presigned transaction number.",
          "_spender": "address The address which will spend the funds.",
          "_value": "uint256 The amount of tokens to allow."
        }
      },
      "balanceOf(address)": {
        "details": "See {IERC20-balanceOf}."
      },
      "burn(uint256)": {
        "details": "Burns a specific amount of tokens.",
        "params": {
          "amount": "The amount of token to be burned."
        }
      },
      "burnFrom(address,uint256)": {
        "details": "Burns a specific amount of tokens.",
        "params": {
          "account": "The from account",
          "amount": "The amount of token to be burned."
        }
      },
      "decimals()": {
        "details": "Returns the number of decimals used to get its user representation. For example, if `decimals` equals `2`, a balance of `505` tokens should be displayed to a user as `5,05` (`505 / 10 ** 2`). Tokens usually opt for a value of 18, imitating the relationship between Ether and Wei. This is the value {ERC20} uses, unless {_setupDecimals} is called. NOTE: This information is only used for _display_ purposes: it in no way affects any of the arithmetic of the contract, including {IERC20-balanceOf} and {IERC20-transfer}."
      },
      "decreaseAllowance(address,uint256)": {
        "details": "Atomically decreases the allowance granted to `spender` by the caller. This is an alternative to {approve} that can be used as a mitigation for problems described in {IERC20-approve}. Emits an {Approval} event indicating the updated allowance. Requirements: - `spender` cannot be the zero address. - `spender` must have allowance for the caller of at least `subtractedValue`."
      },
      "decreaseApprovalPreSigned(address,uint256,uint256,uint256,uint8,bytes32,bytes32)": {
        "params": {
          "_fee": "uint256 The amount of tokens paid to msg.sender, by the owner.",
          "_nonce": "uint256 Presigned transaction number.",
          "_spender": "address The address which will spend the funds.",
          "_subtractedValue": "uint256 The amount of tokens to decrease the allowance by."
        }
      },
      "freezeAccount(address,bool)": {
        "params": {
          "freeze": "either to freeze it or not",
          "target": "Address to be frozen"
        }
      },
      "increaseAllowance(address,uint256)": {
        "details": "Atomically increases the allowance granted to `spender` by the caller. This is an alternative to {approve} that can be used as a mitigation for problems described in {IERC20-approve}. Emits an {Approval} event indicating the updated allowance. Requirements: - `spender` cannot be the zero address."
      },
      "increaseApprovalPreSigned(address,uint256,uint256,uint256,uint8,bytes32,bytes32)": {
        "params": {
          "_addedValue": "uint256 The amount of tokens to increase the allowance by.",
          "_fee": "uint256 The amount of tokens paid to msg.sender, by the owner.",
          "_nonce": "uint256 Presigned transaction number.",
          "_spender": "address The address which will spend the funds."
        }
      },
      "mintToken(address,uint256)": {
        "params": {
          "mintedAmount": "the amount of tokens it will receive",
          "target": "Address to receive the tokens"
        }
      },
      "name()": {
        "details": "Returns the name of the token."
      },
      "owner()": {
        "details": "Returns the address of the current owner."
      },
      "renounceOwnership()": {
        "details": "Leaves the contract without owner. It will not be possible to call `onlyOwner` functions anymore. Can only be called by the current owner. NOTE: Renouncing ownership will leave the contract without an owner, thereby removing any functionality that is only available to the owner."
      },
      "symbol()": {
        "details": "Returns the symbol of the token, usually a shorter version of the name."
      },
      "totalSupply()": {
        "details": "See {IERC20-totalSupply}."
      },
      "transfer(address,uint256)": {
        "details": "See {IERC20-transfer}. Requirements: - `recipient` cannot be the zero address. - the caller must have a balance of at least `amount`."
      },
      "transferAndCall(address,uint256,bytes)": {
        "details": "transfer token to a contract address with additional data if the recipient is a contact.",
        "params": {
          "_data": "The extra data to be passed to the receiving contract.",
          "_to": "The address to transfer to.",
          "_value": "The amount to be transferred."
        }
      },
      "transferFrom(address,address,uint256)": {
        "details": "See {IERC20-transferFrom}. Emits an {Approval} event indicating the updated allowance. This is not required by the EIP. See the note at the beginning of {ERC20}. Requirements: - `sender` and `recipient` cannot be the zero address. - `sender` must have a balance of at least `amount`. - the caller must have allowance for ``sender``'s tokens of at least `amount`."
      },
      "transferFromPreSigned(address,address,uint256,uint256,uint256,uint8,bytes32,bytes32)": {
        "params": {
          "_fee": "uint256 The amount of tokens paid to msg.sender, by the spender.",
          "_from": "address The address which you want to send tokens from.",
          "_nonce": "uint256 Presigned transaction number.",
          "_to": "address The address which you want to transfer to.",
          "_value": "uint256 The amount of tokens to be transferred."
        }
      },
      "transferOwnership(address)": {
        "details": "Transfers ownership of the contract to a new account (`newOwner`). Can only be called by the current owner."
      },
      "transferPreSigned(address,address,uint256,uint256,uint256,uint8,bytes32,bytes32)": {
        "params": {
          "_fee": "uint256 The amount of tokens paid to msg.sender, by the owner.",
          "_nonce": "uint256 Presigned transaction number.",
          "_to": "address The address which you want to transfer to.",
          "_value": "uint256 The amount of tokens to be transferred."
        }
      }
    },
    "title": "ANVToken",
    "version": 1
  },
  "userdoc": {
    "kind": "user",
    "methods": {
      "approvePreSigned(address,uint256,uint256,uint256,uint8,bytes32,bytes32)": {
        "notice": "Submit a presigned approval"
      },
      "decreaseApprovalPreSigned(address,uint256,uint256,uint256,uint8,bytes32,bytes32)": {
        "notice": "Decrease the amount of tokens that an owner allowed to a spender."
      },
      "freezeAccount(address,bool)": {
        "notice": "`freeze? Prevent | Allow` `target` from sending & receiving tokens"
      },
      "increaseApprovalPreSigned(address,uint256,uint256,uint256,uint8,bytes32,bytes32)": {
        "notice": "Increase the amount of tokens that an owner allowed to a spender."
      },
      "mintToken(address,uint256)": {
        "notice": "Create `mintedAmount` tokens and send it to `target`"
      },
      "transferFromPreSigned(address,address,uint256,uint256,uint256,uint8,bytes32,bytes32)": {
        "notice": "Transfer tokens from one address to another"
      },
      "transferPreSigned(address,address,uint256,uint256,uint256,uint8,bytes32,bytes32)": {
        "notice": "Submit a presigned transfer"
      },
      "withdraw(uint256)": {
        "notice": "Withdraw for Ether"
      },
      "withdrawToken(uint256)": {
        "notice": "Withdraw for Token"
      }
    },
    "version": 1
  }
}