{
  "contractName": "gorvernance",
  "abi": [
    {
      "inputs": [
        {
          "internalType": "address",
          "name": "_erc20Token",
          "type": "address"
        },
        {
          "internalType": "address",
          "name": "_erc721NFT",
          "type": "address"
        },
        {
          "internalType": "address",
          "name": "_governance",
          "type": "address"
        }
      ],
      "stateMutability": "nonpayable",
      "type": "constructor"
    },
    {
      "anonymous": false,
      "inputs": [
        {
          "indexed": false,
          "internalType": "uint256",
          "name": "_balance",
          "type": "uint256"
        }
      ],
      "name": "BalanceCheck",
      "type": "event"
    },
    {
      "anonymous": false,
      "inputs": [
        {
          "indexed": true,
          "internalType": "uint256",
          "name": "tokenId",
          "type": "uint256"
        },
        {
          "indexed": false,
          "internalType": "uint256",
          "name": "cost",
          "type": "uint256"
        }
      ],
      "name": "TokenPlaced",
      "type": "event"
    },
    {
      "anonymous": false,
      "inputs": [
        {
          "indexed": true,
          "internalType": "uint256",
          "name": "tokenId",
          "type": "uint256"
        },
        {
          "indexed": true,
          "internalType": "address",
          "name": "newOwner",
          "type": "address"
        }
      ],
      "name": "TokenSold",
      "type": "event"
    },
    {
      "anonymous": false,
      "inputs": [
        {
          "indexed": true,
          "internalType": "uint256",
          "name": "tokenId",
          "type": "uint256"
        }
      ],
      "name": "TokenUnplaced",
      "type": "event"
    },
    {
      "anonymous": false,
      "inputs": [
        {
          "indexed": false,
          "internalType": "address",
          "name": "approvedaddress",
          "type": "address"
        },
        {
          "indexed": false,
          "internalType": "address",
          "name": "thisaddress",
          "type": "address"
        }
      ],
      "name": "checkthis",
      "type": "event"
    },
    {
      "inputs": [],
      "name": "erc20Token",
      "outputs": [
        {
          "internalType": "address",
          "name": "",
          "type": "address"
        }
      ],
      "stateMutability": "view",
      "type": "function",
      "constant": true
    },
    {
      "inputs": [],
      "name": "erc721NFT",
      "outputs": [
        {
          "internalType": "address",
          "name": "",
          "type": "address"
        }
      ],
      "stateMutability": "view",
      "type": "function",
      "constant": true
    },
    {
      "inputs": [],
      "name": "feeAmount",
      "outputs": [
        {
          "internalType": "uint256",
          "name": "",
          "type": "uint256"
        }
      ],
      "stateMutability": "view",
      "type": "function",
      "constant": true
    },
    {
      "inputs": [],
      "name": "governance",
      "outputs": [
        {
          "internalType": "address",
          "name": "",
          "type": "address"
        }
      ],
      "stateMutability": "view",
      "type": "function",
      "constant": true
    },
    {
      "inputs": [
        {
          "internalType": "string",
          "name": "title",
          "type": "string"
        },
        {
          "internalType": "string",
          "name": "content",
          "type": "string"
        },
        {
          "internalType": "address",
          "name": "ERC721NFT",
          "type": "address"
        },
        {
          "internalType": "address",
          "name": "ERC20TOKEN",
          "type": "address"
        }
      ],
      "name": "move",
      "outputs": [],
      "stateMutability": "nonpayable",
      "type": "function"
    },
    {
      "inputs": [
        {
          "internalType": "uint256",
          "name": "index",
          "type": "uint256"
        },
        {
          "internalType": "uint256",
          "name": "voting",
          "type": "uint256"
        },
        {
          "internalType": "bool",
          "name": "yesOrNo",
          "type": "bool"
        }
      ],
      "name": "votes",
      "outputs": [],
      "stateMutability": "nonpayable",
      "type": "function"
    },
    {
      "inputs": [
        {
          "internalType": "uint256",
          "name": "index",
          "type": "uint256"
        }
      ],
      "name": "closeVotes",
      "outputs": [],
      "stateMutability": "nonpayable",
      "type": "function"
    },
    {
      "inputs": [
        {
          "internalType": "uint256",
          "name": "index",
          "type": "uint256"
        }
      ],
      "name": "checkMove",
      "outputs": [
        {
          "internalType": "uint256",
          "name": "",
          "type": "uint256"
        },
        {
          "internalType": "uint256",
          "name": "",
          "type": "uint256"
        }
      ],
      "stateMutability": "view",
      "type": "function",
      "constant": true
    },
    {
      "inputs": [
        {
          "internalType": "uint256",
          "name": "index",
          "type": "uint256"
        }
      ],
      "name": "checkActive",
      "outputs": [
        {
          "internalType": "bool",
          "name": "",
          "type": "bool"
        }
      ],
      "stateMutability": "view",
      "type": "function",
      "constant": true
    },
    {
      "inputs": [
        {
          "internalType": "uint256",
          "name": "index",
          "type": "uint256"
        }
      ],
      "name": "checkEnd",
      "outputs": [
        {
          "internalType": "bool",
          "name": "",
          "type": "bool"
        }
      ],
      "stateMutability": "view",
      "type": "function",
      "constant": true
    },
    {
      "inputs": [
        {
          "internalType": "uint256",
          "name": "index",
          "type": "uint256"
        }
      ],
      "name": "checkItem",
      "outputs": [
        {
          "components": [
            {
              "internalType": "address",
              "name": "mover",
              "type": "address"
            },
            {
              "internalType": "string",
              "name": "title",
              "type": "string"
            },
            {
              "internalType": "string",
              "name": "content",
              "type": "string"
            },
            {
              "internalType": "uint256",
              "name": "yes",
              "type": "uint256"
            },
            {
              "internalType": "uint256",
              "name": "no",
              "type": "uint256"
            },
            {
              "internalType": "uint256",
              "name": "movedBlockNumber",
              "type": "uint256"
            },
            {
              "internalType": "bool",
              "name": "isActive",
              "type": "bool"
            },
            {
              "internalType": "bool",
              "name": "isApproved",
              "type": "bool"
            }
          ],
          "internalType": "struct gorvernance.moveItem",
          "name": "",
          "type": "tuple"
        }
      ],
      "stateMutability": "view",
      "type": "function",
      "constant": true
    }
  ],
  "bytecode": "0x60806040523480156200001157600080fd5b506040516200207038038062002070833981810160405281019062000037919062000121565b6000600781905550826000806101000a81548173ffffffffffffffffffffffffffffffffffffffff021916908373ffffffffffffffffffffffffffffffffffffffff16021790555081600160006101000a81548173ffffffffffffffffffffffffffffffffffffffff021916908373ffffffffffffffffffffffffffffffffffffffff16021790555080600360006101000a81548173ffffffffffffffffffffffffffffffffffffffff021916908373ffffffffffffffffffffffffffffffffffffffff160217905550505050620001c5565b6000815190506200011b81620001ab565b92915050565b6000806000606084860312156200013757600080fd5b600062000147868287016200010a565b93505060206200015a868287016200010a565b92505060406200016d868287016200010a565b9150509250925092565b600062000184826200018b565b9050919050565b600073ffffffffffffffffffffffffffffffffffffffff82169050919050565b620001b68162000177565b8114620001c257600080fd5b50565b611e9b80620001d56000396000f3fe608060405234801561001057600080fd5b50600436106100a95760003560e01c80638a13eea7116100715780638a13eea7146101525780638f73bfed14610170578063a3da0261146101a0578063cd560ffd146101d0578063d2f87681146101ec578063e651a9891461020a576100a9565b80633e3d9eae146100ae578063463f2ab6146100ca5780635aa6e675146100fa5780636564ad321461011857806369e1540414610134575b600080fd5b6100c860048036038101906100c3919061156f565b61023b565b005b6100e460048036038101906100df919061156f565b6107a0565b6040516100f19190611b36565b60405180910390f35b61010261099c565b60405161010f91906119a9565b60405180910390f35b610132600480360381019061012d91906114dc565b6109c2565b005b61013c610dcf565b6040516101499190611b58565b60405180910390f35b61015a610dd5565b60405161016791906119a9565b60405180910390f35b61018a6004803603810190610185919061156f565b610df9565b60405161019791906119fb565b60405180910390f35b6101ba60048036038101906101b5919061156f565b610e2a565b6040516101c791906119fb565b60405180910390f35b6101ea60048036038101906101e591906115c1565b610e5e565b005b6101f4611188565b60405161020191906119a9565b60405180910390f35b610224600480360381019061021f919061156f565b6111ae565b604051610232929190611b73565b60405180910390f35b600060066000838152602001908152602001600020604051806101000160405290816000820160009054906101000a900473ffffffffffffffffffffffffffffffffffffffff1673ffffffffffffffffffffffffffffffffffffffff1673ffffffffffffffffffffffffffffffffffffffff1681526020016001820180546102c290611d50565b80601f01602080910402602001604051908101604052809291908181526020018280546102ee90611d50565b801561033b5780601f106103105761010080835404028352916020019161033b565b820191906000526020600020905b81548152906001019060200180831161031e57829003601f168201915b5050505050815260200160028201805461035490611d50565b80601f016020809104026020016040519081016040528092919081815260200182805461038090611d50565b80156103cd5780601f106103a2576101008083540402835291602001916103cd565b820191906000526020600020905b8154815290600101906020018083116103b057829003601f168201915b505050505081526020016003820154815260200160048201548152602001600582015481526020016006820160009054906101000a900460ff161515151581526020016006820160019054906101000a900460ff1615151515815250509050600115158160c00151151514610477576040517f08c379a000000000000000000000000000000000000000000000000000000000815260040161046e90611ab6565b60405180910390fd5b4360008260a001516104899190611c2a565b11156104ca576040517f08c379a00000000000000000000000000000000000000000000000000000000081526004016104c190611af6565b60405180910390fd5b600061065b826080015183606001516104e39190611c2a565b60008054906101000a900473ffffffffffffffffffffffffffffffffffffffff1673ffffffffffffffffffffffffffffffffffffffff166370a08231600360009054906101000a900473ffffffffffffffffffffffffffffffffffffffff166040518263ffffffff1660e01b815260040161055e91906119a9565b60206040518083038186803b15801561057657600080fd5b505afa15801561058a573d6000803e3d6000fd5b505050506040513d601f19601f820116820180604052508101906105ae9190611598565b60008054906101000a900473ffffffffffffffffffffffffffffffffffffffff1673ffffffffffffffffffffffffffffffffffffffff166318160ddd6040518163ffffffff1660e01b815260040160206040518083038186803b15801561061457600080fd5b505afa158015610628573d6000803e3d6000fd5b505050506040513d601f19601f8201168201806040525081019061064c9190611598565b6106569190611c80565b6111e8565b9050670429d069189e000081101561067257600080fd5b8160800151826060015111156106e55760006006600085815260200190815260200160002060060160006101000a81548160ff02191690831515021790555060016006600085815260200190815260200160002060060160016101000a81548160ff02191690831515021790555061079b565b8160800151826060015110156107585760006006600085815260200190815260200160002060060160006101000a81548160ff02191690831515021790555060006006600085815260200190815260200160002060060160016101000a81548160ff02191690831515021790555061079a565b81608001518260600151141561079957620151806006600085815260200190815260200160002060050160008282546107919190611c2a565b925050819055505b5b5b505050565b6107a86112e0565b60066000838152602001908152602001600020604051806101000160405290816000820160009054906101000a900473ffffffffffffffffffffffffffffffffffffffff1673ffffffffffffffffffffffffffffffffffffffff1673ffffffffffffffffffffffffffffffffffffffff16815260200160018201805461082d90611d50565b80601f016020809104026020016040519081016040528092919081815260200182805461085990611d50565b80156108a65780601f1061087b576101008083540402835291602001916108a6565b820191906000526020600020905b81548152906001019060200180831161088957829003601f168201915b505050505081526020016002820180546108bf90611d50565b80601f01602080910402602001604051908101604052809291908181526020018280546108eb90611d50565b80156109385780601f1061090d57610100808354040283529160200191610938565b820191906000526020600020905b81548152906001019060200180831161091b57829003601f168201915b505050505081526020016003820154815260200160048201548152602001600582015481526020016006820160009054906101000a900460ff161515151581526020016006820160019054906101000a900460ff1615151515815250509050919050565b600360009054906101000a900473ffffffffffffffffffffffffffffffffffffffff1681565b6107d08173ffffffffffffffffffffffffffffffffffffffff166370a08231336040518263ffffffff1660e01b81526004016109fe91906119a9565b60206040518083038186803b158015610a1657600080fd5b505afa158015610a2a573d6000803e3d6000fd5b505050506040513d601f19601f82011682018060405250810190610a4e9190611598565b1015610a8f576040517f08c379a0000000000000000000000000000000000000000000000000000000008152600401610a8690611a76565b60405180910390fd5b60058273ffffffffffffffffffffffffffffffffffffffff166370a08231336040518263ffffffff1660e01b8152600401610aca91906119a9565b60206040518083038186803b158015610ae257600080fd5b505afa158015610af6573d6000803e3d6000fd5b505050506040513d601f19601f82011682018060405250810190610b1a9190611598565b1015610b5b576040517f08c379a0000000000000000000000000000000000000000000000000000000008152600401610b5290611a36565b60405180910390fd5b60008451118015610b6d575060008351115b610bac576040517f08c379a0000000000000000000000000000000000000000000000000000000008152600401610ba390611ad6565b60405180910390fd5b8073ffffffffffffffffffffffffffffffffffffffff166323b872dd33600360009054906101000a900473ffffffffffffffffffffffffffffffffffffffff166107d06040518463ffffffff1660e01b8152600401610c0d939291906119c4565b602060405180830381600087803b158015610c2757600080fd5b505af1158015610c3b573d6000803e3d6000fd5b505050506040513d601f19601f82011682018060405250810190610c5f91906114b3565b50600160076000828254610c739190611c2a565b925050819055506040518061010001604052803373ffffffffffffffffffffffffffffffffffffffff16815260200185815260200184815260200160008152602001600081526020014381526020016001151581526020016000151581525060066000600754815260200190815260200160002060008201518160000160006101000a81548173ffffffffffffffffffffffffffffffffffffffff021916908373ffffffffffffffffffffffffffffffffffffffff1602179055506020820151816001019080519060200190610d4a92919061133f565b506040820151816002019080519060200190610d6792919061133f565b50606082015181600301556080820151816004015560a0820151816005015560c08201518160060160006101000a81548160ff02191690831515021790555060e08201518160060160016101000a81548160ff02191690831515021790555090505050505050565b60025481565b60008054906101000a900473ffffffffffffffffffffffffffffffffffffffff1681565b60004362093a806006600085815260200190815260200160002060050154610e219190611c2a565b10159050919050565b6000600115156006600084815260200190815260200160002060060160009054906101000a900460ff161515149050919050565b600115156006600085815260200190815260200160002060060160009054906101000a900460ff16151514610ec8576040517f08c379a0000000000000000000000000000000000000000000000000000000008152600401610ebf90611b16565b60405180910390fd5b600015156008600085815260200190815260200160002060003373ffffffffffffffffffffffffffffffffffffffff1673ffffffffffffffffffffffffffffffffffffffff16815260200190815260200160002060009054906101000a900460ff16151514610f6c576040517f08c379a0000000000000000000000000000000000000000000000000000000008152600401610f6390611a56565b60405180910390fd5b8160008054906101000a900473ffffffffffffffffffffffffffffffffffffffff1673ffffffffffffffffffffffffffffffffffffffff166370a08231336040518263ffffffff1660e01b8152600401610fc691906119a9565b60206040518083038186803b158015610fde57600080fd5b505afa158015610ff2573d6000803e3d6000fd5b505050506040513d601f19601f820116820180604052508101906110169190611598565b1015611057576040517f08c379a000000000000000000000000000000000000000000000000000000000815260040161104e90611a96565b60405180910390fd5b60011515811515148061106e575060001515811515145b6110ad576040517f08c379a00000000000000000000000000000000000000000000000000000000081526004016110a490611a16565b60405180910390fd5b60016008600085815260200190815260200160002060003373ffffffffffffffffffffffffffffffffffffffff1673ffffffffffffffffffffffffffffffffffffffff16815260200190815260200160002060006101000a81548160ff02191690831515021790555060011515811515141561115557816006600085815260200190815260200160002060030160008282546111499190611c2a565b92505081905550611183565b8160066000858152602001908152602001600020600401600082825461117b9190611c2a565b925050819055505b505050565b600160009054906101000a900473ffffffffffffffffffffffffffffffffffffffff1681565b6000806006600084815260200190815260200160002060030154600660008581526020019081526020016000206004015491509150915091565b60006111fd83670de0b6b3a764000084611205565b905092915050565b600080600080198587098587029250828110838203039150506000811415611240576000841161123457600080fd5b838204925050506112d9565b80841161124c57600080fd5b60008486880990508281118203915080830392506000600186190186169050808604955080840493506001818260000304019050808302841793506000600287600302189050808702600203810290508087026002038102905080870260020381029050808702600203810290508087026002038102905080870260020381029050808502955050505050505b9392505050565b604051806101000160405280600073ffffffffffffffffffffffffffffffffffffffff16815260200160608152602001606081526020016000815260200160008152602001600081526020016000151581526020016000151581525090565b82805461134b90611d50565b90600052602060002090601f01602090048101928261136d57600085556113b4565b82601f1061138657805160ff19168380011785556113b4565b828001600101855582156113b4579182015b828111156113b3578251825591602001919060010190611398565b5b5090506113c191906113c5565b5090565b5b808211156113de5760008160009055506001016113c6565b5090565b60006113f56113f084611bcd565b611b9c565b90508281526020810184848401111561140d57600080fd5b611418848285611d0e565b509392505050565b60008135905061142f81611e20565b92915050565b60008135905061144481611e37565b92915050565b60008151905061145981611e37565b92915050565b600082601f83011261147057600080fd5b81356114808482602086016113e2565b91505092915050565b60008135905061149881611e4e565b92915050565b6000815190506114ad81611e4e565b92915050565b6000602082840312156114c557600080fd5b60006114d38482850161144a565b91505092915050565b600080600080608085870312156114f257600080fd5b600085013567ffffffffffffffff81111561150c57600080fd5b6115188782880161145f565b945050602085013567ffffffffffffffff81111561153557600080fd5b6115418782880161145f565b935050604061155287828801611420565b925050606061156387828801611420565b91505092959194509250565b60006020828403121561158157600080fd5b600061158f84828501611489565b91505092915050565b6000602082840312156115aa57600080fd5b60006115b88482850161149e565b91505092915050565b6000806000606084860312156115d657600080fd5b60006115e486828701611489565b93505060206115f586828701611489565b925050604061160686828701611435565b9150509250925092565b61161981611cb4565b82525050565b61162881611cb4565b82525050565b61163781611cc6565b82525050565b61164681611cc6565b82525050565b61165581611cfc565b82525050565b600061166682611bfd565b6116708185611c08565b9350611680818560208601611d1d565b61168981611e0f565b840191505092915050565b60006116a1600a83611c19565b91507f4e6f74206120626f6f6c000000000000000000000000000000000000000000006000830152602082019050919050565b60006116e1600e83611c19565b91507f6e6f7420656e6f756768204e46540000000000000000000000000000000000006000830152602082019050919050565b6000611721600983611c19565b91507f596f7520566f74656400000000000000000000000000000000000000000000006000830152602082019050919050565b6000611761600483611c19565b91507f6e6f7065000000000000000000000000000000000000000000000000000000006000830152602082019050919050565b60006117a1601d83611c19565b91507f45786365656420746865206e756d626572206f6620766f746573203a200000006000830152602082019050919050565b60006117e1601083611c19565b91507f4465616374697661746564206974656d000000000000000000000000000000006000830152602082019050919050565b6000611821600583611c19565b91507f6e6f7065330000000000000000000000000000000000000000000000000000006000830152602082019050919050565b6000611861600783611c19565b91507f6e6f7420796574000000000000000000000000000000000000000000000000006000830152602082019050919050565b60006118a1601083611c19565b91507f4465616374697661746564204974656d000000000000000000000000000000006000830152602082019050919050565b6000610100830160008301516118ed6000860182611610565b5060208301518482036020860152611905828261165b565b9150506040830151848203604086015261191f828261165b565b9150506060830151611934606086018261198b565b506080830151611947608086018261198b565b5060a083015161195a60a086018261198b565b5060c083015161196d60c086018261162e565b5060e083015161198060e086018261162e565b508091505092915050565b61199481611cf2565b82525050565b6119a381611cf2565b82525050565b60006020820190506119be600083018461161f565b92915050565b60006060820190506119d9600083018661161f565b6119e6602083018561161f565b6119f3604083018461164c565b949350505050565b6000602082019050611a10600083018461163d565b92915050565b60006020820190508181036000830152611a2f81611694565b9050919050565b60006020820190508181036000830152611a4f816116d4565b9050919050565b60006020820190508181036000830152611a6f81611714565b9050919050565b60006020820190508181036000830152611a8f81611754565b9050919050565b60006020820190508181036000830152611aaf81611794565b9050919050565b60006020820190508181036000830152611acf816117d4565b9050919050565b60006020820190508181036000830152611aef81611814565b9050919050565b60006020820190508181036000830152611b0f81611854565b9050919050565b60006020820190508181036000830152611b2f81611894565b9050919050565b60006020820190508181036000830152611b5081846118d4565b905092915050565b6000602082019050611b6d600083018461199a565b92915050565b6000604082019050611b88600083018561199a565b611b95602083018461199a565b9392505050565b6000604051905081810181811067ffffffffffffffff82111715611bc357611bc2611de0565b5b8060405250919050565b600067ffffffffffffffff821115611be857611be7611de0565b5b601f19601f8301169050602081019050919050565b600081519050919050565b600082825260208201905092915050565b600082825260208201905092915050565b6000611c3582611cf2565b9150611c4083611cf2565b9250827fffffffffffffffffffffffffffffffffffffffffffffffffffffffffffffffff03821115611c7557611c74611d82565b5b828201905092915050565b6000611c8b82611cf2565b9150611c9683611cf2565b925082821015611ca957611ca8611d82565b5b828203905092915050565b6000611cbf82611cd2565b9050919050565b60008115159050919050565b600073ffffffffffffffffffffffffffffffffffffffff82169050919050565b6000819050919050565b6000611d0782611cf2565b9050919050565b82818337600083830152505050565b60005b83811015611d3b578082015181840152602081019050611d20565b83811115611d4a576000848401525b50505050565b60006002820490506001821680611d6857607f821691505b60208210811415611d7c57611d7b611db1565b5b50919050565b7f4e487b7100000000000000000000000000000000000000000000000000000000600052601160045260246000fd5b7f4e487b7100000000000000000000000000000000000000000000000000000000600052602260045260246000fd5b7f4e487b7100000000000000000000000000000000000000000000000000000000600052604160045260246000fd5b6000601f19601f8301169050919050565b611e2981611cb4565b8114611e3457600080fd5b50565b611e4081611cc6565b8114611e4b57600080fd5b50565b611e5781611cf2565b8114611e6257600080fd5b5056fea264697066735822122091a4c9f06d9d65a6342d78c704dde993851de3d0f819a63f5b3899e2ad39c3d764736f6c63430008000033",
  "immutableReferences": {},
  "source": "// SPDX-License-Identifier: MIT\npragma solidity >=0.4.22 <0.9.0;\nimport \"./token/IERC721.sol\";\nimport \"./token/IERC20.sol\";\nimport \"./library/PRBMathUD60x18.sol\";\n\nimport \"./access/Ownable.sol\";\nimport \"./gsn/Context.sol\";\nimport \"./address/Address.sol\";\nimport \"./strings/Strings.sol\";\n\ncontract gorvernance {\n\n  address public erc20Token;\n  address public erc721NFT;\n  uint256 public feeAmount;\n\n  address  public governance;\n  address tokenAddress;\n  address NFTAddress;\n\n  struct moveItem {\n    address mover; //\n    string title; //\n    string content; //\n    uint256 yes; //\n    uint256 no; //\n    uint movedBlockNumber; //      \n    bool isActive; // \n    bool isApproved; // \n  }\n\n  mapping(uint256 => moveItem) _moveItems; //\n  uint256 totalMove; //   \n\n  mapping(uint256 => mapping(address => bool)) voter;\n\n\n  event TokenPlaced(uint256 indexed tokenId,  uint256 cost);\n  event TokenUnplaced(uint256 indexed tokenId);\n  event TokenSold(uint256 indexed tokenId, address indexed newOwner);\n  event checkthis(address approvedaddress, address thisaddress);\n  event BalanceCheck(uint256 _balance);\n\n\n  constructor (address _erc20Token,address _erc721NFT, address _governance) {\n    totalMove = 0;\n    erc20Token = _erc20Token;\n    erc721NFT = _erc721NFT;\n    governance = _governance;\n  }\n\n  function move(string memory title, string memory content, address ERC721NFT, address ERC20TOKEN) external  {\n//     \n// NFT 5   \n//  2000KANV ()\n//     ?\n\n    require(IERC20(ERC20TOKEN).balanceOf(msg.sender) >= 2000, \"nope\");\n    require(IERC721(ERC721NFT).balanceOf(msg.sender) >= 5, \"not enough NFT\");\n    require(bytes(title).length > 0 && bytes(content).length > 0,\"nope3\");\n\n    IERC20(ERC20TOKEN).transferFrom(msg.sender, governance, 2000);\n    totalMove += 1;\n    _moveItems[totalMove] = (moveItem(msg.sender, title, content, 0, 0, block.number, true, false));\n      \n\n  }\n\n  function votes(uint256 index, uint256 voting, bool yesOrNo) external {\n// NFT 1  \n//  KANV  .\n//   NFT KANV    .\n//   \n//    (    KANV         )\n\n\n\n      require(_moveItems[index].isActive == true, \"Deactivated Item\");\n      require(voter[index][msg.sender] == false, \"You Voted\");\n\n      require(IERC20(erc20Token).balanceOf(msg.sender) >= voting, \"Exceed the number of votes : \");\n      require(yesOrNo == true || yesOrNo == false, \"Not a bool\");\n\n\n      voter[index][msg.sender] = true;\n\n      if (yesOrNo == true){\n          _moveItems[index].yes += voting;\n      } else {\n          _moveItems[index].no += voting;\n      }\n    }\n\n  function closeVotes(uint256 index) external {\n//   \n\n    moveItem memory item = _moveItems[index];\n    require(item.isActive == true,\"Deactivated item\");\n    require(item.movedBlockNumber + (0)<= block.number,\"not yet\");\n    uint256 turnout = PRBMathUD60x18.div((item.yes + item.no), (IERC20(erc20Token).totalSupply() - IERC20(erc20Token).balanceOf(governance)));\n    require(turnout >= 300000000000000000);\n\n    if (item.yes > item.no){\n        _moveItems[index].isActive = false;\n        _moveItems[index].isApproved = true;\n    }  else if (item.yes < item.no){\n        _moveItems[index].isActive = false;\n        _moveItems[index].isApproved = false;\n    } else if (item.yes == item.no){\n        _moveItems[index].movedBlockNumber += 3600*24; //   1 ?\n    }\n  }\n\n\n\n  function checkMove(uint256 index) public view returns (uint256, uint256){\n    return (_moveItems[index].yes, _moveItems[index].no);\n  }\n\n  function checkActive(uint256 index) public view returns (bool){\n    return (_moveItems[index].isActive == true);\n  }\n\n  function checkEnd(uint256 index) public view returns (bool){\n    return (_moveItems[index].movedBlockNumber + (3600 * 24 * 7)>= block.number);\n  }\n\n  function checkItem(uint256 index) public view returns (moveItem memory){\n    return _moveItems[index];\n  }\n}\n",
  "sourcePath": "/Users/string/truffle/kanv-gorvanance/contracts/gorvernance.sol",
  "compiler": {
    "name": "solc",
    "version": "0.8.0+commit.c7dfd78e.Emscripten.clang"
  },
  "schemaVersion": "3.4.7",
  "updatedAt": "2022-05-20T07:41:19.428Z",
  "networkType": "ethereum",
  "devdoc": {
    "kind": "dev",
    "methods": {},
    "version": 1
  },
  "userdoc": {
    "kind": "user",
    "methods": {},
    "version": 1
  }
}