{
  "contractName": "KANV_Gorvanance",
  "abi": [
    {
      "inputs": [
        {
          "internalType": "address",
          "name": "_erc20Token",
          "type": "address"
        },
        {
          "internalType": "address",
          "name": "_erc721NFT",
          "type": "address"
        },
        {
          "internalType": "address",
          "name": "_governance",
          "type": "address"
        }
      ],
      "stateMutability": "nonpayable",
      "type": "constructor"
    },
    {
      "anonymous": false,
      "inputs": [
        {
          "indexed": false,
          "internalType": "uint256",
          "name": "_balance",
          "type": "uint256"
        }
      ],
      "name": "BalanceCheck",
      "type": "event"
    },
    {
      "anonymous": false,
      "inputs": [
        {
          "indexed": false,
          "internalType": "address",
          "name": "a",
          "type": "address"
        },
        {
          "indexed": false,
          "internalType": "address",
          "name": "b",
          "type": "address"
        }
      ],
      "name": "ErrorCheck",
      "type": "event"
    },
    {
      "anonymous": false,
      "inputs": [
        {
          "indexed": true,
          "internalType": "uint256",
          "name": "tokenId",
          "type": "uint256"
        },
        {
          "indexed": false,
          "internalType": "uint256",
          "name": "cost",
          "type": "uint256"
        }
      ],
      "name": "TokenPlaced",
      "type": "event"
    },
    {
      "anonymous": false,
      "inputs": [
        {
          "indexed": true,
          "internalType": "uint256",
          "name": "tokenId",
          "type": "uint256"
        },
        {
          "indexed": true,
          "internalType": "address",
          "name": "newOwner",
          "type": "address"
        }
      ],
      "name": "TokenSold",
      "type": "event"
    },
    {
      "anonymous": false,
      "inputs": [
        {
          "indexed": true,
          "internalType": "uint256",
          "name": "tokenId",
          "type": "uint256"
        }
      ],
      "name": "TokenUnplaced",
      "type": "event"
    },
    {
      "anonymous": false,
      "inputs": [
        {
          "indexed": false,
          "internalType": "address",
          "name": "approvedaddress",
          "type": "address"
        },
        {
          "indexed": false,
          "internalType": "address",
          "name": "thisaddress",
          "type": "address"
        }
      ],
      "name": "checkthis",
      "type": "event"
    },
    {
      "inputs": [],
      "name": "erc20Token",
      "outputs": [
        {
          "internalType": "address",
          "name": "",
          "type": "address"
        }
      ],
      "stateMutability": "view",
      "type": "function",
      "constant": true
    },
    {
      "inputs": [],
      "name": "erc721NFT",
      "outputs": [
        {
          "internalType": "address",
          "name": "",
          "type": "address"
        }
      ],
      "stateMutability": "view",
      "type": "function",
      "constant": true
    },
    {
      "inputs": [],
      "name": "feeAmount",
      "outputs": [
        {
          "internalType": "uint256",
          "name": "",
          "type": "uint256"
        }
      ],
      "stateMutability": "view",
      "type": "function",
      "constant": true
    },
    {
      "inputs": [],
      "name": "governance",
      "outputs": [
        {
          "internalType": "address",
          "name": "",
          "type": "address"
        }
      ],
      "stateMutability": "view",
      "type": "function",
      "constant": true
    },
    {
      "inputs": [
        {
          "internalType": "string",
          "name": "title",
          "type": "string"
        },
        {
          "internalType": "string",
          "name": "content",
          "type": "string"
        },
        {
          "internalType": "uint256[]",
          "name": "tokenIds",
          "type": "uint256[]"
        },
        {
          "internalType": "address",
          "name": "ERC721NFT",
          "type": "address"
        },
        {
          "internalType": "address",
          "name": "ERC20TOKEN",
          "type": "address"
        }
      ],
      "name": "move",
      "outputs": [],
      "stateMutability": "nonpayable",
      "type": "function"
    },
    {
      "inputs": [
        {
          "internalType": "uint256",
          "name": "index",
          "type": "uint256"
        },
        {
          "internalType": "uint256",
          "name": "voting",
          "type": "uint256"
        },
        {
          "internalType": "uint256",
          "name": "voteSnapshot",
          "type": "uint256"
        },
        {
          "internalType": "bool",
          "name": "yesOrNo",
          "type": "bool"
        },
        {
          "internalType": "uint256",
          "name": "tokenid",
          "type": "uint256"
        },
        {
          "internalType": "address",
          "name": "ERC721NFT",
          "type": "address"
        },
        {
          "internalType": "address",
          "name": "ERC20TOKEN",
          "type": "address"
        }
      ],
      "name": "votes",
      "outputs": [],
      "stateMutability": "nonpayable",
      "type": "function"
    },
    {
      "inputs": [
        {
          "internalType": "uint256",
          "name": "index",
          "type": "uint256"
        },
        {
          "internalType": "address",
          "name": "ERC20TOKEN",
          "type": "address"
        },
        {
          "internalType": "address",
          "name": "ERC721NFT",
          "type": "address"
        }
      ],
      "name": "closeVotes",
      "outputs": [],
      "stateMutability": "nonpayable",
      "type": "function"
    },
    {
      "inputs": [
        {
          "internalType": "uint256",
          "name": "index",
          "type": "uint256"
        },
        {
          "internalType": "address",
          "name": "ERC20TOKEN",
          "type": "address"
        },
        {
          "internalType": "address",
          "name": "ERC721NFT",
          "type": "address"
        }
      ],
      "name": "revocation",
      "outputs": [],
      "stateMutability": "nonpayable",
      "type": "function"
    },
    {
      "inputs": [
        {
          "internalType": "uint256",
          "name": "index",
          "type": "uint256"
        }
      ],
      "name": "checkMove",
      "outputs": [
        {
          "internalType": "uint256",
          "name": "",
          "type": "uint256"
        },
        {
          "internalType": "uint256",
          "name": "",
          "type": "uint256"
        }
      ],
      "stateMutability": "view",
      "type": "function",
      "constant": true
    },
    {
      "inputs": [
        {
          "internalType": "uint256",
          "name": "index",
          "type": "uint256"
        }
      ],
      "name": "checkActive",
      "outputs": [
        {
          "internalType": "bool",
          "name": "",
          "type": "bool"
        }
      ],
      "stateMutability": "view",
      "type": "function",
      "constant": true
    },
    {
      "inputs": [
        {
          "internalType": "uint256",
          "name": "index",
          "type": "uint256"
        }
      ],
      "name": "checkEnd",
      "outputs": [
        {
          "internalType": "bool",
          "name": "",
          "type": "bool"
        }
      ],
      "stateMutability": "view",
      "type": "function",
      "constant": true
    },
    {
      "inputs": [
        {
          "internalType": "uint256",
          "name": "index",
          "type": "uint256"
        }
      ],
      "name": "checkItem",
      "outputs": [
        {
          "components": [
            {
              "internalType": "address",
              "name": "mover",
              "type": "address"
            },
            {
              "internalType": "uint256[]",
              "name": "holidingTokenIds",
              "type": "uint256[]"
            },
            {
              "internalType": "string",
              "name": "title",
              "type": "string"
            },
            {
              "internalType": "string",
              "name": "content",
              "type": "string"
            },
            {
              "internalType": "uint256",
              "name": "movedBlockNumber",
              "type": "uint256"
            },
            {
              "internalType": "bool",
              "name": "isActive",
              "type": "bool"
            },
            {
              "internalType": "bool",
              "name": "isApproved",
              "type": "bool"
            },
            {
              "internalType": "uint256",
              "name": "pros",
              "type": "uint256"
            },
            {
              "internalType": "uint256",
              "name": "cons",
              "type": "uint256"
            },
            {
              "internalType": "address[]",
              "name": "voterList",
              "type": "address[]"
            }
          ],
          "internalType": "struct KANV_Gorvanance.moveItem",
          "name": "",
          "type": "tuple"
        }
      ],
      "stateMutability": "view",
      "type": "function",
      "constant": true
    }
  ],
  "bytecode": "0x60806040523480156200001157600080fd5b5060405162003a6838038062003a68833981810160405281019062000037919062000121565b6001600781905550826000806101000a81548173ffffffffffffffffffffffffffffffffffffffff021916908373ffffffffffffffffffffffffffffffffffffffff16021790555081600160006101000a81548173ffffffffffffffffffffffffffffffffffffffff021916908373ffffffffffffffffffffffffffffffffffffffff16021790555080600360006101000a81548173ffffffffffffffffffffffffffffffffffffffff021916908373ffffffffffffffffffffffffffffffffffffffff160217905550505050620001c5565b6000815190506200011b81620001ab565b92915050565b6000806000606084860312156200013757600080fd5b600062000147868287016200010a565b93505060206200015a868287016200010a565b92505060406200016d868287016200010a565b9150509250925092565b600062000184826200018b565b9050919050565b600073ffffffffffffffffffffffffffffffffffffffff82169050919050565b620001b68162000177565b8114620001c257600080fd5b50565b61389380620001d56000396000f3fe608060405234801561001057600080fd5b50600436106100b45760003560e01c80638f73bfed116100715780638f73bfed1461017b578063949c5e7a146101ab578063a3da0261146101c7578063c64ca0ae146101f7578063d2f8768114610213578063e651a98914610231576100b4565b8063463f2ab6146100b95780635aa6e675146100e957806369e1540414610107578063856d1b8b1461012557806385b95e64146101415780638a13eea71461015d575b600080fd5b6100d360048036038101906100ce9190612b4f565b610262565b6040516100e09190613447565b60405180910390f35b6100f1610544565b6040516100fe91906131f1565b60405180910390f35b61010f61056a565b60405161011c9190613469565b60405180910390f35b61013f600480360381019061013a9190612a90565b610570565b005b61015b60048036038101906101569190612bf0565b610bcc565b005b610165611142565b60405161017291906131f1565b60405180910390f35b61019560048036038101906101909190612b4f565b611166565b6040516101a291906132cc565b60405180910390f35b6101c560048036038101906101c09190612ba1565b611197565b005b6101e160048036038101906101dc9190612b4f565b6121a9565b6040516101ee91906132cc565b60405180910390f35b610211600480360381019061020c9190612ba1565b6121dd565b005b61021b61267b565b60405161022891906131f1565b60405180910390f35b61024b60048036038101906102469190612b4f565b6126a1565b604051610259929190613484565b60405180910390f35b61026a6126db565b60066000838152602001908152602001600020604051806101400160405290816000820160009054906101000a900473ffffffffffffffffffffffffffffffffffffffff1673ffffffffffffffffffffffffffffffffffffffff1673ffffffffffffffffffffffffffffffffffffffff1681526020016001820180548060200260200160405190810160405280929190818152602001828054801561032e57602002820191906000526020600020905b81548152602001906001019080831161031a575b50505050508152602001600282018054610347906136ff565b80601f0160208091040260200160405190810160405280929190818152602001828054610373906136ff565b80156103c05780601f10610395576101008083540402835291602001916103c0565b820191906000526020600020905b8154815290600101906020018083116103a357829003601f168201915b505050505081526020016003820180546103d9906136ff565b80601f0160208091040260200160405190810160405280929190818152602001828054610405906136ff565b80156104525780601f1061042757610100808354040283529160200191610452565b820191906000526020600020905b81548152906001019060200180831161043557829003601f168201915b50505050508152602001600482015481526020016005820160009054906101000a900460ff161515151581526020016005820160019054906101000a900460ff1615151515815260200160068201548152602001600782015481526020016008820180548060200260200160405190810160405280929190818152602001828054801561053457602002820191906000526020600020905b8160009054906101000a900473ffffffffffffffffffffffffffffffffffffffff1673ffffffffffffffffffffffffffffffffffffffff16815260200190600101908083116104ea575b5050505050815250509050919050565b600360009054906101000a900473ffffffffffffffffffffffffffffffffffffffff1681565b60025481565b6107d08173ffffffffffffffffffffffffffffffffffffffff166370a08231336040518263ffffffff1660e01b81526004016105ac91906131f1565b60206040518083038186803b1580156105c457600080fd5b505afa1580156105d8573d6000803e3d6000fd5b505050506040513d601f19601f820116820180604052508101906105fc9190612b78565b101561063d576040517f08c379a0000000000000000000000000000000000000000000000000000000008152600401610634906133e7565b60405180910390fd5b60058273ffffffffffffffffffffffffffffffffffffffff166370a08231336040518263ffffffff1660e01b815260040161067891906131f1565b60206040518083038186803b15801561069057600080fd5b505afa1580156106a4573d6000803e3d6000fd5b505050506040513d601f19601f820116820180604052508101906106c89190612b78565b1015610709576040517f08c379a000000000000000000000000000000000000000000000000000000000815260040161070090613327565b60405180910390fd5b6000855111801561071b575060008451115b61075a576040517f08c379a0000000000000000000000000000000000000000000000000000000008152600401610751906133a7565b60405180910390fd5b60005b60058110156108af573373ffffffffffffffffffffffffffffffffffffffff168373ffffffffffffffffffffffffffffffffffffffff16636352211e8684815181106107d2577f4e487b7100000000000000000000000000000000000000000000000000000000600052603260045260246000fd5b60200260200101516040518263ffffffff1660e01b81526004016107f69190613469565b60206040518083038186803b15801561080e57600080fd5b505afa158015610822573d6000803e3d6000fd5b505050506040513d601f19601f820116820180604052508101906108469190612a3e565b73ffffffffffffffffffffffffffffffffffffffff161461089c576040517f08c379a0000000000000000000000000000000000000000000000000000000008152600401610893906132e7565b60405180910390fd5b80806108a790613731565b91505061075d565b5060005b600581101561097e578273ffffffffffffffffffffffffffffffffffffffff166323b872dd3330878581518110610913577f4e487b7100000000000000000000000000000000000000000000000000000000600052603260045260246000fd5b60200260200101516040518463ffffffff1660e01b81526004016109399392919061326c565b600060405180830381600087803b15801561095357600080fd5b505af1158015610967573d6000803e3d6000fd5b50505050808061097690613731565b9150506108b3565b508073ffffffffffffffffffffffffffffffffffffffff166323b872dd33306107d06040518463ffffffff1660e01b81526004016109be93929190613235565b602060405180830381600087803b1580156109d857600080fd5b505af11580156109ec573d6000803e3d6000fd5b505050506040513d601f19601f82011682018060405250810190610a109190612a67565b5060606040518061014001604052803373ffffffffffffffffffffffffffffffffffffffff16815260200185815260200187815260200186815260200143815260200160011515815260200160001515815260200160008152602001600081526020018281525060066000600754815260200190815260200160002060008201518160000160006101000a81548173ffffffffffffffffffffffffffffffffffffffff021916908373ffffffffffffffffffffffffffffffffffffffff1602179055506020820151816001019080519060200190610aef929190612748565b506040820151816002019080519060200190610b0c929190612795565b506060820151816003019080519060200190610b29929190612795565b506080820151816004015560a08201518160050160006101000a81548160ff02191690831515021790555060c08201518160050160016101000a81548160ff02191690831515021790555060e082015181600601556101008201518160070155610120820151816008019080519060200190610ba692919061281b565b50905050600160076000828254610bbd91906135d9565b92505081905550505050505050565b60006008600089815260200190815260200160002060003373ffffffffffffffffffffffffffffffffffffffff1673ffffffffffffffffffffffffffffffffffffffff1681526020019081526020016000206002015414610c62576040517f08c379a0000000000000000000000000000000000000000000000000000000008152600401610c5990613347565b60405180910390fd5b600115156006600089815260200190815260200160002060050160009054906101000a900460ff16151514610ccc576040517f08c379a0000000000000000000000000000000000000000000000000000000008152600401610cc390613427565b60405180910390fd5b7f0a1b379baecb39b671a92c50c0c9f4e1305305326f997602ff8b023442af1a248273ffffffffffffffffffffffffffffffffffffffff16636352211e856040518263ffffffff1660e01b8152600401610d269190613469565b60206040518083038186803b158015610d3e57600080fd5b505afa158015610d52573d6000803e3d6000fd5b505050506040513d601f19601f82011682018060405250810190610d769190612a3e565b33604051610d8592919061320c565b60405180910390a184861115610dd0576040517f08c379a0000000000000000000000000000000000000000000000000000000008152600401610dc790613367565b60405180910390fd5b8073ffffffffffffffffffffffffffffffffffffffff1663a9059cbb30886040518363ffffffff1660e01b8152600401610e0b9291906132a3565b602060405180830381600087803b158015610e2557600080fd5b505af1158015610e39573d6000803e3d6000fd5b505050506040513d601f19601f82011682018060405250810190610e5d9190612a67565b508173ffffffffffffffffffffffffffffffffffffffff166323b872dd3330866040518463ffffffff1660e01b8152600401610e9b9392919061326c565b600060405180830381600087803b158015610eb557600080fd5b505af1158015610ec9573d6000803e3d6000fd5b50505050826008600089815260200190815260200160002060003373ffffffffffffffffffffffffffffffffffffffff1673ffffffffffffffffffffffffffffffffffffffff16815260200190815260200160002060000181905550856008600089815260200190815260200160002060003373ffffffffffffffffffffffffffffffffffffffff1673ffffffffffffffffffffffffffffffffffffffff1681526020019081526020016000206002018190555060066000888152602001908152602001600020600801339080600181540180825580915050600190039060005260206000200160009091909190916101000a81548173ffffffffffffffffffffffffffffffffffffffff021916908373ffffffffffffffffffffffffffffffffffffffff16021790555060011515841515141561109f578560066000898152602001908152602001600020600601600082825461102791906135d9565b9250508190555060016008600089815260200190815260200160002060003373ffffffffffffffffffffffffffffffffffffffff1673ffffffffffffffffffffffffffffffffffffffff16815260200190815260200160002060010160006101000a81548160ff021916908315150217905550611139565b856006600089815260200190815260200160002060070160008282546110c591906135d9565b9250508190555060006008600089815260200190815260200160002060003373ffffffffffffffffffffffffffffffffffffffff1673ffffffffffffffffffffffffffffffffffffffff16815260200190815260200160002060010160006101000a81548160ff0219169083151502179055505b50505050505050565b60008054906101000a900473ffffffffffffffffffffffffffffffffffffffff1681565b60004362093a80600660008581526020019081526020016000206004015461118e91906135d9565b10159050919050565b600060066000858152602001908152602001600020604051806101400160405290816000820160009054906101000a900473ffffffffffffffffffffffffffffffffffffffff1673ffffffffffffffffffffffffffffffffffffffff1673ffffffffffffffffffffffffffffffffffffffff1681526020016001820180548060200260200160405190810160405280929190818152602001828054801561125d57602002820191906000526020600020905b815481526020019060010190808311611249575b50505050508152602001600282018054611276906136ff565b80601f01602080910402602001604051908101604052809291908181526020018280546112a2906136ff565b80156112ef5780601f106112c4576101008083540402835291602001916112ef565b820191906000526020600020905b8154815290600101906020018083116112d257829003601f168201915b50505050508152602001600382018054611308906136ff565b80601f0160208091040260200160405190810160405280929190818152602001828054611334906136ff565b80156113815780601f1061135657610100808354040283529160200191611381565b820191906000526020600020905b81548152906001019060200180831161136457829003601f168201915b50505050508152602001600482015481526020016005820160009054906101000a900460ff161515151581526020016005820160019054906101000a900460ff1615151515815260200160068201548152602001600782015481526020016008820180548060200260200160405190810160405280929190818152602001828054801561146357602002820191906000526020600020905b8160009054906101000a900473ffffffffffffffffffffffffffffffffffffffff1673ffffffffffffffffffffffffffffffffffffffff1681526020019060010190808311611419575b5050505050815250509050600115158160a001511515146114b9576040517f08c379a00000000000000000000000000000000000000000000000000000000081526004016114b0906133c7565b60405180910390fd5b43600082608001516114cb91906135d9565b111561150c576040517f08c379a000000000000000000000000000000000000000000000000000000000815260040161150390613407565b60405180910390fd5b60006001905060001515811515141561190e5760005b60066000878152602001908152602001600020600801805490508110156119085760006006600088815260200190815260200160002060050160006101000a81548160ff0219169083151502179055508473ffffffffffffffffffffffffffffffffffffffff1663a9059cbb6006600089815260200190815260200160002060080183815481106115dc577f4e487b7100000000000000000000000000000000000000000000000000000000600052603260045260246000fd5b9060005260206000200160009054906101000a900473ffffffffffffffffffffffffffffffffffffffff16600860008a81526020019081526020016000206000600660008c8152602001908152602001600020600801868154811061166a577f4e487b7100000000000000000000000000000000000000000000000000000000600052603260045260246000fd5b9060005260206000200160009054906101000a900473ffffffffffffffffffffffffffffffffffffffff1673ffffffffffffffffffffffffffffffffffffffff1673ffffffffffffffffffffffffffffffffffffffff168152602001908152602001600020600201546040518363ffffffff1660e01b81526004016116f09291906132a3565b602060405180830381600087803b15801561170a57600080fd5b505af115801561171e573d6000803e3d6000fd5b505050506040513d601f19601f820116820180604052508101906117429190612a67565b508373ffffffffffffffffffffffffffffffffffffffff166323b872dd30600660008a815260200190815260200160002060080184815481106117ae577f4e487b7100000000000000000000000000000000000000000000000000000000600052603260045260246000fd5b9060005260206000200160009054906101000a900473ffffffffffffffffffffffffffffffffffffffff16600860008b81526020019081526020016000206000600660008d8152602001908152602001600020600801878154811061183c577f4e487b7100000000000000000000000000000000000000000000000000000000600052603260045260246000fd5b9060005260206000200160009054906101000a900473ffffffffffffffffffffffffffffffffffffffff1673ffffffffffffffffffffffffffffffffffffffff1673ffffffffffffffffffffffffffffffffffffffff168152602001908152602001600020600001546040518463ffffffff1660e01b81526004016118c39392919061326c565b600060405180830381600087803b1580156118dd57600080fd5b505af11580156118f1573d6000803e3d6000fd5b50505050808061190090613731565b915050611522565b506121a2565b6001151581151514801561192a57508161010001518260e00151115b15611d4d5760006006600087815260200190815260200160002060050160006101000a81548160ff02191690831515021790555060016006600087815260200190815260200160002060050160016101000a81548160ff02191690831515021790555060005b6006600087815260200190815260200160002060080180549050811015611d47578473ffffffffffffffffffffffffffffffffffffffff1663a9059cbb600660008981526020019081526020016000206008018381548110611a1b577f4e487b7100000000000000000000000000000000000000000000000000000000600052603260045260246000fd5b9060005260206000200160009054906101000a900473ffffffffffffffffffffffffffffffffffffffff16600860008a81526020019081526020016000206000600660008c81526020019081526020016000206008018681548110611aa9577f4e487b7100000000000000000000000000000000000000000000000000000000600052603260045260246000fd5b9060005260206000200160009054906101000a900473ffffffffffffffffffffffffffffffffffffffff1673ffffffffffffffffffffffffffffffffffffffff1673ffffffffffffffffffffffffffffffffffffffff168152602001908152602001600020600201546040518363ffffffff1660e01b8152600401611b2f9291906132a3565b602060405180830381600087803b158015611b4957600080fd5b505af1158015611b5d573d6000803e3d6000fd5b505050506040513d601f19601f82011682018060405250810190611b819190612a67565b508373ffffffffffffffffffffffffffffffffffffffff166323b872dd30600660008a81526020019081526020016000206008018481548110611bed577f4e487b7100000000000000000000000000000000000000000000000000000000600052603260045260246000fd5b9060005260206000200160009054906101000a900473ffffffffffffffffffffffffffffffffffffffff16600860008b81526020019081526020016000206000600660008d81526020019081526020016000206008018781548110611c7b577f4e487b7100000000000000000000000000000000000000000000000000000000600052603260045260246000fd5b9060005260206000200160009054906101000a900473ffffffffffffffffffffffffffffffffffffffff1673ffffffffffffffffffffffffffffffffffffffff1673ffffffffffffffffffffffffffffffffffffffff168152602001908152602001600020600001546040518463ffffffff1660e01b8152600401611d029392919061326c565b600060405180830381600087803b158015611d1c57600080fd5b505af1158015611d30573d6000803e3d6000fd5b505050508080611d3f90613731565b915050611990565b506121a1565b8161010001518260e00151101561214d5760006006600087815260200190815260200160002060050160006101000a81548160ff02191690831515021790555060005b6006600087815260200190815260200160002060080180549050811015612147578473ffffffffffffffffffffffffffffffffffffffff1663a9059cbb600660008981526020019081526020016000206008018381548110611e1b577f4e487b7100000000000000000000000000000000000000000000000000000000600052603260045260246000fd5b9060005260206000200160009054906101000a900473ffffffffffffffffffffffffffffffffffffffff16600860008a81526020019081526020016000206000600660008c81526020019081526020016000206008018681548110611ea9577f4e487b7100000000000000000000000000000000000000000000000000000000600052603260045260246000fd5b9060005260206000200160009054906101000a900473ffffffffffffffffffffffffffffffffffffffff1673ffffffffffffffffffffffffffffffffffffffff1673ffffffffffffffffffffffffffffffffffffffff168152602001908152602001600020600201546040518363ffffffff1660e01b8152600401611f2f9291906132a3565b602060405180830381600087803b158015611f4957600080fd5b505af1158015611f5d573d6000803e3d6000fd5b505050506040513d601f19601f82011682018060405250810190611f819190612a67565b508373ffffffffffffffffffffffffffffffffffffffff166323b872dd30600660008a81526020019081526020016000206008018481548110611fed577f4e487b7100000000000000000000000000000000000000000000000000000000600052603260045260246000fd5b9060005260206000200160009054906101000a900473ffffffffffffffffffffffffffffffffffffffff16600860008b81526020019081526020016000206000600660008d8152602001908152602001600020600801878154811061207b577f4e487b7100000000000000000000000000000000000000000000000000000000600052603260045260246000fd5b9060005260206000200160009054906101000a900473ffffffffffffffffffffffffffffffffffffffff1673ffffffffffffffffffffffffffffffffffffffff1673ffffffffffffffffffffffffffffffffffffffff168152602001908152602001600020600001546040518463ffffffff1660e01b81526004016121029392919061326c565b600060405180830381600087803b15801561211c57600080fd5b505af1158015612130573d6000803e3d6000fd5b50505050808061213f90613731565b915050611d90565b506121a0565b6001151581151514801561216957508161010001518260e00151145b1561219f576201518060066000878152602001908152602001600020600401600082825461219791906135d9565b925050819055505b5b5b5b5050505050565b6000600115156006600084815260200190815260200160002060050160009054906101000a900460ff161515149050919050565b436000600660008681526020019081526020016000206004015461220191906135d9565b1015612242576040517f08c379a000000000000000000000000000000000000000000000000000000000815260040161223990613387565b60405180910390fd5b600115156006600085815260200190815260200160002060050160009054906101000a900460ff161515146122ac576040517f08c379a00000000000000000000000000000000000000000000000000000000081526004016122a390613307565b60405180910390fd5b8173ffffffffffffffffffffffffffffffffffffffff166323b872dd30336008600088815260200190815260200160002060003373ffffffffffffffffffffffffffffffffffffffff1673ffffffffffffffffffffffffffffffffffffffff168152602001908152602001600020600201546040518463ffffffff1660e01b815260040161233c9392919061326c565b602060405180830381600087803b15801561235657600080fd5b505af115801561236a573d6000803e3d6000fd5b505050506040513d601f19601f8201168201806040525081019061238e9190612a67565b508073ffffffffffffffffffffffffffffffffffffffff166323b872dd30336008600088815260200190815260200160002060003373ffffffffffffffffffffffffffffffffffffffff1673ffffffffffffffffffffffffffffffffffffffff168152602001908152602001600020600001546040518463ffffffff1660e01b815260040161241f9392919061326c565b600060405180830381600087803b15801561243957600080fd5b505af115801561244d573d6000803e3d6000fd5b50505050600115156008600085815260200190815260200160002060003373ffffffffffffffffffffffffffffffffffffffff1673ffffffffffffffffffffffffffffffffffffffff16815260200190815260200160002060010160009054906101000a900460ff1615151415612543576008600084815260200190815260200160002060003373ffffffffffffffffffffffffffffffffffffffff1673ffffffffffffffffffffffffffffffffffffffff16815260200190815260200160002060020154600660008581526020019081526020016000206006016000828254612537919061362f565b925050819055506125c4565b6008600084815260200190815260200160002060003373ffffffffffffffffffffffffffffffffffffffff1673ffffffffffffffffffffffffffffffffffffffff168152602001908152602001600020600201546006600085815260200190815260200160002060070160008282546125bc919061362f565b925050819055505b60006008600085815260200190815260200160002060003373ffffffffffffffffffffffffffffffffffffffff1673ffffffffffffffffffffffffffffffffffffffff1681526020019081526020016000206002018190555060006008600085815260200190815260200160002060003373ffffffffffffffffffffffffffffffffffffffff1673ffffffffffffffffffffffffffffffffffffffff16815260200190815260200160002060000181905550505050565b600160009054906101000a900473ffffffffffffffffffffffffffffffffffffffff1681565b6000806006600084815260200190815260200160002060060154600660008581526020019081526020016000206007015491509150915091565b604051806101400160405280600073ffffffffffffffffffffffffffffffffffffffff168152602001606081526020016060815260200160608152602001600081526020016000151581526020016000151581526020016000815260200160008152602001606081525090565b828054828255906000526020600020908101928215612784579160200282015b82811115612783578251825591602001919060010190612768565b5b50905061279191906128a5565b5090565b8280546127a1906136ff565b90600052602060002090601f0160209004810192826127c3576000855561280a565b82601f106127dc57805160ff191683800117855561280a565b8280016001018555821561280a579182015b828111156128095782518255916020019190600101906127ee565b5b50905061281791906128a5565b5090565b828054828255906000526020600020908101928215612894579160200282015b828111156128935782518260006101000a81548173ffffffffffffffffffffffffffffffffffffffff021916908373ffffffffffffffffffffffffffffffffffffffff1602179055509160200191906001019061283b565b5b5090506128a191906128a5565b5090565b5b808211156128be5760008160009055506001016128a6565b5090565b60006128d56128d0846134de565b6134ad565b905080838252602082019050828560208602820111156128f457600080fd5b60005b85811015612924578161290a8882612a14565b8452602084019350602083019250506001810190506128f7565b5050509392505050565b600061294161293c8461350a565b6134ad565b90508281526020810184848401111561295957600080fd5b6129648482856136bd565b509392505050565b60008135905061297b81613818565b92915050565b60008151905061299081613818565b92915050565b600082601f8301126129a757600080fd5b81356129b78482602086016128c2565b91505092915050565b6000813590506129cf8161382f565b92915050565b6000815190506129e48161382f565b92915050565b600082601f8301126129fb57600080fd5b8135612a0b84826020860161292e565b91505092915050565b600081359050612a2381613846565b92915050565b600081519050612a3881613846565b92915050565b600060208284031215612a5057600080fd5b6000612a5e84828501612981565b91505092915050565b600060208284031215612a7957600080fd5b6000612a87848285016129d5565b91505092915050565b600080600080600060a08688031215612aa857600080fd5b600086013567ffffffffffffffff811115612ac257600080fd5b612ace888289016129ea565b955050602086013567ffffffffffffffff811115612aeb57600080fd5b612af7888289016129ea565b945050604086013567ffffffffffffffff811115612b1457600080fd5b612b2088828901612996565b9350506060612b318882890161296c565b9250506080612b428882890161296c565b9150509295509295909350565b600060208284031215612b6157600080fd5b6000612b6f84828501612a14565b91505092915050565b600060208284031215612b8a57600080fd5b6000612b9884828501612a29565b91505092915050565b600080600060608486031215612bb657600080fd5b6000612bc486828701612a14565b9350506020612bd58682870161296c565b9250506040612be68682870161296c565b9150509250925092565b600080600080600080600060e0888a031215612c0b57600080fd5b6000612c198a828b01612a14565b9750506020612c2a8a828b01612a14565b9650506040612c3b8a828b01612a14565b9550506060612c4c8a828b016129c0565b9450506080612c5d8a828b01612a14565b93505060a0612c6e8a828b0161296c565b92505060c0612c7f8a828b0161296c565b91505092959891949750929550565b6000612c9a8383612cbe565b60208301905092915050565b6000612cb283836131d3565b60208301905092915050565b612cc781613663565b82525050565b612cd681613663565b82525050565b6000612ce78261355a565b612cf18185613595565b9350612cfc8361353a565b8060005b83811015612d2d578151612d148882612c8e565b9750612d1f8361357b565b925050600181019050612d00565b5085935050505092915050565b6000612d4582613565565b612d4f81856135a6565b9350612d5a8361354a565b8060005b83811015612d8b578151612d728882612ca6565b9750612d7d83613588565b925050600181019050612d5e565b5085935050505092915050565b612da181613675565b82525050565b612db081613675565b82525050565b612dbf816136ab565b82525050565b6000612dd082613570565b612dda81856135b7565b9350612dea8185602086016136cc565b612df381613807565b840191505092915050565b6000612e0b6014836135c8565b91507f556e7661696c656420546f6b656e204f776e65720000000000000000000000006000830152602082019050919050565b6000612e4b600f836135c8565b91507f4e6f7420416374697665204d6f766500000000000000000000000000000000006000830152602082019050919050565b6000612e8b600e836135c8565b91507f6e6f7420656e6f756768204e46540000000000000000000000000000000000006000830152602082019050919050565b6000612ecb6009836135c8565b91507f596f7520566f74656400000000000000000000000000000000000000000000006000830152602082019050919050565b6000612f0b6012836135c8565b91507f4d6f7265207468616e20736e617073686f7400000000000000000000000000006000830152602082019050919050565b6000612f4b6012836135c8565b91507f54696d65206c696d6974207265616368656400000000000000000000000000006000830152602082019050919050565b6000612f8b6024836135c8565b91507f546865207469746c6520616e6420636f6e74656e74206d75737420626520666960008301527f6c6c6564000000000000000000000000000000000000000000000000000000006020830152604082019050919050565b6000612ff16010836135c8565b91507f4465616374697661746564206974656d000000000000000000000000000000006000830152602082019050919050565b6000613031600f836135c8565b91507f6e6f7420656e6f756768204b414e5600000000000000000000000000000000006000830152602082019050919050565b60006130716007836135c8565b91507f6e6f7420796574000000000000000000000000000000000000000000000000006000830152602082019050919050565b60006130b16010836135c8565b91507f4465616374697661746564204974656d000000000000000000000000000000006000830152602082019050919050565b6000610140830160008301516130fd6000860182612cbe565b50602083015184820360208601526131158282612d3a565b9150506040830151848203604086015261312f8282612dc5565b915050606083015184820360608601526131498282612dc5565b915050608083015161315e60808601826131d3565b5060a083015161317160a0860182612d98565b5060c083015161318460c0860182612d98565b5060e083015161319760e08601826131d3565b506101008301516131ac6101008601826131d3565b506101208301518482036101208601526131c68282612cdc565b9150508091505092915050565b6131dc816136a1565b82525050565b6131eb816136a1565b82525050565b60006020820190506132066000830184612ccd565b92915050565b60006040820190506132216000830185612ccd565b61322e6020830184612ccd565b9392505050565b600060608201905061324a6000830186612ccd565b6132576020830185612ccd565b6132646040830184612db6565b949350505050565b60006060820190506132816000830186612ccd565b61328e6020830185612ccd565b61329b60408301846131e2565b949350505050565b60006040820190506132b86000830185612ccd565b6132c560208301846131e2565b9392505050565b60006020820190506132e16000830184612da7565b92915050565b6000602082019050818103600083015261330081612dfe565b9050919050565b6000602082019050818103600083015261332081612e3e565b9050919050565b6000602082019050818103600083015261334081612e7e565b9050919050565b6000602082019050818103600083015261336081612ebe565b9050919050565b6000602082019050818103600083015261338081612efe565b9050919050565b600060208201905081810360008301526133a081612f3e565b9050919050565b600060208201905081810360008301526133c081612f7e565b9050919050565b600060208201905081810360008301526133e081612fe4565b9050919050565b6000602082019050818103600083015261340081613024565b9050919050565b6000602082019050818103600083015261342081613064565b9050919050565b60006020820190508181036000830152613440816130a4565b9050919050565b6000602082019050818103600083015261346181846130e4565b905092915050565b600060208201905061347e60008301846131e2565b92915050565b600060408201905061349960008301856131e2565b6134a660208301846131e2565b9392505050565b6000604051905081810181811067ffffffffffffffff821117156134d4576134d36137d8565b5b8060405250919050565b600067ffffffffffffffff8211156134f9576134f86137d8565b5b602082029050602081019050919050565b600067ffffffffffffffff821115613525576135246137d8565b5b601f19601f8301169050602081019050919050565b6000819050602082019050919050565b6000819050602082019050919050565b600081519050919050565b600081519050919050565b600081519050919050565b6000602082019050919050565b6000602082019050919050565b600082825260208201905092915050565b600082825260208201905092915050565b600082825260208201905092915050565b600082825260208201905092915050565b60006135e4826136a1565b91506135ef836136a1565b9250827fffffffffffffffffffffffffffffffffffffffffffffffffffffffffffffffff038211156136245761362361377a565b5b828201905092915050565b600061363a826136a1565b9150613645836136a1565b9250828210156136585761365761377a565b5b828203905092915050565b600061366e82613681565b9050919050565b60008115159050919050565b600073ffffffffffffffffffffffffffffffffffffffff82169050919050565b6000819050919050565b60006136b6826136a1565b9050919050565b82818337600083830152505050565b60005b838110156136ea5780820151818401526020810190506136cf565b838111156136f9576000848401525b50505050565b6000600282049050600182168061371757607f821691505b6020821081141561372b5761372a6137a9565b5b50919050565b600061373c826136a1565b91507fffffffffffffffffffffffffffffffffffffffffffffffffffffffffffffffff82141561376f5761376e61377a565b5b600182019050919050565b7f4e487b7100000000000000000000000000000000000000000000000000000000600052601160045260246000fd5b7f4e487b7100000000000000000000000000000000000000000000000000000000600052602260045260246000fd5b7f4e487b7100000000000000000000000000000000000000000000000000000000600052604160045260246000fd5b6000601f19601f8301169050919050565b61382181613663565b811461382c57600080fd5b50565b61383881613675565b811461384357600080fd5b50565b61384f816136a1565b811461385a57600080fd5b5056fea26469706673582212201f453425b5ae7faf9f5b106fd8619c9113218044dbaa3eaecad6ed00a796b1de64736f6c63430008000033",
  "immutableReferences": {},
  "source": "// SPDX-License-Identifier: MIT\npragma solidity >=0.4.22 <0.9.0;\nimport \"./token/IERC721.sol\";\nimport \"./token/IERC20.sol\";\nimport \"./library/PRBMathUD60x18.sol\";\n\nimport \"./access/Ownable.sol\";\nimport \"./gsn/Context.sol\";\nimport \"./address/Address.sol\";\nimport \"./strings/Strings.sol\";\n\ncontract KANV_Gorvanance {\n\n  address public erc20Token;\n  address public erc721NFT;\n  uint256 public feeAmount;\n\n  address  public governance;\n  address tokenAddress;\n  address NFTAddress;\n\n  struct moveItem {\n    address mover; //\n    uint256[] holidingTokenIds;\n\n    string title; //\n    string content; //\n    uint movedBlockNumber; //      \n    bool isActive; // \n    bool isApproved; // \n\n    uint256 pros; //\n    uint256 cons; //\n    address[] voterList;\n  }\n\n  mapping(uint256 => moveItem) moveItems; //\n  uint256 totalMove; //   \n\n  struct voterInfo {\n    uint256 holdingTokenId;\n    bool prosAndCons;\n    uint256 voting; // == holdingTokenAmount\n  }\n\n  mapping(uint256 => mapping(address => voterInfo)) voter;\n\n\n  event TokenPlaced(uint256 indexed tokenId,  uint256 cost);\n  event TokenUnplaced(uint256 indexed tokenId);\n  event TokenSold(uint256 indexed tokenId, address indexed newOwner);\n  event checkthis(address approvedaddress, address thisaddress);\n  event BalanceCheck(uint256 _balance);\n\n  event ErrorCheck(address a, address b);\n  constructor (address _erc20Token,address _erc721NFT, address _governance) {\n    totalMove = 1;\n    erc20Token = _erc20Token;\n    erc721NFT = _erc721NFT;\n    governance = _governance;\n  }\n\n  function move(string memory title, string memory content, uint256[] memory tokenIds, address ERC721NFT, address ERC20TOKEN) external  {\n    // require(ERC20TOKEN == erc20Token,'a');\n    // require(ERC721NFT == erc721NFT,'b');\n    \n    //      : (1) 1.b, (2) 1.c, (3) 2.a, (4) 4\n    //   : (1) 1.b - NFT 5 \n    require(IERC20(ERC20TOKEN).balanceOf(msg.sender) >= 2000, \"not enough KANV\");\n    require(IERC721(ERC721NFT).balanceOf(msg.sender) >= 5, \"not enough NFT\");\n  \n    //    :    (     )\n    require(bytes(title).length > 0 && bytes(content).length > 0,\"The title and content must be filled\");\n\n\n    //    : (2) 1.c, (4) 4 - NFT \n    for(uint i=0; i<5; i++){\n        require(IERC721(ERC721NFT).ownerOf(tokenIds[i]) == msg.sender,\"Unvailed Token Owner\");  \n    }\n    for(uint i=0; i<5; i++){\n        IERC721(ERC721NFT).transferFrom(msg.sender, address(this), tokenIds[i]);\n    }\n\n    // (3) 2.a -  2000KANV (  ,  )\n    IERC20(ERC20TOKEN).transferFrom(msg.sender, address(this), 2000);\n    //      \n    //   \n    address[] memory blankAddressList;\n\n\n    moveItems[totalMove] = (moveItem(msg.sender, tokenIds, title, content, block.number, true, false, 0, 0, blankAddressList));\n    totalMove += 1;\n  }\n\n  function votes(uint256 index, uint256 voting, uint256 voteSnapshot, bool yesOrNo, uint256 tokenid, address ERC721NFT, address ERC20TOKEN) external {\n    // require(ERC20TOKEN == erc20Token);\n    // require(ERC721NFT == erc721NFT);\n    \n    require(voter[index][msg.sender].voting == 0, 'You Voted');\n\n      //    \n      //    \n      require(moveItems[index].isActive == true, \"Deactivated Item\");\n      //         ?\n      // require(voter[index][msg.sender] == false, \"You Voted\");\n\n      //  : (1) 1.a, (2) 1.c, (3) 3, (4) 4, (5) 5,\n      // (1) 1.a - NFT 1  \n      // require(IERC721(ERC721NFT).balanceOf(msg.sender) >= 1, \"not enough NFT\");\n      \n      emit ErrorCheck(IERC721(ERC721NFT).ownerOf(tokenid), msg.sender);\n      \n      // require(IERC721(ERC721NFT).ownerOf(tokenid) == msg.sender,\"Unvailed Token Owner\");  \n\n      // (3) 3 -  KANV \n      // require(IERC20(ERC20TOKEN).balanceOf(msg.sender) >= voting, \"Exceed the number of votes\");\n      // 4.a  \n      require(voting <= voteSnapshot, 'More than snapshot');\n \n\n      // (2) 1.c -   NFT KANV    .\n      // (4) 4 -    NFT KAV \n      IERC20(ERC20TOKEN).transfer(address(this), voting);\n      IERC721(ERC721NFT).transferFrom(msg.sender, address(this), tokenid);\n\n      // (5) 5       \n      //    \n      voter[index][msg.sender].holdingTokenId = tokenid;\n      voter[index][msg.sender].voting = voting;\n      moveItems[index].voterList.push(msg.sender);\n\n      if (yesOrNo == true){\n          moveItems[index].pros += voting;\n          voter[index][msg.sender].prosAndCons = true;\n\n      } else {\n          moveItems[index].cons += voting;\n          voter[index][msg.sender].prosAndCons = false;\n\n      }\n    }\n\n  function closeVotes(uint256 index, address ERC20TOKEN, address ERC721NFT) external {\n    // require(ERC20TOKEN == erc20Token);\n    // require(ERC721NFT == erc721NFT);\n    //  : (1) 5, (2) 7.a,\n      //    (    KANV         )\n    moveItem memory item = moveItems[index];\n    require(item.isActive == true,\"Deactivated item\");\n    //  1 1,      \n    require(item.movedBlockNumber + (0)<= block.number,\"not yet\");\n\n    // (2) 7.a :      ,       \n    // bool turnout = PRBMathUD60x18.div(\n    //   (item.pros + item.cons), \n    //   (IERC20(erc20Token).totalSupply() - IERC20(erc20Token).balanceOf(governance))\n    //   ) >= 300000000000000000;\n    bool turnout = true; // test\n    //(1) 5       \n    if (turnout == false){\n      //       \n        for(uint i=0; i < moveItems[index].voterList.length; i++){\n          moveItems[index].isActive = false;\n\n          IERC20(ERC20TOKEN).transfer(moveItems[index].voterList[i], voter[index][moveItems[index].voterList[i]].voting);\n          IERC721(ERC721NFT).transferFrom(address(this), moveItems[index].voterList[i], voter[index][moveItems[index].voterList[i]].holdingTokenId);\n        }\n    } else if (turnout == true && item.pros > item.cons){\n      // ,   ,    \n        moveItems[index].isActive = false;\n        moveItems[index].isApproved = true;\n\n        for(uint i=0; i < moveItems[index].voterList.length; i++){\n          IERC20(ERC20TOKEN).transfer(moveItems[index].voterList[i], voter[index][moveItems[index].voterList[i]].voting);\n          IERC721(ERC721NFT).transferFrom(address(this), moveItems[index].voterList[i], voter[index][moveItems[index].voterList[i]].holdingTokenId);\n\n        }\n\n    }  else if (item.pros < item.cons){\n      //  ,     \n      //          \n\n        moveItems[index].isActive = false;\n        for(uint i=0; i < moveItems[index].voterList.length; i++){\n          IERC20(ERC20TOKEN).transfer(moveItems[index].voterList[i], voter[index][moveItems[index].voterList[i]].voting);\n          IERC721(ERC721NFT).transferFrom(address(this), moveItems[index].voterList[i], voter[index][moveItems[index].voterList[i]].holdingTokenId);\n\n        }\n    } else if (turnout == true && item.pros == item.cons){\n      //    1 \n      //    ?\n        moveItems[index].movedBlockNumber += 3600*24; //   1 ?\n\n\n    }\n\n  }\n\n  function revocation(uint256 index, address ERC20TOKEN, address ERC721NFT) public {\n  // 6.a.     ,    \n  //    . 6 3600 * 24 * 6\n    require(moveItems[index].movedBlockNumber + (0) >= block.number,\"Time limit reached\");\n    require(moveItems[index].isActive == true, \"Not Active Move\"); \n\n    IERC20(ERC20TOKEN).transferFrom(address(this), msg.sender, voter[index][msg.sender].voting);\n    IERC721(ERC721NFT).transferFrom(address(this), msg.sender, voter[index][msg.sender].holdingTokenId);\n    if (voter[index][msg.sender].prosAndCons == true){\n      moveItems[index].pros -= voter[index][msg.sender].voting;\n      \n    } else {\n      moveItems[index].cons -= voter[index][msg.sender].voting;\n    }\n    voter[index][msg.sender].voting = 0;\n    voter[index][msg.sender].holdingTokenId = 0;\n\n\n  }\n\n\n  function checkMove(uint256 index) public view returns (uint256, uint256){\n    return (moveItems[index].pros, moveItems[index].cons);\n  }\n\n  function checkActive(uint256 index) public view returns (bool){\n    return (moveItems[index].isActive == true);\n  }\n\n  function checkEnd(uint256 index) public view returns (bool){\n    return (moveItems[index].movedBlockNumber + (3600 * 24 * 7)>= block.number);\n  }\n\n  function checkItem(uint256 index) public view returns (moveItem memory){\n    return moveItems[index];\n  }\n\n\n}\n",
  "sourcePath": "/Users/string/truffle/kanv-gorvanance/contracts/KANV-Gorvernance.sol",
  "compiler": {
    "name": "solc",
    "version": "0.8.0+commit.c7dfd78e.Emscripten.clang"
  },
  "schemaVersion": "3.4.7",
  "updatedAt": "2022-05-25T09:20:31.613Z",
  "networkType": "ethereum",
  "devdoc": {
    "kind": "dev",
    "methods": {},
    "version": 1
  },
  "userdoc": {
    "kind": "user",
    "methods": {},
    "version": 1
  }
}